:08000000421904000000000099
:04004400A807000009
:04004C000C0700009D
:04007C00920B0000E3
:04008000CE090000A5
:0400C40046070000EB
:100200003220EF006315200083015000040031000C
:1002100023122000008041001000BA0000000600F8
:10022000201220000600A900838141008081410046
:100230003380BA009381BA00C819DD0000807100D4
:10024000000006006A0440007AE70C0054D02E003B
:1002500064BD0C009BAD1C0041A00C00CE940A00B4
:10026000E38A0C003482F8008C7A0B008C7AE70069
:10027000BD730B00A56DD5002A680B003463C40064
:10028000B15E0B00935AB300CD560B005453A3003C
:1002900020500B00284D9200674A0B00D647820081
:1002A00071450B00334371001A410B00213F61007F
:1002B000453D0B00853B5200DE390B00DE39420024
:1002C0004D380B00D23642006A350B001434320030
:1002D000CF320B009931230072300B00582F1400DD
:1002E0004B2E0B00492D0500532C0B00662BF600FE
:1002F000832A0A00AA29E700D9280A000F28D90072
:100300004E270A009426CA00E0250A00E025BC001A
:1003100033250A008C24AE00EA230A004F23A000F4
:10032000B8220A002622920099210A001121850094
:100330008C200A000C207700901F0A00171F6A000B
:10034000A21E0A00301E5C00C21D0A00571D4F008D
:10035000EE1C0A00891C4200891C0A00261C42006F
:10036000C61B0A00691B35000D1B0A00B51A2900BF
:100370005E1A0A000A1A1C00B7190A0067190F0052
:1003800019190A00CC18030082180A003918F7005E
:10039000F1170900AC17EB00681709002517DF00FB
:1003A000E4160900A416D300A41609006616C700B7
:1003B00029160900ED15BB00B31509007915B00029
:1003C000411509000A15A400D4140900A0149900CD
:1003D0006C14090039148D0007140900D61382002B
:1003E000A613090077137700491309001C136C004A
:1003F000EF120900EF126100C412090099126100A6
:100400006F120900451257001D120900F5114C002A
:10041000CD110900A7114100811109005B113700BE
:100420003711090013112C00EF100900CC10220025
:10043000AA100900881018006610090046100E0066
:10044000251009002510040006100900E60FFA0027
:10045000C70F0800A90FF0008B0F08006E0FE60011
:10046000510F0800340FDD00180F0800FC0ED300F8
:10047000E10E0800C60EC900AB0E0800910EC000C8
:10048000770E08005D0EB700440E08002B0EAD007D
:10049000130E0800130EA400FA0D0800E30DA400CB
:1004A000CB0D0800B40D9B009D0D0800860D920039
:1004B000700D08005A0D8900440D08002F0D8000B2
:1004C000190D0800040D7700F00C0800DB0C6E001D
:1004D000C70C0800B30C66009F0C08008C0C5D0074
:1004E0008C0C0800790C5400660C0800530C0000BA
:1004F0003220EF006315200083015000040031001A
:10050000A3292000008041001000BA00000006006E
:10051000A02920000600A9008381410080814100BC
:100520003380BA009381BA00C819DD0000807100E1
:1005300000000600570015005A0002005D00170079
:100540005F00020062001A006500020068001D00E2
:100550006A0002006D00200070000200700022009E
:100560007200020075002500780002007B00280060
:100570007E00020080002B008300020086002D0018
:10058000880002008B0030008E00020091003300D2
:100590009300020096003600990002009C0038008B
:1005A0009F000200A1003B00A4000200A4003E0046
:1005B000A7000200AA003E00AC000200AF0041000C
:1005C000B2000200B5004300B7000200BA004600C6
:1005D000BD000200C0004900C2000200C5004C007E
:1005E000C8000200CA004E00CD000200D000510039
:1005F000D3000200D5005400D8000200D8005700F4
:10060000DB000200DE005900E1000200E3005C00B4
:10061000E6000200E9005F00EC000200EE0061006D
:10062000F1000200F4006400F6000200F900670027
:10063000FC000200FF006A000201020004016D00DC
:10064000070102000A016F000A0102000D016F009C
:100650000F0102001201720015010200170175005E
:100660001A0102001D0177002001020023017A0017
:100670002501020028017D002B0102002D018000D0
:10068000300102003301820036010200380185008A
:100690003B0102003E0188003E01020041018B0047
:1006A0004301020046018E00490102004C01900006
:1006B0004F010200510193005401020057019600BE
:1006C000590102005C0199005F01020062019B0078
:1006D0006501020067019E006A0102006D01A10030
:1006E000700102007001A400720102007501A400F3
:1006F000780102007B01A6007D0102008001A900B3
:10070000830102008501AC00880102008B01AE006C
:100710008E0102009001B100930102009601B40025
:10072000990102009B01B7009E010200A101B900DE
:10073000A4010200A401BC00A6010200A901BF009F
:10074000AC010200AF01C200B2010200B401C50059
:10075000B7010200BA01C700BC010200BF01CA0014
:10076000C2010200C501CD00C7010200CA01CF00CD
:10077000CD010200D001D200D2010200D501D50086
:10078000D8010200D801D800DB010200DD01D80049
:10079000E0010200E301DA00E6010200E901DD0008
:1007A000EB010200EE01E000F1010200F301E300C1
:1007B000F6010200F901E600FC010200FF01E80079
:1007C000010202000402EB00070202000902EE002F
:1007D000090202000C02F1000F02020012020000E6
:1007E0003220EF0083152000830150000400310007
:1007F00023412000008041001000BA0000000600E4
:10080000204120000600A900838141008081410031
:100810003380BA009381BA00C819DD0000807100EE
:1008200000000600000009000B0001000C000A0097
:100830000E0001000F000C001100010012000D005D
:100840001400010016000F0017000100190010002D
:10085000190001001A0012001C0001001D00140004
:100860001F000100200015002200010024001700D5
:100870002500010027001800280001002A001A00A6
:100880002B0001002D001B002F00010030001D0077
:100890003200010033001E00350001003600200048
:1008A00036000100380020003A0001003B00220021
:1008B0003D0001003E0023004000010041002500F2
:1008C00043000100450026004600010048002800C2
:1008D000490001004B002A004C0001004E002B0093
:1008E0005000010051002D005300010054002E0063
:1008F000540001005600300057000100590031003B
:100900005B0001005C0033005E0001005F0034000A
:1009100061000100620036006400010065003800DB
:1009200067000100690039006A0001006C003B00AB
:100930006D0001006F003C007000010070003C0081
:100940007200010074003E007500010077003F0056
:10095000780001007A0041007B0001007D00430027
:100960007F000100800044008200010083004600F7
:100970008500010086004700880001008A004900C8
:100980008B0001008D004A008E0001008E004C009B
:100990009000010091004E009300010095004F006F
:1009A0009600010098005100990001009B00520040
:1009B0009C0001009E005400A0000100A100550011
:1009C000A3000100A4005700A6000100A7005900E1
:1009D000A9000100AA005A00AA000100AC005A00B8
:1009E000AE000100AF005C00B1000100B2005D008C
:1009F000B4000100B5005F00B7000100B90060005D
:100A0000BA000100BC006200BD000100BF0064002C
:100A1000C0000100C2006500C4000100C5006700FD
:100A2000C7000100C8006800C8000100CA006A00D1
:100A3000CB000100CD006B00CF000100D0006D00A5
:100A4000D2000100D3006E00D5000100D600700076
:100A5000D8000100D9007200DB000100DD00730046
:100A6000DE000100E0007500E1000100E300760017
:100A7000E5000100E6007800E6000100E8007800EB
:100A8000E9000100EB007900EC000100EE007B00C2
:100A9000EF000100F1007D00F3000100F4007E0092
:100AA000F6000100F7008000F9000100FA00810063
:100AB000FC000100FE008300FF0001000101840032
:100AC000020101000201860004010100050100008D
:100AD000070100003220EF00831520008301500041
:100AE00004003100C3582000008041001000BA000B
:100AF00000000600C05820000600A90083814100C4
:100B0000808141003380BA009381BA00C819DD00AA
:100B1000008071000000060000002B0010000100A2
:100B200012002C001300010015002E001700010018
:100B3000190030001A0001001C0031001E000100E5
:100B400020003300200001002100350023000100B7
:100B50002500370027000100280038002A00010086
:100B60002C003A002E0001002F003C003100010053
:100B700033003E003500010036003F003800010020
:100B80003A0041003C0001003D0043003F000100ED
:100B900041004500410001004300450044000100C0
:100BA00046004600480001004A0048004B00010092
:100BB0004D004A004F00010050004C00520001005F
:100BC00054004D005600010057004F00590001002D
:100BD0005B0051005D0001005E00530060000100F9
:100BE00062005400620001006400560065000100CC
:100BF00067005800690001006B005A006C0001009A
:100C00006E005B007000010072005D007300010067
:100C100075005F0077000100790061007A00010033
:100C20007C0062007E000100800064008100010001
:100C300081006400830001008500660087000100D8
:100C4000880067008A0001008C0069008E000100A6
:100C50008F006B009100010093006D009500010072
:100C600096006E00980001009A0070009B00010041
:100C70009D0072009F000100A1007400A20001000D
:100C8000A2007500A4000100A6007700A8000100E2
:100C9000A9007900AB000100AD007B00AF000100AE
:100CA000B0007C00B2000100B4007E00B60001007C
:100CB000B7008000B9000100BB008200BD00010048
:100CC000BE008300C0000100C2008500C200010018
:100CD000C4008500C5000100C7008700C9000100ED
:100CE000CB008900CC000100CE008A00D0000100BA
:100CF000D2008C00D3000100D5008E00D700010087
:100D0000D9009000DA000100DC009100DE00010053
:100D1000E0009300E1000100E3009500E300010022
:100D2000E5009700E6000100E8009800EA000100F5
:100D3000EC009A00ED000100EF009C00F1000100C2
:100D4000F3009E00F4000100F6009F00F80001008F
:100D5000FA00A100FB000100FD00A300FF0001005C
:100D60000101A500020101000401A6000401010027
:100D70000601A600080101000901A8000B010100FD
:100D80000D01AA000F0101001001AB0012010100CA
:100D90001401AD00160101001701AF001901010097
:100DA0001B01B1001D0101001E01B2002001010064
:100DB0002201B400230101002301B6002501010036
:100DC00027010000290100003220EF00036F2000FE
:100DD000008041001040BA000160EF0000000600F2
:100DE0000A4D00006F7400006F7200002043000085
:100DF0006F6E0000747200006F6C000020550000E0
:100E00006E69000074200000763000002E31000072
:100E10000D0A0000000000004200F8003600F80053
:100E20003200F800801F7800200020000C0009002C
:100E3000B01F780000802000244380008400400020
:100E40001282BF008520A900805878006428EC0039
:100E500034062000234380000300520001003100CB
:100E60006428EF000E02AF00F5FF3700A00120005C
:100E70000C0009004F1078004F0078003200F90094
:100E80003600F9004200F900004006004200F80078
:100E90003600F8003200F800801F780020002000A3
:100EA0000C000900B01F780088E0A900A001200014
:100EB0000C0009004F1078004F0078003200F90054
:100EC0003600F9004200F90000400600851F780056
:100ED000C500200003000900B51F78000202B80019
:100EE00003F0A600020037000383B90001003700B9
:100EF0000303B8004200A9008502430060844B0050
:100F000001F0A60002003700028BB9000100370093
:100F1000020BB80085024B0008844B000980B0002A
:100F2000038BB90008044B0087834C0087017800CD
:100F30000801780085007800040078002501200071
:100F400003000900CF127800CF02780000000600ED
:100F50004200F8003600F8003200F800801F7800E8
:100F6000200020000C000900B01F780024498000F8
:100F7000E1024200E4012000110009008482D8004F
:100F8000214988002409F8007209F90024498000E9
:100F9000EA024200E4012000110009008482D80026
:100FA000A14B880024498000F4024200E4012000A3
:100FB000110009008482D800B14B8800582BEF0043
:100FC000C45A80006320E100CB003D00C45A800079
:100FD0006420B8008492200084024000C45A80003B
:100FE0006220B8002497200004004000100378001D
:100FF0004130DD00449320000400400000027800EE
:10100000140078008000EB0000F0A7008080EB0067
:1010100004002000B41A7800B41A7800C45A800082
:101020006420B8008492200084024000C45A8000EA
:101030006420B8008492200004004000C400200016
:10104000301A7800301A78002689BF008000EB0043
:1010500000F0A7008080EB0000017800810178009B
:101060000600780087007800660702000000000094
:1010700004002000B41A7800B41A7800C45A800022
:101080006420B8008492200004004000A4002000E6
:10109000301A7800301A78006030E1001600350010
:1010A00002003C006028E10013003600C45A8000B2
:1010B0006420B8008492200084024000C45A80005A
:1010C0006420B8008492200004004000C400200086
:1010D000301A7800301A78000DC0BF00804A7800BE
:1010E000974298000FC0BF00A042980000C0B30014
:1010F000B04298003E003700C45A80006420B80017
:101100008492200004004000A4002000301A7800DF
:10111000301A78006030E10035003C0002003500F4
:101120006028E10032003100C45A80006420B80019
:101130008492200084024000C45A80006420B800D9
:101140008492200004004000000278000300200088
:10115000B4197800B419780004002000800A520005
:1011600004002000812A5A00C45A80006420B8007C
:101170008492200084024000C45A80006420B80099
:101180008492200004004000C4002000301A78003F
:10119000301A78000DC0BF00804A7800974298004E
:1011A0000FC0BF00A042980000C0B300B04298003A
:1011B000C45A80006420B800849220008402400059
:1011C000C45A80006420B8008492200004004000CB
:1011D0000002780003002000B4197800B4197800E8
:1011E00004002000800A520004002000812A5A00D6
:1011F000C45A80006420B800849220008402400019
:10120000C45A80006420B80084922000040040008A
:10121000C4002000301A7800301A7800843E200084
:10122000840A4300E0AA4B00C45A80006420B8003E
:101230008492200004004000A4002000301A7800AE
:10124000301A78006030E1001000350003003C00E7
:10125000E47920000520E1000C003100C45A800030
:101260006420B8008492200084024000E0C9B300EA
:10127000804A780070C0B3009042980000C0B3006C
:10128000A042980000C0B300B0429800C45A800049
:101290006420B8008492200004004000A4002000D4
:1012A000301A7800301A78006030E10010003C00FD
:1012B00003003500240320000520E1000C00360067
:1012C000C45A80006420B800849220008402400048
:1012D00020C3B300804A780000C0B3009042980059
:1012E00000C0B300A042980000C0B300B042980014
:1012F000582BEC0032FF37002809F8001E09F900CE
:101300002C09F8002009F9003009F8002209F90039
:1013100096C9AF000D0037001FC9BF00D7E1B70065
:101320001EC9BF00D6E1B70021C9BF00D9E1B7008F
:1013300020C9BF00D8E1B70023C9BF00DBE1B70077
:1013400022C9BF00DAE1B70001003700C161EF0038
:101350008489BF004100DD000001020000000000A0
:10136000800278001021EF00650888007608880068
:10137000840028008408880084E0A900A0012000DF
:101380000C0009004F1078004F0078003200F9007F
:101390003600F9004200F900004006004200F80063
:1013A0003600F8003200F800801F7800200020008E
:1013B0000C000900B01F78009A29EC004220AF0011
:1013C0009C29EC009E29EC004220AF00A029EC00F3
:1013D000E44C80006020E1000800390004003E0079
:1013E000D44C8000230320000418E10003003E00D9
:1013F0009669A8009A29EF009C29EF00044D80000F
:101400006020E1000800390004003E00F44C800038
:10141000430620000418E10003003E009629A800BE
:101420009E29EF00A029EF0086C0A900A00120009E
:101430000C0009004F1078004F0078003200F900CE
:101440003600F9004200F90000400600851F7800D0
:10145000861F7800871F7800881F7800C55A800093
:101460005A8BBF001003780007002000C000200046
:10147000580BB4000002780003002000B419780073
:10148000B419780000027800C3002000B31A780075
:10149000B31A78004500B1000402E8000402E90034
:1014A00003003200951AD0009592D200FBFF37005E
:1014B00080002000580BB40080027800588BBF00D9
:1014C000C4002000301A7800301A78004000200054
:1014D000580BB4000002780003002000B419780013
:1014E000B4197800800A530081AA5B0080002000B4
:1014F000580BB400A4002000301A7800301A78008D
:101500006030E1002D00350002003C006028E10061
:101510002A00360080002000580BB40080027800BA
:1015200080002000580BB400C4002000301A78005E
:10153000301A780000012000580BB4000002780037
:1015400003002000B4197800B41978000002780074
:10155000C3002000B31A7800B31A78004500B10028
:101560000402E8000402E90003003200D50AD100B9
:10157000C58AD300FBFF370040002000580BB400A1
:101580008002780040002000580BB400C400200006
:10159000301A7800301A780080002000580BB40010
:1015A0000002780003002000B4197800B419780014
:1015B000860A400087AA48004000370080002000CB
:1015C000580BB400A4002000301A7800301A7800BC
:1015D0006030E10039003C00020035006028E10085
:1015E0003600310080002000580BB40080027800E3
:1015F00080002000580BB400000278000300200097
:10160000B4197800B419780004002000800A520050
:1016100004002000812A5A0080002000580BB400EA
:101620008002780080002000580BB400C400200025
:10163000301A7800301A780000012000580BB400EE
:101640000002780003002000B4197800B419780073
:1016500000027800C3002000B31A7800B31A7800A3
:101660004500B1000402E8000402E9000300320072
:10167000D50AD100C58AD300FBFF37004000200007
:10168000580BB4008002780040002000580BB400D2
:10169000C4002000301A7800301A78008000200042
:1016A000580BB4000002780003002000B419780041
:1016B000B4197800800A530081AA5B00E55A8000C3
:1016C00040002000580BB400C4002000301A7800FD
:1016D000301A7800C0002000580BB40000027800D7
:1016E00003002000B4197800B419780000027800D3
:1016F0000600BE000402E8000402E9000300320014
:101700008100D1000080D300FBFF3700800A780001
:101710004F047800CF0378004F037800CF027800A1
:10172000000006004200F8003600F8003200F80021
:10173000801F7800200020000C000900B01F7800F6
:10174000D4FF2F0044158800A222EF0014002000CF
:1017500034158800A002A900A022A800A002AE00B3
:10176000FEFF37008002F8008009F900044C800079
:10177000F33F20000418E10002003100F43F200094
:10178000044C88008029D50096A9AF002B003700B3
:10179000F4FB2F0044158800A222EF006400200013
:1017A00034158800A002A900A022A800A002AE0063
:1017B000FEFF37008002F800720AF90024A2200020
:1017C000C45A880024A72000D45A880064A72000A7
:1017D000E45A8800260A020000000000B45380008A
:1017E00093538000030052007AAAB7007A8ABF00A0
:1017F00000F0A6000300370004002000D35380004F
:10180000030052007EAAB700762AEF0064A32000EE
:10181000C45A8800E4A72000D45A880064A7200096
:10182000E45A8800260A020000000000760AF80048
:10183000820AF90096A9A8002A003700F4EF2F00C9
:1018400044158800A222EF0084002000341588008F
:10185000A002A900A022A800A002AE00FEFF37004F
:101860008002F800740AF900A4A42000C45A880079
:1018700044A72000D45A880084A72000E45A880096
:10188000260A020000000000C4538000A353800019
:10189000030052007CAAB7007C8ABF0000F0A600BB
:1018A0000300370004002000E353800003005200CF
:1018B00080AAB700782AEF00E4A52000C45A880067
:1018C00004A82000D45A880084A72000E45A880085
:1018D000260A020000000000780AF800840AF900D5
:1018E00096A9A90086A0A900A00120000C0009006B
:1018F0004F1078004F0078003200F9003600F900F0
:101900004200F90000400600851F78006554800001
:10191000804AEB0000C0B3009042980000C0B300C2
:10192000A042980000C0B300B042980040002000E0
:101930008C0AB40080027800804AEB0000C0B3003B
:101940009042980000C0B300A042980000C0B300CD
:10195000B0429800C00020008C0AB40080027800D9
:10196000E4A82000B41A7800B41A7800000120001E
:101970008C0AB4008002780024A92000B41A7800F0
:10198000B41A7800CF02780000000600811F7800AA
:1019900041548000805878008048EB00CF007800E8
:1019A000882AEC000000060000C8B300C1E1B700BF
:1019B00020C0B300C0E1B70030C0B300C5E1B7003C
:1019C00070CEB300C4E1B700C761EF0010C0B30030
:1019D000C6E1B700C961EF0070C7B300C8E1B70046
:1019E000CB61EF0020C0B300CAE1B700CD61EF00CA
:1019F00000C1B300CCE1B700CF61EF00CE61EF00D2
:101A0000D161EF00D061EF00F0C3B300D5E1B700C2
:101A1000F0C0B300D4E1B7001FC9BF00D7E1B700E1
:101A20001EC9BF00D6E1B70021C9BF00D9E1B70088
:101A300020C9BF00D8E1B70023C9BF00DBE1B70070
:101A400022C9BF00DAE1B700C160EF0000C7B300F0
:101A5000C0E0B70000000600851F7800C500200028
:101A600003000900B51F78000002780081027800A9
:101A700002037800830378000000EB008000EB0095
:101A80000001EB008001EB000800A10007F0A600B8
:101A9000080037000800A0008783EA000683EA00F8
:101AA0008582EA000402EA00E0824A0060034B00FB
:101AB000E0834B008504720002003A008704730043
:101AC00015003200394720000340A7000B00370003
:101AD0004200A9000482D2008582D2000683D2008F
:101AE0008783D2000080D2008180D2000281D200A0
:101AF0008381D2008904E900F3FF3A00C44CDD0081
:101B00004200A90009F0A1000340A10083816C00FC
:101B10000800A70003F0A000250120000300090031
:101B2000CF127800CF02780000000600881F7800EE
:101B30002801200004000900B81F78008005EB0090
:101B40006066B8000304780087047800FA7F2000FC
:101B50004200A9004220A90044C4DE000804650038
:101B60000800E000710032004200A9004220A900F4
:101B7000C4CCDE00890465000900E0006B0032007F
:101B80000884440009B0A70004003700F83FB10002
:101B90006600320065003900030037001A4020005B
:101BA0008542450061003100878669004200A90036
:101BB0004220A900F300B2000340A000F700B200E9
:101BC0000740A000881F78000124B800002DB8004D
:101BD0000A0544008B854C000C80B0000224B8003C
:101BE0008B0544000C864C00012CB8000005EB006E
:101BF0008B0544000C864C000A80B0000034B8000D
:101C00008B0544000C864C000A80B0008005EB0078
:101C10000324B8000C0644000A854C000B80B00079
:101C2000022CB8000C0644000A854C000B80B00062
:101C30000134B8000C0644000A854C000B80B0004B
:101C4000003CB8000C0644000A854C000B80B00034
:101C50000C0078000006EB00032CB8000A054400D5
:101C60008B854C000C80B0000234B8000A0544009B
:101C70008B854C000C80B0000334B8008B05440009
:101C80000C864C00013CB8000A0544008B854C00D2
:101C90000C80B000023CB8008B0544000C864C0060
:101CA000033CB8000C0644008A0078000B01780061
:101CB0008C017800540020004200A9008381D300E9
:101CC0000281D3008180D3000080D3000402E900A8
:101CD000F9FF3A004F0478000804E800010370009F
:101CE00001003200020037000303710008003200D7
:101CF0000340A700060037004200A9000080D20080
:101D00008180D2000281D2008381D2000804E900E0
:101D10004444DD0003F0A1000DF0A70003F0A00093
:101D20000340A10083016C00030037006000B8008D
:101D30006001B80000003700A8012000040009007D
:101D40004F1478004F04780000000600881F7800C8
:101D50002801200004000900B81F78008786690068
:101D60000304780087047800FA7F20004200A9006D
:101D70004220A90044C4DE00080465000800E00019
:101D80006C0032004200A9004220A900C4CCDE0051
:101D9000890465000900E000660032000005EB00E0
:101DA0000906540003003900FC3FB0006100310017
:101DB000040037001B4020000B0656005D00390070
:101DC0005C0032000004EB008004EB000005EB0037
:101DD0008005EB00F301B2000340A000F701B20060
:101DE0000740A0008C1F78006C0320000400500006
:101DF0008580580006015900878159000200330090
:101E00000600310006003A000400400085804800CA
:101E10000601490087814900010037000800A00041
:101E20000C06E9000B0032004200A9000080D2003D
:101E30008180D2000281D2008381D2004200A900B9
:101E40000884D2008984D2000A85D2008B85D20012
:101E5000E6FF37004F0678000B50A700010037005F
:101E6000060037004200A9008B85D3000A85D30005
:101E70008984D3000884D300030037000C06E900EE
:101E80004200A9002B0032004200AF0009003700D9
:101E90000080D2008180D2000281D2008381D200F2
:101EA00004025000858258000603590087835900B8
:101EB000150039000804E80013003A008904E8001E
:101EC00011003A000A05E8000F003A008B05E8000F
:101ED0000D003A000C06E800160032000A00370038
:101EE0000C06E900130032000B40A7000600370083
:101EF0004200A9000884D2008984D2000A85D20059
:101F00008B85D200F8FF37004466DD004200A9004F
:101F10000CF0A1000DF0A7000CF0A0000B40A100F8
:101F20008B016E000A0178008900780008007800B3
:101F30000500370000002000010020000200200002
:101F40000300200000003700A80120000400090061
:101F50004F1478004F04780000000600881F7800B6
:101F60002801200004000900B81F7800080028009C
:101F70004300AF0087036C000000E00007003A0058
:101F80000100E00005003A000200E00003003A0012
:101F9000FAFF27000A8561004220AE0003057800A1
:101FA0008A856B00030478008704780007067800B0
:101FB000FD7F20004220A9004200A90044C4DE00A9
:101FC000088466000800E000BC0032004220A9003E
:101FD0004200A900C4CCDE00898466000900E0004C
:101FE000BE0032008006EB004220A9004200A9009A
:101FF0000848E100BA003200C10033000D00A10022
:102000000D10A00008845400F300B2000340A000AB
:10201000F700B2000740A0004803B10016003B00E3
:102020004803B0004220A9004200A9008381D300E8
:102030000281D3008180D3000080D3000804E9002E
:10204000F8FF3A00140037004803B1000F003B00CE
:102050004803B0004220A9004200A9008783D300B2
:102060000683D3008582D3000482D3000804E900EC
:10207000F8FF3A001B003700040078008500780064
:1020800006017800870178000C866D000CF0A7002F
:102090000BF0A200790037000BF0A6001F003700FC
:1020A0000D40A7008C0578000080EA008180EA00DE
:1020B0000281EA0083C1EA00F341B2000000E800B7
:1020C00005003A008100E80003003A000201E80040
:1020D00001003A008341E8000D40A70032003700BC
:1020E0000E0037000BF0A6000C0037000482EA0057
:1020F0008582EA000683EA0087C3EA00F741B2005E
:102100000402E80005003A008502E80003003A00F6
:102110000603E80001003A008743E8004220A900D6
:102120004200A900040040008580480006014900E3
:1021300087C149000350A7000D30A0000D00A70083
:10214000090037000D10A700010037000B00370011
:102150000BF0A700140037000D30A700290037004E
:102160000D60A000210037000BF0A7000E00370023
:102170000D30A700230037001C0037000BF0A7002C
:10218000040037008A0578000D30A7001D003700D5
:102190003A0037000D40A00003C1B2000340A70081
:1021A000BFFF37008A057800F301B2000284710096
:1021B00002003A00008470000C0032000340A700C7
:1021C0000A0037004220A9004200A9000080D20086
:1021D0008180D2000281D2008381D2008904E9008B
:1021E0004220AF0032003700F4FF37000D00A70097
:1021F0008A0578000D10A7008C0578000D50A60008
:102200001E0037004200A90083C1D3000281D30021
:102210008180D3000080D3004200AF000D50A000A9
:102220008904E8004220AF00210037000D50A600CD
:102230000E0037000000E8000C003A008100E800C2
:102240000A003A000201E80008003A008301E800B1
:1022500006003A0083C1D3000281D3008180D300FD
:102260000080D3008904E800110032000D00A700AF
:102270008A0578000D10A7008C0578000102700017
:1022800002003A0003027100260032000340A10060
:102290004220A9004200A900C44CDD0083816C00EB
:1022A00003F0A0000BF0A60003F0A1001D00370012
:1022B0006000B8006011B8001A003700080028005C
:1022C0000AF0A70087036C008500780004007800FE
:1022D00006017800870178001200370011003700EE
:1022E000F700B2000740A000F300B2000340A000D6
:1022F0000BF0A7000740A1000D20A00079FF3700D8
:10230000F300B2000340A000F700B2000740A000B5
:1023100009045400890444000D10A1000D00A00020
:1023200049FF3700A8012000040009004F1478007D
:102330004F04780000000600881F7800891F78008D
:102340008A1F78008784690009F0A600060037001C
:102350004200A9004220A90003F0A6003400370083
:102360004200A80032003700FA7F20000304780002
:102370008704780044C4DE0008046500C4CCDE0095
:1023800089046500088554000500320003F0A600AA
:10239000270037001000200042E0B600240037007C
:1023A0000304780087047800F301B200F701B2005B
:1023B0000340A1000740A10003C5530005003200FF
:1023C00008F0A6001A0037001000200042E0B60016
:1023D00017003700020553000500320008F0A60080
:1023E000130037001000200042E0B6001000370054
:1023F000018552000500320008F0A6000C003700ED
:102400001000200042E0B60009003700000552002D
:102410000500320008F0A60005003700100020007B
:1024200042E0B600020037004200A9000000370079
:102430004F057800CF0478004F04780000000600B4
:10244000851F7800C500200005000900B51F780031
:10245000030478008203780001037800800278008A
:10246000830478003B472000C499DE00FA7F2000F7
:102470008301650083855500F801B2000840A00083
:102480000000EB008000EB000001EB008001EB009E
:102490004200A9000884D3008783D3000683D300B9
:1024A0008582D3008381D3000281D3008180D30051
:1024B0000080D3008B05E900F5FF3A0009F0A60083
:1024C000090037000080EA008180EA000281EA000A
:1024D0008381EA000000E8000180B0000280B000C3
:1024E0000380B000000037006501200005000900EE
:1024F000CF127800CF02780000000600851F780018
:10250000861F7800871F7800881F7800BA2AEF009E
:10251000BC2AEF00BE2AEF0004FF23000456880007
:10252000F4F12F0054568800CCAAEF00CEAAEF0099
:10253000F4FD2B008456880054C321009456880073
:1025400054552500A456880054552500B4568800DB
:1025500054FA2300C4568800C4F12300D4568800DE
:10256000746A2100E4568800C4162C00F4568800D2
:1025700064F52B0004578800643E2F001457880030
:1025800054D6200024578800041A200034578800AD
:10259000A4EF230044578800E4A320005457880088
:1025A0001493230064578800C4E4270074578800FC
:1025B00024E92B0084578800B4DF2D00945788004D
:1025C00074B72200A457880014DB2E00B45788008B
:1025D00014E22300C4578800C4FC2600D4578800A6
:1025E00074FF2800E457880004612C00F457880029
:1025F00084DA2B0004588800C42421001458880071
:10260000C4E128002458880094AF2300345888007F
:1026100034CF23004458880064672700545888004A
:10262000F450230064588800E40D2C00745888008E
:1026300004CF230084588800A08ABF001155800071
:102640002255800033558000040020000500200042
:1026500006002000070020009C110200000000007E
:102660000500390000AA200001AA20000700090087
:10267000B0187800A7EAAA00A08ABF001155800010
:10268000225580003355800044882C0095DC2600BC
:1026900006F3250047FE2300960D0200000000000F
:1026A0002012020000000000A8EAB700A08ABF00C4
:1026B00011558000225580003355800044882C003D
:1026C00095DC260006F3250047FE2300960D020048
:1026D0000000000080027800010378008203780087
:1026E0000304780001002000020020000300200005
:1026F000A8CABF000160EF002C0D0200000000001E
:102700004300A800851F7800861F7800871F780087
:1027100000027800050078008102780086007800C9
:1027200002037800070178008303780088017800AD
:10273000AE0F020000000000CF0378004F037800C6
:10274000CF027800C2AAB70021568800325688000E
:1027500043568800A8CABF0063406000A8EAB700DB
:10276000A84AE20003003200445580006224E100E0
:102770000F003A00C28ABF00215680003256800006
:102780004356800084D1220045442500B61F220014
:1027900097FF2300960D020000000000B2AAB700C8
:1027A000A1558800B2558800C35588004A003700FB
:1027B000445580006124E10024003A004300A80051
:1027C00000002000010020000200200003FF230081
:1027D00014568000255680003656800047568000EB
:1027E000AE0F0200000000008002780001037800B4
:1027F0008203780003047800851F7800861F780024
:10280000871F7800050078008600780007017800AF
:102810008801780084D1220045442500B61F22009B
:1028200097FF2300960D020000000000CF03780000
:102830004F037800CF027800B2AAB700A1558800F4
:10284000B2558800C3558800230037004300A80014
:10285000C28ABF0021568000325680004356800055
:1028600004002000050020000600200007FF2300D0
:10287000AE0F020000000000800278000103780023
:102880008203780003047800851F7800861F780093
:10289000871F78000500780086007800070178001F
:1028A0008801780084D1220045442500B61F22000B
:1028B00097FF2300960D020000000000CF03780070
:1028C0004F037800CF027800B2AAB700A155880064
:1028D000B2558800C3558800AA2AEF00AC2AEF0041
:1028E000AE2AEF0004FF230084558800B28ABF009F
:1028F000A1558000B2558000C355800094558000DA
:10290000A5558000B6558000C7558000960D020081
:1029100000000000B2AAB700A1558800B255880097
:10292000C3558800A96AEF00445580004822DE00A4
:102930006824E10031003E00BA8ABF00E155800002
:10294000F25580000356800094558000A555800004
:10295000B6558000C7558000960D020000000000AB
:10296000BAAAB700E1558800F255880003568800DE
:10297000A9CABF000160EF004300DD00A4AC200045
:102980000400400080027800851F78001500780060
:10299000D500780055017800D5017800D455800025
:1029A000E5558000F655800007568000960D020020
:1029B00000000000CF0278004300A9000002780068
:1029C000810278000203780083037800AA8ABF009E
:1029D000615580007255800083558000AE0F020063
:1029E00000000000AAAAB70061558800725588004F
:1029F00083558800A96AEC00CBFF3700445580005E
:102A00006224E10003003200445580006124E100AB
:102A100005003A00A0AA2000A1AA20000700090092
:102A2000B0187800B1EAAA00AA8ABF0061558000F8
:102A300072558000835580004F047800CF037800E2
:102A40004F037800CF02780000000600851F780051
:102A5000861F7800871F7800881F78004300A80031
:102A60008E8ABF008154800092548000A35480005D
:102A700084D1220045442500B61F220097FF230081
:102A8000AE0F020000000000800278000103780011
:102A900082037800030478000555880016558800E5
:102AA00027558800385588007E120200000000007B
:102AB0004F047800CF0378004F037800CF027800EE
:102AC00000000600851F7800C500200005000900F1
:102AD000B51F7800030478008203780001037800B2
:102AE00080027800830478003B472000C499DE0010
:102AF000FA7F20008301650083855500F801B2004C
:102B00000840A0000000EB008000EB000001EB009B
:102B10008001EB004200A9000884D3008783D30022
:102B20000683D3008582D3008381D3000281D30042
:102B30008180D3000080D3008B05E900F5FF3A00C7
:102B400009F0A600090037000080EA008180EA0051
:102B50000281EA008381EA000000E8000180B00001
:102B60000280B0000380B000000037006501200043
:102B700005000900CF127800CF027800000006009F
:102B8000851F7800861F7800871F7800881F7800CF
:102B90007029EF00844B80007E20E1005700310057
:102BA0007089BF0001002000020020000300200007
:102BB0002C0D020000000000040020000500200091
:102BC0000600200007002400960D0200000000000F
:102BD0008002780001037800820378000304780003
:102BE000851F7800861F7800871F78000500780011
:102BF00086007800070178008801780084D12200DF
:102C000045442500B61F220097002400960D0200BF
:102C100000000000CF0378004F037800CF02780057
:102C200080027800010378008203780003047800B2
:102C3000851F7800861F7800871F780005007800C0
:102C400086007800070178008801780004002000E1
:102C50000500200006002000E7032400A60E020065
:102C600000000000CF0378004F037800CF02780007
:102C700078A9B700D14B8800E24B8800F34B88005D
:102C80007089BF004100DD004493200084024000B1
:102C90007809F8008E0AF9007A09F800900AF9001C
:102CA0007C09F800920AF9007E09F800940AF900FC
:102CB0002615020000000000851F78000002780041
:102CC000810278000203780083037800000020006E
:102CD0000100200002002E00F3062400960D0200E1
:102CE00000000000CF027800621502000000000022
:102CF000800A78007029EC00A6FF37004F047800A6
:102D0000CF0378004F037800CF0278000000060060
:102D10002361AE000300370010C0B30000E0B7002D
:102D2000010037000060EF0000000600851F7800FA
:102D3000C500200003000900B51F780000F0A600C0
:102D40000F0037000000EA000480A00004F0A60095
:102D50000B003700801F7800D0022000841F78000D
:102D6000801F78004F007800C60C020000000000B1
:102D70004F0278004F0078000480A1000860ED0049
:102D80008002EB00800378008404780004F0A10046
:102D90000404E00006003A0009F0A7000200370032
:102DA000050020001700370005002000150037003F
:102DB0000980A600E64252000980A700E7425200BF
:102DC0000F0039000003200009F0A60000022000D7
:102DD000801F7800841F7800801F78004F007800E3
:102DE000C60C0200000000004F0278004F0078007F
:102DF0008502E900F6FF3B00550020000100370086
:102E000084027800640020000580A7000402E80026
:102E100005E0A00009F0A70005F0A000087122005D
:102E2000110009008883D800681702000000000024
:102E300081037800883E2000110009008883D800B3
:102E40006817020000000000810378004806200097
:102E5000110009008883D8006817020000000000F4
:102E600081037800A8002000110009008883D800A1
:102E700068170200000000000980A6000A00370061
:102E8000D0022000811F7800841F7800801F780006
:102E90004F007800C60C0200000000004F027800CE
:102EA000CF0078000980A1000003200000C040008E
:102EB00050018800841F7800801F78004F00780040
:102EC000C60C0200000000004F0278002A00370004
:102ED000060320000000E0000E003A0005E0A60016
:102EE0001B0037000402E9000524E1000200320063
:102EF0004200AF00000006000000E00005003A00BC
:102F000005E0A6001200370005F0A600060220002A
:102F10000F00370005E0A1000980A6000C00370073
:102F200000057800D0022000811F7800841F7800FF
:102F3000801F78004F007800C60C020000000000DF
:102F40004F027800CF0078000980A1000A007800C5
:102F500000404300811F7800841F7800801F7800A4
:102F60004F007800C60C0200000000004F027800FD
:102F7000CF007800000006002501200003000900B2
:102F8000CF127800CF02780000000600861F78007C
:102F9000871F7800881F7800891F78000002EB00E7
:102FA0008002EB000003EB008003EB0003046900E8
:102FB00011003200080220004200A9000080D20067
:102FC0008180D2000482D2008582D2000328E100F1
:102FD00001003A0002A0E1000300390002025200A1
:102FE00083825A004200A8000683D2008783D20061
:102FF0000804E900F0FF3A00870078000600780036
:10300000CF0478004F047800CF0378004F03780096
:1030100000000600851F7800C50020000700090099
:10302000B51F780001F0A600070037000000EA0095
:103030000100320002003A008100EA00010037007E
:103040008180EA000480A0008002EB000003780089
:10305000810378000406780004F0A1000404E00075
:1030600001003A0024003700EB42520022003900F0
:10307000054252000CF0A600100037000480A600A4
:103080000C003700D0022000811F7800841F7800D8
:10309000801F78004F007800C60C0200000000007E
:1030A0004F027800CF0078000480A1008502E9007B
:1030B000110033000003200001003700000220004F
:1030C000801F7800811F7800841F7800801F78009F
:1030D0004F007800C60C0200000000004F0278008C
:1030E000CF0078004F0078008502E900F4FF3B0034
:1030F0000480A7000442E900E80020000900200045
:103100001000FA000C377C000884E900FDFF3B004A
:1031100084027800A40020000580A7000402E800D3
:1031200005E0A0000CF0A70005F0A0000504E000F9
:10313000010032008542E900040F7800150798006D
:10314000060078008700780002A02C00A3B92300B5
:10315000087122000DF0A1004300A900C61702006B
:10316000000000000DF0A2000DF0A70007003700DE
:10317000400798005107980000017800810178000D
:103180002E009000BE009000F3FF37004207980029
:103190005307980024079800350798001E0278000E
:1031A0009E029000060320000000E00011003A009B
:1031B00005E0A600110037000402E900040F7800C2
:1031C0000400E0000D0032000524E100020032009E
:1031D0004200AF001E00370005F0A60003003700D4
:1031E0000580A60013003700070037000602200004
:1031F0001000370005E0A100150798009E0290001E
:103200000580A6000B0037000580A1001507980077
:1032100000057800D0022000841F7800801F78000D
:103220004F007800C60C0200000000004F0278003A
:103230000A00780000404300841F7800801F780057
:103240004F007800C60C0200000000004F0278001A
:103250004E009000DE009000A20020008001EB00F4
:103260006100E10001003200BBFF37000080FA007E
:10327000A501200007000900CF127800CF027800D6
:10328000000006000FF82000F0FF200020A0B7008B
:103290000000000040442400B004880040442400A2
:1032A0003005880081E0A800040028006410880030
:1032B000044020007410880004012000A41088003D
:1032C0006428EF006628EF006428EF006628EF000E
:1032D0008D20A8002429EF002629EF008029EF0087
:1032E0008229EF0014002000244C88008629EF007A
:1032F0008829EF008A29EF008C29EF008E29EF0042
:103300009029EF009229EF009429EF009609A90077
:103310009829EF009629A9009649A9009669A90065
:103320009769EF009A29EF009C29EF009E29EF0092
:10333000A029EF000C2AEF000E2AEF00142AEF005C
:10334000182AEF001A2AEF001E2AEF00202AEF00A9
:10335000722AEF00742AEF00762AEF00782AEF0035
:103360007A2AEF007C2AEF007E2AEF00802AEF0005
:10337000822AEF00842AEF0000C2B30086EAB70079
:1033800000C2B30087EAB70096A9A90096C9A900B0
:1033900096E9A900882AEF00A8A2EF009689A90063
:1033A00050003700C0060800680000004BF03F00E6
:1033B0005C0A5800F63B8F0000C03C008B28AC0034
:1033C0003CBEF6003FD2D50044168C0015D7BF0096
:1033D00069005A002E1B8700993F9A005FAD4B0091
:1033E00091E40100C05D11002F92E40081FB3F00D9
:1033F00038DA9100809DC500E0BF6F0012C0B400B4
:10340000C309AB003F6BC100034EC100B545BF000F
:10341000F7400500FF005C00EF3FF300A3E2F70078
:10342000D7FF010040C0B400FF053C0058FC3F003E
:103430003BD3C000B5BA8C00E23F3900D3C73D0092
:103440004179B2003F870D003C50D000AF623F0091
:10345000304B8D00A282AA0004400900A0404A001F
:103460000576030040EC9E003788A60044F03F003C
:103470008F128D00299A5B00C73F0E00E0807C0010
:10348000A1D886003F294B00FB95C200371A3F00A8
:103490000000C00006091E0000C00C000928000042
:1034A000C006090072000000000000000201E800F0
:1034B0006110E10004003A009101BA003182BA00C3
:1034C00006C0BF00000006006210E10002003A00E2
:1034D00007C0BF000000060008C0BF000001EB00ED
:1034E0000000060006002000000020009001880077
:1034F000209D2100800078000001EB00561A020098
:10350000000000000BE0B700561A020000000000A7
:103510000AE0B7000500E0001900320005F0A6003F
:1035200007003700561A0200000000000DE0B70047
:10353000561A0200000000000CE0B70005F0A100E0
:1035400005E0A6000800370005E0A1008502E900BB
:10355000561A020000000000804378000580090030
:10356000075B7800E5FF3700561A020000000000F4
:10357000005B78008502E900FBFF3A00DFFF3700BF
:103580008A6AEF0024A2200064548800740020009E
:1035900074548800902AEF0054002000945488004E
:1035A000942AEF00840C02000000000064A32000B5
:1035B000645488008400200074548800902AEF002E
:1035C0005400200094548800942AEF00840C0200D8
:1035D00000000000A4A420006454880074002000AF
:1035E00074548800902AEF005400200094548800FE
:1035F000942AEF00840C020000000000E4A52000E3
:10360000645488008400200074548800902AEF00DD
:103610005400200094548800942AEF00840C020087
:1036200000000000102AEF00122AEF0080C0B30053
:1036300014E2B700249A20004454880001002000BE
:10364000010078000160EF00E406020000000000C5
:103650008100E800811F7800801F78004F0078000B
:10366000C60C020000000000CF007800900120008E
:103670000008E600F2FF3700219A20001104E00064
:10368000070032000F22AF00FEFF3700014090001C
:1036900010E2B7001162EF008100E800F7FF370089
:1036A000162AEF009829EF0014002000244C88000F
:1036B000D40C020000000000C01502000000000051
:1036C000CDA2A900C602A90014002100241588007B
:1036D000040E2800041588009E0009000000000068
:1036E00004402000140988002421EF002821EF0065
:1036F0002621EF008489BF004100DD0000010200A7
:1037000000000000800278001021EF0065088800AA
:103710007608880084002800840888008CE0A800CF
:103720001E21EF00C4032000D408880004022800F2
:10373000F40888008EA0A8002021EF00A40F20002C
:10374000E408880004022800040988008EC0A8004C
:1037500090E0A80081E0A9004220EF0081E0A800ED
:103760009669AE0035023700D1A2A800CDA2A9000B
:10377000044C80004406B100144C8800144C8000B6
:10378000F30F20000418E10002003D00F40F2000B8
:10379000144C8800144C80006020E10001003D00C2
:1037A0008229EF00B45080006220B800F0030200CC
:1037B0000000000006AAB700B45080006220B800E4
:1037C0006A0502000000000008AAB700B45080009B
:1037D0006100520014AAB700A45080006020E100EC
:1037E00001003D00142AEF00A45080006220B800C0
:1037F000F0030200000000000AAAB7008E09F800DA
:103800000C0AF9009009F8000E0AF900168ABF00A8
:10381000144C80000020E1001800340096E9AF004D
:1038200016003700B0C2B30087EAB70074508000BA
:103830006020E1000B00390004003E00068ABF0052
:10384000645080000020E10006003900B0C2B300DF
:1038500086EAB700162AEC001E2AEF00202AEF00A5
:103860000500370000C3B30086EAB7001E2AEC004B
:103870004220AF00202AEC00250037008289BF00DB
:10388000B45080000020E1001A003400D0C2B30020
:1038900087EAB700745080006020E1000F003E000E
:1038A000040039000C8ABF00445080000020E10071
:1038B0000A003900162AED001E2AEF00202AEF0028
:1038C000D0C2B30086EAB700B45080006020E100A7
:1038D00001003D00162AEF000500370000C3B300C9
:1038E00086EAB7001E2AEC004220AF00202AEC0036
:1038F000070037008289BF00160AE30004003A007F
:1039000000C3B30087EAB70000C3B30086EAB7007C
:10391000745080006020E10059003E00040039002E
:103920000C8ABF00545080000020E1005400360093
:1039300096E9A80010C2B30086EAB7009400200000
:1039400065508000765080000402E8000402E9001F
:10395000030032008502D0000683D200FBFF37004F
:10396000740020000C8ABF00715080000402E8003F
:103970000402E900030032000000D0008180D20080
:10398000FBFF3700850240000683480054002000FA
:103990000C8ABF00715080000402E8000402E900B4
:1039A000030032000000D0008180D200FBFF37000E
:1039B0008502400006834800140020000C8ABF00E6
:1039C000715080000402E8000402E90003003200A4
:1039D0000000D0008180D200FBFF370005004000CE
:1039E00018AAB700068048001AAAB700A400200051
:1039F0000402E8000402E900030032001A2AD5009C
:103A000018AAD700FBFF3700C450800066005200A0
:103A100018AAB700D450800060005A001AAAB70054
:103A2000D45080006020E10007003C000300350016
:103A3000C45080006020E10003003100182AEF002C
:103A40001A2AEF000B003700D45080006020E100FC
:103A50000800350004003C00C4508000F30F200033
:103A60000418E10003003100F40F2000C450880066
:103A70001A2AEF00180AF800160AF90001003700A8
:103A800096E9A900160AE20013003200D242A8000B
:103A900000000000D442AF000F003700040E800089
:103AA0004822DE0004C8B2000200320000C8B300A1
:103AB000C1E1B700160AF8008409F900B45080008B
:103AC0006220B800780202000000000026A9B700BA
:103AD00096C9A9005A00370096C9A8009400200092
:103AE00065508000765080000402E8000402E9007E
:103AF000030032008502D0000683D200FBFF3700AE
:103B0000740020000C8ABF00715080000402E8009D
:103B10000402E900030032000000D0008180D200DE
:103B2000FBFF370085024000068348005400200058
:103B30000C8ABF00715080000402E8000402E90012
:103B4000030032000000D0008180D200FBFF37006C
:103B50008502400006834800140020000C8ABF0044
:103B6000715080000402E8000402E9000300320002
:103B70000000D0008180D200FBFF3700050040002C
:103B800018AAB700068048001AAAB700A4002000AF
:103B90000402E8000402E900030032001A2AD500FA
:103BA00018AAD700FBFF3700C450800066005200FF
:103BB00018AAB700D450800060005A001AAAB700B3
:103BC000D45080006020E10007003C000300350075
:103BD000C45080006020E10003003100182AEF008B
:103BE0001A2AEF000B003700D45080006020E1005B
:103BF0000800350004003C00C4508000F30F200092
:103C00000418E10003003100F40F2000C4508800C4
:103C10001A2AEF00180AF800160AF900168ABF00DF
:103C20008000EB0000F0A7008080EB00C450800013
:103C300004005000D4508000848058008AEAB70005
:103C4000045180006020E1000700390004003E00BC
:103C5000F4508000330620000418E10002003E000A
:103C60001E2AEF00202AEF0027C1BF0086E9B70017
:103C70008769EF008829EF0088C9BF0089E9B7008C
:103C800087C9BF0088E9B70086C9BF0087E9B700C8
:103C90008669EF0026C1BF000160EF008629B700EA
:103CA00088160200000000009609A9000000AF007D
:103CB0009609A800344C8000534C80000300520049
:103CC0008EA9B700444C8000634C800003005A006A
:103CD00090A9B700844C80006020E10014003C00F3
:103CE00003003500744C80006020E10010003100BA
:103CF000844C8000F3FF2F000418E1000C00350015
:103D000004003C00744C8000E3FF2F000418E10025
:103D100007003600F4FF2F00734C80000480410040
:103D20008EA9B700844C800060004A0090A9B700BB
:103D30009609AF0015003700844C80006020E10038
:103D40001200350003003C00744C80006020E1004C
:103D50000E003600844C80006020E1000B0035002E
:103D600003003C00744C80006220E1000700360034
:103D7000744C8000F3FF2F00030052008EA9B7009F
:103D8000844C800060005A0090A9B7008E89BF0063
:103D9000814C800001F0A6000600370004002000DE
:103DA000734C80000300520004002000834C80000C
:103DB00083005A008EA9B700814C88009029D50055
:103DC0008EA9D7008609F8008A09F9008809F80049
:103DD0008C09F900249A200044548800D0C0B30014
:103DE000C60C020000000000A0C0B300C60C020018
:103DF000000000008089BF003400280096160200F1
:103E000000000000C0C2B300C60C020000000000A9
:103E10008289BF00340028009616020000000000CE
:103E2000C0C2B300C60C020000000000168ABF002A
:103E3000340028009616020000000000C0C2B30043
:103E4000C60C0200000000000C8ABF007150800008
:103E5000340028000A18020000000000C0C2B300AD
:103E6000C60C020000000000068ABF0034002800D3
:103E70009616020000000000C0C2B300C60C02008B
:103E800000000000088ABF003400280096160200D7
:103E900000000000C0C2B300C60C02000000000019
:103EA0000A8ABF00340028009616020000000000B5
:103EB00000C2B300C60C020000000000A0C3B300A3
:103EC000C60C02000000000000C2B300C60C0200D5
:103ED00000000000828ABF0024002800961602001D
:103EE00000000000C0C2B300C60C020000000000C9
:103EF000848ABF00240028009616020000000000FB
:103F000000C2B300C60C020000000000A0C3B30052
:103F1000C60C02000000000000C2B300C60C020084
:103F20000000000087CABF00C60C020000000000AD
:103F300000C2B300C60C020000000000C0C2B30003
:103F4000C60C02000000000000C2B300C60C020054
:103F50000000000086CABF00C60C0200000000007E
:103F600000C2B300C60C020000000000C0C2B300D3
:103F7000C60C02000000000000C2B300C60C020024
:103F8000000000001E8ABF000151800024002800AC
:103F90000A1802000000000000C2B300C60C0200B4
:103FA00000000000C0C2B300C60C02000000000008
:103FB00000C2B300C60C020000000000188ABF0057
:103FC000D1508000040020000A1802000000000008
:103FD00000C2B300C60C020000000000C0C2B30063
:103FE000C60C02000000000000C2B300C60C0200B4
:103FF000000000008ACABF000000FB00040020008F
:104000009616020000000000219A20001104E00032
:10401000070032000F22AF00FEFF37000140900082
:1040200010E2B7001162EF008100E800F7FF3700EF
:10403000D1A2A900CDA2A9009669A900C8FD3700A8
:044040000040FE003E
:0200000401F009
:100000000603FF003F00FF009387FF000F31FF0052
:0C0010000F33FF000400FF0003C0FF00DE
:00000001FF
;DSPIC30F4011
;CRC=E11C  CREATED="05-Aug-24 16:01"
