:08000000FA14040000000000E6
:04004400E8070000C9
:04004C0008070000A1
:0400C40042070000EF
:100200003220EF006315200083015000040031000C
:1002100023122000008041001000BA0000000600F8
:10022000201220000600A900838141008081410046
:100230003380BA009381BA00C819DD0000807100D4
:10024000000006000000230000000100000026005E
:1002500000000100000029000000010000002C0047
:100260000000010000002E0000000100000031002D
:100270000000010000003400000001000000370011
:100280000000010000003A000000010000003D00F5
:100290000000010000004000170001001A004200A9
:1002A0001B0001001D0045001E0001002000490048
:1002B0002100010022004B002300010025004E0018
:1002C0002600010028005100290001002B005300E6
:1002D0002C0001002E005A003100010032005C00A9
:1002E0003300010034005F00360001003700620077
:1002F000390001003A0064003C0001003D00680044
:100300003F00010040006D0042000100430070000A
:1003100044000100450073004700010048007600DA
:100320004A0001004D007C004F00010050007F009A
:100330005100010053008100540001005600870065
:100340005700010058008A00590001005B0090002E
:100350005D0001005F0092006100010062009500F5
:100360006400010065009B006700010068009E00BA
:10037000690001006A00A3006C0001007000A60083
:10038000710001007200AC00740001007500AF0044
:10039000760001007800B500790001007A00BA000B
:1003A0007E0001007F00BE00810001008200C300CA
:1003B000830001008400C800860001008900CC0091
:1003C0008A0001008C00D1008D0001008F00D70051
:1003D000900001009200D900950001009600E00015
:1003E000970001009800E5009A0001009D00EB00D5
:1003F0009E000100A000F100A1000100A300F60092
:10040000A6000100A700FC00A8000100AB0002004C
:10041000AC000200AE000700AF000200B1000D000A
:10042000B4000200B5001300B7000200B9001800C4
:10043000BA000200BC001E00BF000200C10027007D
:10044000C2000200C5002C00C6000200C800330034
:10045000CB000200CC003800CD000200D0004100EB
:10046000D2000200D4004600D6000200D7004E00A1
:10047000D9000200DC005500DE000200E1005D0052
:10048000E2000200E5006300E7000200E9006B0003
:10049000EA000200ED007400EF000200F1007A00B3
:1004A000F3000200F6008200F8000200F9008B0061
:1004B000FB000200FE0093000101020004019C0009
:1004C000070102000901A5000A0102000C01AD00AC
:1004D0000F0102001201B600150102001801BE0052
:1004E0001A0102001B01CA001D01020020010000C8
:1004F0003220EF006315200083015000040031001A
:10050000A3292000008041001000BA00000006006E
:10051000A02920000600A9008381410080814100BC
:100520003380BA009381BA00C819DD0000807100E1
:100530000000060000004000000001000000430031
:1005400000000100000047000000010000004A0018
:100550000000010000004C000000010000005000FD
:1005600000000100000053000000010000005600E0
:1005700000000100000059000000010000005D00C3
:100580000000010000006000190001001D00620071
:100590001D000100200066002000010023006A0009
:1005A0002300010025006C002500010029006F00D8
:1005B000290001002C0073002C0001002F007500A1
:1005C0002F00010033007D003600010036007F005F
:1005D00038000100380082003B0001003B0085002C
:1005E0003F0001003F0088004200010042008C00F3
:1005F00045000100450092004900010049009500B6
:100600004B0001004B0098004E0001004E009B0083
:10061000510001005500A200550001005800A5003E
:10062000580001005B00A8005B0001005F00AE0005
:100630005F0001006100B100610001006400B800CA
:10064000640001006900BA006B0001006B00BE008D
:100650006E0001006E00C400710001007100C7004F
:10066000740001007400CD00770001007B00D00011
:100670007B0001007D00D7007D0001008100DA00D1
:10068000810001008400E100840001008600E60092
:100690008B0001008B00EB008E0001008E00F0004B
:1006A000900001009000F600930001009700FA000E
:1006B000970001009A0000009A0002009D000600C9
:1006C0009D000200A1000800A4000200A400100088
:1006D000A6000200A6001600A9000200AD001C0042
:1006E000AD000200B0002300B0000200B3002800FB
:1006F000B7000200B7002F00B9000200BC003500AF
:10070000BC000200BF003B00BF000200C30042006B
:10071000C6000200C6004800C9000200CC004E001E
:10072000CC000200CF005400D2000200D2005E00D4
:10073000D5000200D9006400D9000200DC006B0083
:10074000DF000200DF007100E2000200E5007B0034
:10075000E5000200E9008000EB000200EB008900E8
:10076000EF000200F2009100F4000200F4009A0091
:10077000F9000200FC00A000FE000200FE00A9003B
:10078000010102000501B300070102000701B900E1
:100790000B0102000F01C200110102001101CC0087
:1007A000140102001701D5001B0102001E01DF0029
:1007B000210102002101E900250102002701F200C8
:1007C0002A0102002D01FB00310102003401040066
:1007D00034010300370111003A0103003D0100001C
:1007E0003220EF0063152000830150000400310027
:1007F00023412000008041001000BA0000000600E4
:10080000204120000600A900838141008081410031
:100810003380BA009381BA00C819DD0000807100EE
:10082000000006002CFE50002CFE14002CFE2100BF
:100830002CFE14002CFEF2002CFE13002CFEC30034
:100840002CFE13002CFE95002CFE13002CFE6800DD
:100850002CFE13002CFE3B002CFE13002CFE0E0081
:100860002CFE13002CFEE1002CFE12002CFEB50025
:100870002CFE12002CFE890022EF1200C3E15D0065
:10088000CDD5120009CB31004CC1120071B8060061
:100890005CB01200F3A8DC0021A21100D69BB100CD
:1008A00002961100989087008E8B1100DA865D0009
:1008B00073821100537E3300727A1100CC760A00E5
:1008C0005B7311001B70E100086D10001D6AB80019
:1008D0005A671000B9648F0039621000D75F670053
:1008E000925D1000675B3F00545910005857170085
:1008F00072551000A053EF00E1510F003350C800B3
:10090000964E0F00094DA0008B4B0F001B4A79003B
:10091000B8480F006147530017460F00D8442C0019
:10092000A3430F007942060058410F004040E00009
:10093000313F0E002B3EBA002C3D0E00353C94009A
:10094000453B0E005C3A6F007A390E009E384A0033
:10095000C8370E00F83625002D360E006835000029
:10096000A8340E00EC33DB0036330D008432B700C0
:10097000D6310D002D31930087300D00E62F6F002A
:10098000482F0D00AE2E4B00172E0D00842D280091
:10099000F42C0D00672C0400DD2B0D00562BE1001C
:1009A000D22A0C00502ABE00D1290C0055299B00E8
:1009B000DB280C0064287900EF270C007C27560008
:1009C0000B270C009C26340030260C00C525120095
:1009D0005C250C00F524F00090240B002D24CF00A2
:1009E000CB230B006B23AD000D230B00B0228C003A
:1009F00055220B00FB216B00A3210B004B214A0069
:100A0000F6200B00A1202A004E200B00FC1F09003D
:100A1000AC1F0B005C1FE9000E1F0A00C11EC900BD
:100A2000741E0A00291EA900DF1D0A00961D8900F8
:100A30004E1D0A00071D6A00C11C0A007B1C4A00EB
:100A4000371C0A00F31B2B00B11B0A006F1B0C00A4
:100A50002E1B0A00ED1AEE00AE1A09006F1ACF0025
:100A6000311A0900F319B100B61909007A19930077
:100A70003F19090004197500CA1809009118570098
:100A8000581809001F183900E8170900B0171C0092
:100A90007A1709004317FF000E170800D916E20065
:100AA000A41608007016C5003C1608000916A90017
:100AB000D6150800A4158C007215080041157000A9
:100AC00010150800DF145400AF1408007F14000054
:100AD0003220EF0063152000830150000400310034
:100AE000A3582000008041001000BA00000006005A
:100AF000A05820000600A9008381410080814100A8
:100B00003380BA009381BA00C819DD0000807100FB
:100B1000000006000000B100000000000000B2006C
:100B2000000000000000B400000000000000B6005B
:100B3000000000000000B800000000000000BA0043
:100B4000000000000000BC00000000000000BF002A
:100B5000000000000000C100000000000000C20012
:100B6000000000005500C300550000005500C400FF
:100B7000560000005600C600560000005600C70090
:100B8000560000005600C800570000005700C9007A
:100B9000570000005700CB00570000005800CC0061
:100BA000580000005800CE00580000005800CF0048
:100BB000590000005900D100590000005900D2002E
:100BC0005A0000005A00D4005A0000005A00D50014
:100BD0005B0000005B00D7005B0000005B00D800FA
:100BE0005C0000005C00DA005C0000005C00DC00DF
:100BF0005D0000005D00DE005D0000005E00DF00C3
:100C00005E0000005E00E1005F0000005F00E300A6
:100C10005F0000005F00E500600000006000E7008A
:100C2000600000006100E900610000006100EB006D
:100C3000620000006200ED00620000006300F0004E
:100C4000630000006400F200640000006500F4002E
:100C5000650000006500F700660000006600F9000E
:100C6000660000006700FC00670000006800FE00EE
:100C70006800000069000100690001006A000400CA
:100C80006A0001006A0007006B0001006B000A00A7
:100C90006C0001006C000D006D0001006E00100082
:100CA0006E0001006F0013006F000100700017005C
:100CB0007000010071001A007100010072001E0036
:100CC000720001007300210074000100740025000F
:100CD00075000100750029007600010077002D00E5
:100CE0007800010078003200790001007A003600B7
:100CF0007A0001007B003B007C0001007D00400089
:100D00007D0001007E0045007F0001007F004A0059
:100D10008000010081004F00820001008200550028
:100D20008300010084005B008500010086006100F3
:100D30008700010088006800890001008A006F00B8
:100D40008B0001008C0076008D0001008E007D007C
:100D50008F000100900085009100010092008D003D
:100D600093000100940096009500010096009F00FA
:100D7000970001009800A900990001009A00B400B2
:100D80009B0001009C00B4009D0001009E00B40087
:100D90009F000100A100B400A2000100A300B40064
:100DA000A4000100A600B400A7000100A900B4003F
:100DB000AA000100AC00B400AD000100AF000000CB
:100DC0003220EF00C36E2000008041001040BA00C6
:100DD0000160EF00000006000A4D00006F74000083
:100DE0006F720000204300006F6E000074720000FC
:100DF0006F6C0000205500006E6900007420000038
:100E0000763000002E3100000D0A000000000000C6
:100E10004200F8003600F8003200F800801F780029
:100E2000200020000C000900B01F78000080200086
:100E300024438000840040001282BF008520A90066
:100E4000805878006428EC0034062000234380009A
:100E500003005200010031006428EF000E02AF00D1
:100E6000F5FF3700A00120000C0009004F107800AA
:100E70004F0078003200F9003600F9004200F90016
:100E8000004006004200F8003600F8003200F8008A
:100E9000801F7800200020000C000900B01F78009F
:100EA0009969EC00C44C80004822DE006824E1000F
:100EB000080035009E29EC004220AF00A029EC007C
:100EC000A229EC004220AF00A429EC009829A80038
:100ED0009969EF00244D80006020E100070039008F
:100EE00003003E00144D80006A20E1000300390039
:100EF0009869A800A229EF00A429EF00044D800002
:100F00006020E1000800390004003E00F44C80003D
:100F1000430620000418E10003003E009849A800A1
:100F20009E29EF00A029EF0088E0A900A001200081
:100F30000C0009004F1078004F0078003200F900D3
:100F40003600F9004200F90000400600851F7800D5
:100F5000C500200003000900B51F78000202B80098
:100F600003F0A600020037000383B9000100370038
:100F70000303B8004200A9008502430060844B00CF
:100F800001F0A60002003700028BB9000100370013
:100F9000020BB80085024B0008844B000980B000AA
:100FA000038BB90008044B0087834C00870178004D
:100FB00008017800850078000400780025012000F1
:100FC00003000900CF127800CF027800000006006D
:100FD0004200F8003600F8003200F800801F780068
:100FE000200020000C000900B01F78002449800078
:100FF000E1024200E4012000110009008482D800CF
:10100000214988002409F8007209F9002449800068
:10101000EA024200E4012000110009008482D800A5
:10102000A14B880024498000F4024200E401200022
:10103000110009008482D800B14B8800EA2AEF0031
:10104000545780006320E100CB003D0054578000DE
:101050006420B8008492200084024000545780002D
:101060006220B8002497200004004000100378009C
:101070004130DD004493200004004000000278006D
:10108000140078008000EB0000F0A7008080EB00E7
:1010900004002000B41A7800B41A78005457800075
:1010A0006420B800849220008402400054578000DD
:1010B0006420B8008492200004004000C400200096
:1010C000301A7800301A78002689BF008000EB00C3
:1010D00000F0A7008080EB0000017800810178001B
:1010E0000600780087007800A607020000000000D4
:1010F00004002000B41A7800B41A78005457800015
:101100006420B8008492200004004000A400200065
:10111000301A7800301A78006030E100160035008F
:1011200002003C006028E1001300360054578000A4
:101130006420B8008492200084024000545780004C
:101140006420B8008492200004004000C400200005
:10115000301A7800301A78000DC0BF00804A78003D
:10116000974298000FC0BF00A042980000C0B30093
:10117000B04298003E003700545780006420B80009
:101180008492200004004000A4002000301A78005F
:10119000301A78006030E10035003C000200350074
:1011A0006028E10032003100545780006420B8000C
:1011B0008492200084024000545780006420B800CC
:1011C0008492200004004000000278000300200008
:1011D000B4197800B419780004002000800A520085
:1011E00004002000812A5A00545780006420B8006F
:1011F0008492200084024000545780006420B8008C
:101200008492200004004000C4002000301A7800BE
:10121000301A78000DC0BF00804A780097429800CD
:101220000FC0BF00A042980000C0B300B0429800B9
:10123000545780006420B80084922000840240004B
:10124000545780006420B8008492200004004000BD
:101250000002780003002000B4197800B419780067
:1012600004002000800A520004002000812A5A0055
:10127000545780006420B80084922000840240000B
:10128000545780006420B80084922000040040007D
:10129000C4002000301A7800301A7800843E200004
:1012A000840A4300E0AA4B00545780006420B80031
:1012B0008492200004004000A4002000301A78002E
:1012C000301A78006030E1001000350003003C0067
:1012D000E47920000520E1000C0031005457800023
:1012E0006420B8008492200084024000E0C9B3006A
:1012F000804A780070C0B3009042980000C0B300EC
:10130000A042980000C0B300B0429800545780003B
:101310006420B8008492200004004000A400200053
:10132000301A7800301A78006030E10010003C007C
:1013300003003500240320000520E1000C003600E6
:10134000545780006420B80084922000840240003A
:1013500020C3B300804A780000C0B30090429800D8
:1013600000C0B300A042980000C0B300B042980093
:10137000EA2AEC0032FF370028C9BF00D6E1B700E7
:1013800029C9BF00D7E1B7002CC9BF00D8E1B70019
:101390002DC9BF00D9E1B70030C9BF00DAE1B700FD
:1013A00031C9BF00DBE1B7008489BF004100DD0027
:1013B000F003020000000000800278001021EF001E
:1013C0006508880076088800840028008408880062
:1013D00084E0A900A00120000C0009004F10780053
:1013E0004F0078003200F9003600F9004200F900A1
:1013F00000400600811F780011518000805878005D
:101400008048EB00CF007800222AEC0000000600A4
:1014100000C8B300C1E1B70020C0B300C0E1B7000D
:1014200030C0B300C5E1B70070CEB300C4E1B7006F
:10143000C761EF0010C0B300C6E1B700C961EF009B
:1014400070C7B300C8E1B700CB61EF0020C0B300A4
:10145000CAE1B700CD61EF0000C1B300CCE1B70035
:10146000CF61EF00CE61EF00D161EF00D061EF00FE
:10147000F0C3B300D5E1B700F0C0B300D4E1B700CA
:101480001FC9BF00D7E1B7001EC9BF00D6E1B70032
:1014900021C9BF00D9E1B70020C9BF00D8E1B7001A
:1014A00023C9BF00DBE1B70022C9BF00DAE1B70002
:1014B000C160EF0000C7B300C0E0B7000000060045
:1014C000851F7800C500200003000900B51F7800C3
:1014D000000278008102780002037800830378001C
:1014E0000000EB008000EB000001EB008001EB004E
:1014F0000800A10007F0A600080037000800A000BF
:101500008783EA000683EA008582EA000402EA0093
:10151000E0824A0060034B00E0834B0085047200C8
:1015200002003A008704730015003200394720009A
:101530000340A7000B0037004200A9000482D2003C
:101540008582D2000683D2008783D2000080D20039
:101550008180D2000281D2008381D2008904E90017
:10156000F3FF3A00C44CDD004200A90009F0A100DD
:101570000340A10083816C000800A70003F0A000D5
:101580002501200003000900CF127800CF02780067
:1015900000000600881F78002801200004000900D0
:1015A000B81F78008005EB006066B800030478007F
:1015B00087047800FA7F20004200A9004220A90099
:1015C00044C4DE00080465000800E0007100320039
:1015D0004200A9004220A900C4CCDE0089046500B5
:1015E0000900E0006B0032000884440009B0A70045
:1015F00004003700F83FB100660032006500390092
:10160000030037001A402000854245006100310088
:10161000878669004200A9004220A900F300B200B9
:101620000340A000F700B2000740A000881F780028
:101630000124B800002DB8000A0544008B854C0039
:101640000C80B0000224B8008B0544000C864C00CE
:10165000012CB8000005EB008B0544000C864C0003
:101660000A80B0000034B8008B0544000C864C00A2
:101670000A80B0008005EB000324B8000C0644008B
:101680000A854C000B80B000022CB8000C06440008
:101690000A854C000B80B0000134B8000C064400F1
:1016A0000A854C000B80B000003CB8000C064400DA
:1016B0000A854C000B80B0000C0078000006EB009F
:1016C000032CB8000A0544008B854C000C80B00048
:1016D0000234B8000A0544008B854C000C80B00031
:1016E0000334B8008B0544000C864C00013CB80064
:1016F0000A0544008B854C000C80B000023CB80009
:101700008B0544000C864C00033CB8000C064400DA
:101710008A0078000B0178008C01780054002000CA
:101720004200A9008381D3000281D3008180D300CD
:101730000080D3000402E900F9FF3A004F0478006A
:101740000804E800010370000100320002003700C5
:1017500003037100080032000340A70006003700B1
:101760004200A9000080D2008180D2000281D20014
:101770008381D2000804E9004444DD0003F0A100A5
:101780000DF0A70003F0A0000340A10083016C004E
:10179000030037006000B8006001B80000003700A7
:1017A000A8012000040009004F1478004F047800BD
:1017B00000000600881F78002801200004000900AE
:1017C000B81F7800878669000304780087047800D2
:1017D000FA7F20004200A9004220A90044C4DE0094
:1017E000080465000800E0006C0032004200A90017
:1017F0004220A900C4CCDE00890465000900E00095
:10180000660032000005EB000906540003003900B1
:10181000FC3FB00061003100040037001B40200095
:101820000B0656005D0039005C0032000004EB003E
:101830008004EB000005EB008005EB00F301B20033
:101840000340A000F701B2000740A0008C1F780001
:101850006C032000040050008580580006015900E8
:1018600087815900020033000600310006003A006B
:101870000400400085804800060149008781490036
:10188000010037000800A0000C06E9000B00320040
:101890004200A9000080D2008180D2000281D200E3
:1018A0008381D2004200A9000884D2008984D2003A
:1018B0000A85D2008B85D200E6FF37004F067800FC
:1018C0000B50A70001003700060037004200A900B6
:1018D0008B85D3000A85D3008984D3000884D30084
:1018E000030037000C06E9004200A9002B0032007B
:1018F0004200AF00090037000080D2008180D20092
:101900000281D2008381D2000402500085825800F7
:101910000603590087835900150039000804E800C0
:1019200013003A008904E80011003A000A05E800B3
:101930000F003A008B05E8000D003A000C06E800A5
:10194000160032000A0037000C06E90013003200CE
:101950000B40A700060037004200A9000884D2000F
:101960008984D2000A85D2008B85D200F8FF370027
:101970004466DD004200A9000CF0A1000DF0A700B4
:101980000CF0A0000B40A1008B016E000A01780052
:10199000890078000800780005003700000020006A
:1019A000010020000200200003002000000037009A
:1019B000A8012000040009004F1478004F047800AB
:1019C00000000600881F780028012000040009009C
:1019D000B81F7800080028004300AF0087036C00A0
:1019E0000000E00007003A000100E00005003A00B6
:1019F0000200E00003003A00FAFF27000A856100B8
:101A00004220AE00030578008A856B00030478004D
:101A10008704780007067800FD7F20004220A90097
:101A20004200A90044C4DE00088466000800E0000B
:101A3000BC0032004220A9004200A900C4CCDE0054
:101A4000898466000900E000BE0032008006EB00D9
:101A50004220A9004200A9000848E100BA00320073
:101A6000C10033000D00A1000D10A0000884540037
:101A7000F300B2000340A000F700B2000740A0004E
:101A80004803B10016003B004803B0004220A90003
:101A90004200A9008381D3000281D3008180D3005A
:101AA0000080D3000804E900F8FF3A001400370072
:101AB0004803B1000F003B004803B0004220A900DA
:101AC0004200A9008783D3000683D3008582D30018
:101AD0000482D3000804E900F8FF3A001B00370035
:101AE00004007800850078000601780087017800FE
:101AF0000C866D000CF0A7000BF0A20079003700F7
:101B00000BF0A6001F0037000D40A7008C057800E1
:101B10000080EA008180EA000281EA0083C1EA00D5
:101B2000F341B2000000E80005003A008100E8003F
:101B300003003A000201E80001003A008341E80096
:101B40000D40A700320037000E0037000BF0A60052
:101B50000C0037000482EA008582EA000683EA006E
:101B600087C3EA00F741B2000402E80005003A002A
:101B70008502E80003003A000603E80001003A008D
:101B80008743E8004220A9004200A9000400400069
:101B9000858048000601490087C149000350A7001D
:101BA0000D30A0000D00A700090037000D10A700A0
:101BB000010037000B0037000BF0A70014003700BE
:101BC0000D30A700290037000D60A000210037006C
:101BD0000BF0A7000E0037000D30A70023003700E0
:101BE0001C0037000BF0A700040037008A057800BE
:101BF0000D30A7001D0037003A0037000D40A0004F
:101C000003C1B2000340A700BFFF37008A05780078
:101C1000F301B2000284710002003A0000847000F7
:101C20000C0032000340A7000A0037004220A90040
:101C30004200A9000080D2008180D2000281D2003F
:101C40008381D2008904E9004220AF0032003700CE
:101C5000F4FF37000D00A7008A0578000D10A700DB
:101C60008C0578000D50A6001E0037004200A90028
:101C700083C1D3000281D3008180D3000080D300D0
:101C80004200AF000D50A0008904E8004220AF00E0
:101C9000210037000D50A6000E0037000000E800BC
:101CA0000C003A008100E8000A003A000201E80056
:101CB00008003A008301E80006003A0083C1D3001F
:101CC0000281D3008180D3000080D3008904E80022
:101CD000110032000D00A7008A0578000D10A70042
:101CE0008C0578000102700002003A0003027100C6
:101CF000260032000340A1004220A9004200A900B2
:101D0000C44CDD0083816C0003F0A0000BF0A60042
:101D100003F0A1001D0037006000B8006011B8009A
:101D20001A003700080028000AF0A70087036C009B
:101D300085007800040078000601780087017800AB
:101D40001200370011003700F700B2000740A00072
:101D5000F300B2000340A0000BF0A7000740A10071
:101D60000D20A00079FF3700F300B2000340A0006F
:101D7000F700B2000740A0000904540089044400A1
:101D80000D10A1000D00A00049FF3700A8012000A0
:101D9000040009004F1478004F047800000006008A
:101DA000881F7800891F78008A1F7800878469005F
:101DB00009F0A600060037004200A9004220A90051
:101DC00003F0A600340037004200A80032003700BC
:101DD000FA7F2000030478008704780044C4DE0002
:101DE00008046500C4CCDE00890465000885540041
:101DF0000500320003F0A600270037001000200085
:101E000042E0B6002400370003047800870478001D
:101E1000F301B200F701B2000340A1000740A100A6
:101E200003C553000500320008F0A6001A00370071
:101E30001000200042E0B6001700370002055300F2
:101E40000500320008F0A600130037001000200043
:101E500042E0B60010003700018552000500320054
:101E600008F0A6000C0037001000200042E0B60089
:101E700009003700000552000500320008F0A600F6
:101E8000050037001000200042E0B60002003700D5
:101E90004200A900000037004F057800CF04780009
:101EA0004F04780000000600851F7800C500200060
:101EB00005000900B51F780003047800820378004C
:101EC0000103780080027800830478003B472000FB
:101ED000C499DE00FA7F20008301650083855500E8
:101EE000F801B2000840A0000000EB008000EB0009
:101EF0000001EB008001EB004200A9000884D30040
:101F00008783D3000683D3008582D3008381D300E7
:101F10000281D3008180D3000080D3008B05E900CB
:101F2000F5FF3A0009F0A600090037000080EA003A
:101F30008180EA000281EA008381EA000000E80073
:101F40000180B0000280B0000380B00000003700C4
:101F50006501200005000900CF127800CF0278004B
:101F600000000600851F7800861F7800871F780014
:101F7000881F7800522AEF00542AEF00562AEF00FB
:101F800004FF2300C4528800F4F12F00145388008A
:101F900064AAEF0066AAEF00F4FD2B00445388000A
:101FA00054C32100545388005455250064538800BD
:101FB000545525007453880054FA23008453880034
:101FC000C4F1230094538800746A2100A45388004C
:101FD000C4162C00B453880064F52B00C453880049
:101FE000643E2F00D453880054D62000E453880068
:101FF000041A2000F4538800A4EF2300045488003E
:10200000E4A320001454880014932300245488006F
:10201000C4E427003454880024E92B004454880089
:10202000B4DF2D005454880074B722006454880033
:1020300014DB2E007454880014E2230084548800BA
:10204000C4FC26009454880074FF2800A45488001F
:1020500004612C00B454880084DA2B00C454880036
:10206000C4242100D4548800C4E12800E45488002A
:1020700094AF2300F454880034CF23000455880023
:102080006467270014558800F45023002455880005
:10209000E40D2C003455880004CF230044558800FB
:1020A000388ABF00D1518000E2518000F351800096
:1020B000040020000500200006002000070020008A
:1020C000D00E0200000000000500390080A32000AF
:1020D00081A3200007000900B01878003FEAAA0099
:1020E000388ABF00D1518000E2518000F351800056
:1020F00044882C0095DC260006F3250047FE2300CB
:10210000CA0A020000000000540F02000000000094
:1021100040EAB700388ABF00D1518000E251800008
:10212000F351800044882C0095DC260006F325003E
:1021300047FE2300CA0A0200000000008002780067
:102140000103780082037800030478000100200076
:10215000020020000300200040CABF000160EF0021
:10216000600A0200000000004300A800851F7800FC
:10217000861F7800871F780000027800050078002D
:102180008102780086007800020378000701780059
:102190008303780088017800E20C02000000000050
:1021A000CF0378004F037800CF0278005AAAB70017
:1021B000E1528800F25288000353880040CABF00F1
:1021C0006340600040EAB700404AE200030032008A
:1021D000045280006224E1000F003A005A8ABF00D6
:1021E000E1528000F25280000353800084D122002B
:1021F00045442500B61F220097FF2300CA0A0200AB
:10220000000000004AAAB70061528800725288009C
:10221000835288004A003700045280006124E100A4
:1022200024003A004300A800000020000100200024
:102230000200200003FF2300D4528000E5528000FA
:10224000F652800007538000E20C020000000000FC
:10225000800278000103780082037800030478008C
:10226000851F7800861F7800871F7800050078009A
:1022700086007800070178008801780084D1220068
:1022800045442500B61F220097FF2300CA0A02001A
:1022900000000000CF0378004F037800CF027800E1
:1022A0004AAAB7006152880072528800835288009F
:1022B000230037004300A8005A8ABF00E152800083
:1022C000F25280000353800004002000050020002B
:1022D0000600200007FF2300E20C020000000000BF
:1022E00080027800010378008203780003047800FC
:1022F000851F7800861F7800871F7800050078000A
:1023000086007800070178008801780084D12200D7
:1023100045442500B61F220097FF2300CA0A020089
:1023200000000000CF0378004F037800CF02780050
:102330004AAAB7006152880072528800835288000E
:10234000422AEF00442AEF00462AEF0004FF230050
:10235000445288004A8ABF00615280007252800055
:102360008352800054528000655280007652800073
:1023700087528000CA0A0200000000004AAAB70083
:10238000615288007252880083528800416AEF00CF
:10239000045280004822DE006824E10031003E0043
:1023A000528ABF00A1528000B2528000C352800006
:1023B000545280006552800076528000875280001F
:1023C000CA0A02000000000052AAB700A152880009
:1023D000B2528800C352880041CABF000160EF00BA
:1023E0004300DD0024A620000400400080027800A5
:1023F000851F780015007800D50078005501780019
:10240000D501780094528000A5528000B652800019
:10241000C7528000CA0A020000000000CF02780004
:102420004300A900000278008102780002037800CE
:1024300083037800428ABF0021528000325280001C
:1024400043528000E20C02000000000042AAB700E4
:10245000215288003252880043528800416AEC00C1
:10246000CBFF3700045280006224E10003003200F9
:10247000045280006124E10005003A0020A42000FD
:1024800021A4200007000900B018780049EAAA003A
:10249000428ABF00215280003252800043528000A5
:1024A0004F047800CF0378004F037800CF02780004
:1024B00000000600851F7800861F7800871F7800BF
:1024C000881F78004300A800288ABF00515180006F
:1024D000625180007351800084D122004544250060
:1024E000B61F220097FF2300E20C0200000000004C
:1024F00080027800010378008203780003047800EA
:10250000C5518800D6518800E7518800F8518800ED
:10251000B20F0200000000004F047800CF037800E3
:102520004F037800CF02780000000600851F780076
:10253000C500200005000900B51F780003047800DD
:102540008203780001037800800278008304780019
:102550003B472000C499DE00FA7F2000830165001C
:1025600083855500F801B2000840A0000000EB0090
:102570008000EB000001EB008001EB004200A900AD
:102580000884D3008783D3000683D3008582D300D9
:102590008381D3000281D3008180D3000080D300E7
:1025A0008B05E900F5FF3A0009F0A60009003700A5
:1025B0000080EA008180EA000281EA008381EA006B
:1025C0000000E8000180B0000280B0000380B0008D
:1025D000000037006501200005000900CF127800D7
:1025E000CF02780000000600851F7800861F780063
:1025F000871F7800881F78007029EF00844B8000C7
:102600007E20E100570031007089BF0001002000EA
:102610000200200003002000600A02000000000009
:102620000400200005002000060020000700240010
:10263000CA0A02000000000080027800010378004E
:102640008203780003047800851F7800861F7800D5
:10265000871F780005007800860078000701780061
:102660008801780084D1220045442500B61F22004D
:1026700097002400CA0A020000000000CF0378007F
:102680004F037800CF0278008002780001037800C1
:102690008203780003047800851F7800861F780085
:1026A000871F780005007800860078000701780011
:1026B00088017800040020000500200006002000AA
:1026C000E7032400DA0B020000000000CF037800CB
:1026D0004F037800CF02780078A9B700D14B88006B
:1026E000E24B8800F34B88007089BF004100DD0099
:1026F00044932000840240007809F800280AF90079
:102700007A09F8002A0AF9007C09F8002C0AF90075
:102710007E09F8002E0AF9005A120200000000009B
:10272000851F78000002780081027800020378009B
:1027300083037800000020000100200002002E002A
:10274000F3062400CA0A020000000000CF0278004D
:102750009612020000000000800A78007029EC0048
:10276000A6FF37004F047800CF0378004F037800AE
:10277000CF02780000000600851F7800C500200009
:1027800003000900B51F780000F0A6000F00370015
:102790000000EA000480A00004F0A6000B0037004F
:1027A000801F7800D0022000841F7800801F7800EE
:1027B0004F007800FA090200000000004F02780084
:1027C0004F0078000480A1000860ED008002EB005B
:1027D000800378008404780004F0A1000404E00081
:1027E00006003A0009F0A7000200370005002000AB
:1027F0001700370005002000150037000980A600EB
:10280000E64252000980A700E74252000F0039005B
:102810000003200009F0A60000022000801F7800BD
:10282000841F7800801F78004F007800FA090200AA
:10283000000000004F0278004F0078008502E90098
:10284000F6FF3B00550020000100370084027800AD
:10285000640020000580A7000402E80005E0A00055
:1028600009F0A70005F0A00008712200110009007E
:102870008883D8008E1402000000000081037800D5
:10288000883E2000110009008883D8008E140200C1
:1028900000000000810378004806200011000900B4
:1028A0008883D8008E1402000000000081037800A5
:1028B000A8002000110009008883D8008E140200AF
:1028C000000000000980A6000A003700D0022000A6
:1028D000811F7800841F7800801F78004F007800E7
:1028E000FA090200000000004F027800CF007800D3
:1028F0000980A1000003200000C0400050018800B2
:10290000841F7800801F78004F007800FA090200C9
:10291000000000004F0278002A0037000603200064
:102920000000E0000E003A0005E0A6001B003700A2
:102930000402E9000524E100020032004200AF0079
:10294000000006000000E00005003A0005E0A600D7
:102950001200370005F0A600060220000F00370025
:1029600005E0A1000980A6000C00370000057800F2
:10297000D0022000811F7800841F7800801F78001B
:102980004F007800FA090200000000004F027800B2
:10299000CF0078000980A1000A00780000404300C1
:1029A000811F7800841F7800801F78004F00780016
:1029B000FA090200000000004F027800CF00780002
:1029C000000006002501200003000900CF12780056
:1029D000CF027800000006002361AE00030037003C
:1029E00010C0B30000E0B700010037000060EF0046
:1029F000000006000FF82000F0FF200020A0B70024
:102A00000000000040442400B0048800404424003A
:102A10003005880081E0A8000400280064108800C8
:102A2000044020007410880004012000A4108800D5
:102A30006428EF006628EF006428EF006628EF00A6
:102A40008D20A8002429EF002629EF008029EF001F
:102A50008229EF0014002000244C88008629EF0012
:102A60008829EF008A29EF008C29EF008E29EF00DA
:102A70009029EF009229EF009429EF009629EF00AA
:102A80009809A9009A29EF009C29EF009829A9002C
:102A90009849A9009869A9009969EF009E29EF005B
:102AA000A029EF00A229EF00A429EF009889A9002E
:102AB00098A9A900146AEF00162AEF00182AEF005F
:102AC0001A2AEF001C2AEF001E2AEF00202AEF002E
:102AD000222AEF00A8A2EF0098C9A90051003700F0
:102AE000C0060800680000004BF03F005C0A580078
:102AF000F63B8F0000C03C008B28AC003CBEF600CB
:102B00003FD2D50044168C0015D7BF0069005A008B
:102B10002E1B8700993F9A005FAD4B0091E40100A6
:102B2000C05D11002F92E40081FB3F0038DA910074
:102B3000809DC500E0BF6F0012C0B400C309AB00A8
:102B40003F6BC100034EC100B545BF00F740050013
:102B5000FF005C00EF3FF300A3E2F700D7FF0100A6
:102B600040C0B400FF053C0058FC3F003BD3C00010
:102B7000B5BA8C00E23F3900D3C73D004179B200BD
:102B80003F870D003C50D000AF623F00304B8D00BE
:102B9000A282AA0004400900A0404A000576030072
:102BA00040EC9E003788A60044F03F008F128D0055
:102BB000299A5B00C73F0E00E0807C00A1D8860008
:102BC0003F294B00FB95C200371A3F0000008000F0
:102BD00006091E00E803E80003E80300C00C090032
:102BE0002800C00006097200000000000201E80091
:102BF0006110E10004003A009101BA003182BA008C
:102C000006C0BF00000006006210E10002003A00AA
:102C100007C0BF000000060008C0BF000001EB00B5
:102C2000000006000600200000002000900188003F
:102C300000572100800078000001EB00F61502002B
:102C4000000000000BE0B700F615020000000000D5
:102C50000AE0B7000500E0001900320005F0A60008
:102C600007003700F6150200000000000DE0B70075
:102C7000F6150200000000000CE0B70005F0A1000E
:102C800005E0A6000800370005E0A1008502E90084
:102C9000F61502000000000080437800058009005E
:102CA000075B7800E5FF3700F61502000000000022
:102CB000005B78008502E900FBFF3A00DFFF370088
:102CC000649A20001451880001002000010078005F
:102CD0000160EF00E0060200000000008100E80053
:102CE000811F7800801F78004F007800FA090200E9
:102CF00000000000CF007800900120000008E600EE
:102D0000F2FF3700619A20001104E0000700320052
:102D10000F22AF00FEFF37000140900010E2B70025
:102D20001162EF008100E800F7FF370080C0B300B8
:102D300014E2B70044012000845088009A29EF0073
:102D400014002000244C8800080A02000000000043
:102D5000F412020000000000CDA2A900F4F121004D
:102D600024158800040E280004158800D4FF2F00C5
:102D700044158800A222EF001400200034158800BA
:102D80009E00090000000000044020001409880093
:102D90002421EF002821EF002621EF008489BF00C5
:102DA0004100DD00F0030200000000008002780016
:102DB0001021EF006508880076088800840028004C
:102DC000840888008CE0A80090E0A80081E0A900B9
:102DD0004220EF0081E0A8009829AE00940037005F
:102DE000A002A900A022A800A002AE00FEFF3700AA
:102DF0008002F8008009F900D1A2A800CDA2A900A4
:102E0000044C8000F33F20000418E1000200310070
:102E1000F43F2000044C8800044C8000840CB10076
:102E2000044C88008009F8008209F900144C8000E5
:102E3000F30F20000418E10002003D00F40F200011
:102E4000144C8800144C80006020E10001003D001B
:102E50008229EF00108ABF004100DD00000102005E
:102E6000000000000AAAB700108ABF004100DD0080
:102E700078020200000000000CAAB7008450800015
:102E8000E10252004128DD000001020000000000C4
:102E900012AAB70098C9AF00020037009409F800E1
:102EA0000E0AF900108ABF00144C80000020E100D7
:102EB000060034000A8ABF00745080000020E10040
:102EC00002003900102AEC0021003700108ABF00F0
:102ED000144C80000020E1000B0034000E8ABF007B
:102EE000945080000020E10007003600102AED0019
:102EF000845080007420E100020031004401200071
:102F000084508800120037008289BF0084508000FE
:102F10000020E1000B0034000E8ABF0064508000E6
:102F20000020E10007003900102AED0084508000E5
:102F30007420E10002003100440120008450880028
:102F4000030037008289BF00100AE30000003A0046
:102F5000649A200014518800D0C0B300FA0902001E
:102F600000000000A0C0B300FA0902000000000049
:102F700000C2B300FA090200000000008289BF000D
:102F800004002000BC13020000000000C0C2B30017
:102F9000FA09020000000000108ABF0004002000AF
:102FA000BC13020000000000C0C2B300FA09020016
:102FB000000000000E8ABF0004002000BC130200C5
:102FC00000000000C0C2B300FA09020000000000C7
:102FD0000A8ABF0004002000BC13020000000000A9
:102FE000619A20001104E000070032000F22AF00B8
:102FF000FEFF37000140900010E2B7001162EF00C1
:103000008100E800F7FF3700100AF8008409F90092
:10301000108ABF004100DD006805020000000000CA
:1030200026A9B7009829A900D1A2A900CDA2A9007C
:103030009869AE00010037009869A9009849AE0070
:103040005400370098C9A80027C1BF0088E9B7001D
:103050008969EF008A29EF008AC9BF008BE9B700B0
:1030600089C9BF008AE9B70088C9BF0089E9B700EC
:103070008869EF0026C1BF000160EF008829B70012
:10308000EC140200000000009809A9000000AF0045
:103090009809A800444C8000634C80000300520053
:1030A00090A9B700544C8000734C800003005A0074
:1030B00092A9B7009809AE000E003700944C80002A
:1030C0006020E1000B003C0003003500844C8000D0
:1030D0006020E10007003100F4FF2F00834C8000E6
:1030E0000480410090A9B700944C800060004A0021
:1030F00092A9B7009809AF000E003700944C8000E9
:103100006020E1000B00350003003C00844C80008F
:103110006020E10007003600844C8000F3FF2F00A0
:103120000300520090A9B700944C800060005A0040
:1031300092A9B7009089BF00914C800001F0A600D1
:103140000600370004002000834C8000030052007A
:1031500004002000934C800083005A0090A9B7001F
:10316000914C88009229D50090A9D7008809F800D1
:103170008C09F9008A09F8008E09F9009009F80015
:103180009409F9009209F8009609F90098C9A90074
:0C3190009849A90010FF37000040FE0025
:0200000401F009
:100000000603FF003F00FF009387FF000F31FF0052
:0C0010000F33FF000400FF0003C0FF00DE
:00000001FF
;DSPIC30F4011
;CRC=F0A0  CREATED="28-Jun-24 10:04"
