:08000000FC14040000000000E4
:04004400E6070000CB
:04004C0008070000A1
:0400C40042070000EF
:100200003220EF006315200083015000040031000C
:1002100023122000008041001000BA0000000600F8
:10022000201220000600A900838141008081410046
:100230003380BA009381BA00C819DD0000807100D4
:10024000000006000000230000000100000026005E
:1002500000000100000029000000010000002C0047
:100260000000010000002E0000000100000031002D
:100270000000010000003400000001000000370011
:100280000000010000003A000000010000003D00F5
:100290000000010000004000170001001A004200A9
:1002A0001A0001001D0045001D000100200049004A
:1002B0002000010022004B002200010025004E001A
:1002C0002500010028005100280001002B005300E8
:1002D0002B0001002E005A003100010031005C00AB
:1002E0003300010033005F00360001003600620079
:1002F00039000100390064003C0001003C00680046
:100300003F0001003F006D0042000100420070000C
:1003100044000100440073004700010047007600DC
:100320004A0001004D007C004D00010050007F009C
:100330005000010053008100530001005600870067
:100340005600010058008A00580001005B00900030
:100350005B0001005F0092006100010061009500F8
:100360006400010064009B006700010067009E00BC
:10037000690001006900A3006C0001007000A60084
:10038000700001007200AC00720001007500AF0047
:10039000750001007800B500780001007A00BA000D
:1003A0007E0001007E00BE00810001008100C300CC
:1003B000830001008300C800860001008900CC0092
:1003C000890001008C00D1008C0001008F00D70053
:1003D0008F0001009200D900950001009500E00017
:1003E000970001009700E5009A0001009D00EB00D6
:1003F0009D000100A000F100A0000100A300F60094
:10040000A6000100A600FC00A8000100AB0002004D
:10041000AB000200AE000700AE000200B1000D000C
:10042000B4000200B4001300B7000200B9001800C5
:10043000B9000200BC001E00BF000200BF00270080
:10044000C2000200C5002C00C5000200C800330035
:10045000CB000200CB003800CD000200D0004100EC
:10046000D0000200D4004600D6000200D6004E00A4
:10047000D9000200DC005500DE000200DE005D0055
:10048000E2000200E5006300E7000200E7006B0005
:10049000EA000200ED007400EF000200EF007A00B5
:1004A000F3000200F6008200F8000200F8008B0062
:1004B000FB000200FE0093000101020004019C0009
:1004C000070102000701A5000A0102000C01AD00AE
:1004D0000F0102001201B600150102001801BE0052
:1004E000180102001B01CA001D01020020010000CA
:1004F0003220EF006315200083015000040031001A
:10050000A3292000008041001000BA00000006006E
:10051000A02920000600A9008381410080814100BC
:100520003380BA009381BA00C819DD0000807100E1
:1005300000000600000063000000010000006800E9
:100540000000010000006B000000010000006E00D0
:1005500000000100000072000000010000007500B2
:1005600000000100000078000000010000007D0094
:100570000000010000008000000001000000830076
:1005800000000100000087001C00010020008A001C
:100590002000010023008D002300010027009200AD
:1005A000270001002A0095002A0001002D00980074
:1005B0002D00010030009B003000010035009F003D
:1005C000350001003800A6003B0001003B00AA00F6
:1005D0003F0001003F00AD00420001004200B000BA
:1005E000450001004500B4004A0001004A00B8007F
:1005F0004D0001004D00BF00500001005000C2003E
:10060000540001005400C500570001005700C90004
:100610005A0001005F00D0005F0001006200D400BA
:10062000620001006500D700650001006900DD007F
:10063000690001006C00E2006C0001006F00E8003E
:100640006F0001007400EC00770001007700EF00FC
:100650007A0001007A00F7007D0001007D00FA00B9
:100660008100010081000100840002008800040074
:10067000880002008C000C008C0002008F000F002C
:100680008F000200920016009200020096001C00EB
:100690009A0002009A0021009D0002009D002700A0
:1006A000A1000200A1002E00A4000200A700320059
:1006B000A7000200AB003900AB000200AF003F0012
:1006C000AF000200B2004300B6000200B6004A00CC
:1006D000B9000200B9005100BC000200BF00580080
:1006E000BF000200C4005F00C4000200C700660033
:1006F000CA000200CA006C00CE000200D1007400E3
:10070000D1000200D4007B00D4000200D900810097
:10071000DC000200DC008900DF000200E300900042
:10072000E3000200E6009600E9000200E900A100F3
:10073000EE000200F100A800F1000200F400B00099
:10074000F8000200F800B600FB000200FE00C10045
:10075000FE0002000301C800060102000601D200EB
:10076000090102000C01D900100102001001E30090
:10077000140102001701EB001B0102001B01F50030
:100780001E010200210100002501030025010600D1
:10079000290103002C0110003001030030011B006F
:1007A00033010300360125003A0103003E01300009
:1007B0004101030041013B004501030048014500A0
:1007C0004B0103004E0150005301030056015A0033
:1007D00056010300590168005D010300600100003B
:1007E0003220EF0063152000830150000400310027
:1007F00023412000008041001000BA0000000600E4
:10080000204120000600A900838141008081410031
:100810003380BA009381BA00C819DD0000807100EE
:10082000000006002CFE50002CFE14002CFE2100BF
:100830002CFE14002CFEF2002CFE13002CFEC30034
:100840002CFE13002CFE95002CFE13002CFE6800DD
:100850002CFE13002CFE3B002CFE13002CFE0E0081
:100860002CFE13002CFEE1002CFE12002CFEB50025
:100870002CFE12002CFE890022EF1200C3E15D0065
:10088000CDD5120009CB31004CC1120071B8060061
:100890005CB01200F3A8DC0021A21100D69BB100CD
:1008A00002961100989087008E8B1100DA865D0009
:1008B00073821100537E3300727A1100CC760A00E5
:1008C0005B7311001B70E100086D10001D6AB80019
:1008D0005A671000B9648F0039621000D75F670053
:1008E000925D1000675B3F00545910005857170085
:1008F00072551000A053EF00E1510F003350C800B3
:10090000964E0F00094DA0008B4B0F001B4A79003B
:10091000B8480F006147530017460F00D8442C0019
:10092000A3430F007942060058410F004040E00009
:10093000313F0E002B3EBA002C3D0E00353C94009A
:10094000453B0E005C3A6F007A390E009E384A0033
:10095000C8370E00F83625002D360E006835000029
:10096000A8340E00EC33DB0036330D008432B700C0
:10097000D6310D002D31930087300D00E62F6F002A
:10098000482F0D00AE2E4B00172E0D00842D280091
:10099000F42C0D00672C0400DD2B0D00562BE1001C
:1009A000D22A0C00502ABE00D1290C0055299B00E8
:1009B000DB280C0064287900EF270C007C27560008
:1009C0000B270C009C26340030260C00C525120095
:1009D0005C250C00F524F00090240B002D24CF00A2
:1009E000CB230B006B23AD000D230B00B0228C003A
:1009F00055220B00FB216B00A3210B004B214A0069
:100A0000F6200B00A1202A004E200B00FC1F09003D
:100A1000AC1F0B005C1FE9000E1F0A00C11EC900BD
:100A2000741E0A00291EA900DF1D0A00961D8900F8
:100A30004E1D0A00071D6A00C11C0A007B1C4A00EB
:100A4000371C0A00F31B2B00B11B0A006F1B0C00A4
:100A50002E1B0A00ED1AEE00AE1A09006F1ACF0025
:100A6000311A0900F319B100B61909007A19930077
:100A70003F19090004197500CA1809009118570098
:100A8000581809001F183900E8170900B0171C0092
:100A90007A1709004317FF000E170800D916E20065
:100AA000A41608007016C5003C1608000916A90017
:100AB000D6150800A4158C007215080041157000A9
:100AC00010150800DF145400AF1408007F14000054
:100AD0003220EF0063152000830150000400310034
:100AE000A3582000008041001000BA00000006005A
:100AF000A05820000600A9008381410080814100A8
:100B00003380BA009381BA00C819DD0000807100FB
:100B1000000006000000B700000000000000B9005F
:100B2000000000000000BB00000000000000BD004D
:100B3000000000000000BF00000000000000C10035
:100B4000000000000000C300000000000000C6001C
:100B5000000000000000C800000000000000C90004
:100B6000000000005500CB00550000005500CC00EF
:100B7000560000005600CD00560000005600CF0081
:100B8000560000005700D000570000005700D10069
:100B9000570000005700D300580000005800D40050
:100BA000580000005800D600590000005900D80035
:100BB000590000005900D900590000005A00DB001C
:100BC0005A0000005A00DC005A0000005B00DE0002
:100BD0005B0000005B00E0005C0000005C00E100E6
:100BE0005C0000005C00E3005D0000005D00E500CB
:100BF0005D0000005E00E7005E0000005E00E900AE
:100C00005F0000005F00EB005F0000006000ED008F
:100C1000600000006000EF00600000006100F10073
:100C2000610000006200F300620000006200F60054
:100C3000630000006300F800630000006400FA0035
:100C4000640000006500FD00650000006600FF0014
:100C500066000000660002006700010067000400F3
:100C600068000100680007006900010069000A00CF
:100C70006A0001006A000D006B0001006B001000AB
:100C80006B0001006C0013006D0001006D00160088
:100C90006D0001006E0019006F0001006F001D0063
:100CA000700001007000200071000100720024003B
:100CB00072000100730028007300010074002C0012
:100CC0007400010075002F007600010076003400EA
:100CD00077000100780038007800010079003C00BE
:100CE0007A0001007B0041007B0001007C0046008F
:100CF0007D0001007E004B007F0001007F0050005E
:100D000080000100810055008200010082005B002C
:100D100083000100840061008500010086006700F7
:100D20008600010087006D008800010089007400C2
:100D30008A0001008B007B008C0001008D00820086
:100D40008E0001008F008A00910001009200920045
:100D50009300010094009A00950001009600A30002
:100D6000970001009800AC00990001009A00B600BD
:100D70009B0001009C00C1009D0001009E00CC0072
:100D8000A0000100A100CC00A2000100A300CC0043
:100D9000A4000100A600CC00A7000100A800CC0020
:100DA000AA000100AB00CC00AD000100AE00CC00F9
:100DB000B0000100B200CC00B3000100B50000009B
:100DC0003220EF00C36E2000008041001040BA00C6
:100DD0000160EF00000006000A4D00006F74000083
:100DE0006F720000204300006F6E000074720000FC
:100DF0006F6C0000205500006E6900007420000038
:100E0000763000002E3100000D0A000000000000C6
:100E10004200F8003600F8003200F800801F780029
:100E2000200020000C000900B01F78000080200086
:100E300024438000840040001282BF008520A90066
:100E4000805878006428EC0034062000234380009A
:100E500003005200010031006428EF000E02AF00D1
:100E6000F5FF3700A00120000C0009004F107800AA
:100E70004F0078003200F9003600F9004200F90016
:100E8000004006004200F8003600F8003200F8008A
:100E9000801F7800200020000C000900B01F78009F
:100EA0009769EC00B44C80004822DE006824E10021
:100EB000080035009A29EC004220AF009C29EC0084
:100EC0009E29EC004220AF00A029EC009629A80042
:100ED0009769EF00044D80006020E10006003900B2
:100EE00003003E00F44C80006A20E100020039005B
:100EF0009E29EF00A029EF00E44C80006020E10073
:100F00000800390004003E00D44C80004306200055
:100F10000418E10003003E009649A8009A29EF005A
:100F20009C29EF0088E0A900A00120000C00090026
:100F30004F1078004F0078003200F9003600F900B9
:100F40004200F90000400600851F7800C50020001F
:100F500003000900B51F78000202B80003F0A600E4
:100F6000020037000383B900010037000303B80013
:100F70004200A9008502430060844B0001F0A600F6
:100F800002003700028BB90001003700020BB800E5
:100F900085024B0008844B000980B000038BB90028
:100FA00008044B0087834C00870178000801780013
:100FB0008500780004007800250120000300090066
:100FC000CF127800CF027800000006004200F8003F
:100FD0003600F8003200F800801F78002000200062
:100FE0000C000900B01F780024498000E102420093
:100FF000E4012000110009008482D8002149880002
:101000002409F8007209F90024498000EA0242002C
:10101000E4012000110009008482D800A14B88005F
:1010200024498000F4024200E4012000110009007C
:101030008482D800B14B8800DA2AEF00D4568000B1
:101040006320E100CB003D00D45680006420B8004E
:101050008492200084024000D45680006220B800B0
:101060002497200004004000100378004130DD0088
:10107000449320000400400000027800140078002F
:101080008000EB0000F0A7008080EB00040020004F
:10109000B41A7800B41A7800D45680006420B800DE
:1010A0008492200084024000D45680006420B8005E
:1010B0008492200004004000C4002000301A780010
:1010C000301A78002689BF008000EB0000F0A700EE
:1010D0008080EB0000017800810178000600780034
:1010E00087007800A4070200000000000400200030
:1010F000B41A7800B41A7800D45680006420B8007E
:101100008492200004004000A4002000301A7800DF
:10111000301A78006030E1001600350002003C0013
:101120006028E10013003600D45680006420B80027
:101130008492200084024000D45680006420B800CD
:101140008492200004004000C4002000301A78007F
:10115000301A78000DC0BF00804A7800974298008E
:101160000FC0BF00A042980000C0B300B04298007A
:101170003E003700D45680006420B80084922000DE
:1011800004004000A4002000301A7800301A7800D3
:101190006030E10035003C00020035006028E100CD
:1011A00032003100D45680006420B80084922000C0
:1011B00084024000D45680006420B800849220004D
:1011C000040040000002780003002000B4197800F9
:1011D000B419780004002000800A520004002000A6
:1011E000812A5A00D45680006420B80084922000DE
:1011F00084024000D45680006420B800849220000D
:1012000004004000C4002000301A7800301A780032
:101210000DC0BF00804A7800974298000FC0BF0001
:10122000A042980000C0B300B0429800D45680009D
:101230006420B8008492200084024000D4568000CC
:101240006420B8008492200004004000000278006E
:1012500003002000B4197800B419780004002000BD
:10126000800A520004002000812A5A00D4568000CF
:101270006420B8008492200084024000D45680008C
:101280006420B8008492200004004000C4002000C4
:10129000301A7800301A7800843E2000840A430017
:1012A000E0AA4B00D45680006420B800849220004D
:1012B00004004000A4002000301A7800301A7800A2
:1012C0006030E1001000350003003C00E4792000AC
:1012D0000520E1000C003100D45680006420B800E5
:1012E0008492200084024000E0C9B300804A780064
:1012F00070C0B3009042980000C0B300A0429800B4
:1013000000C0B300B0429800D45680006420B800FA
:101310008492200004004000A4002000301A7800CD
:10132000301A78006030E10010003C000300350006
:10133000240320000520E1000C003600D456800074
:101340006420B800849220008402400020C3B300CF
:10135000804A780000C0B3009042980000C0B300FB
:10136000A042980000C0B300B0429800DA2AEC0016
:1013700032FF370028C9BF00D6E1B70029C9BF0036
:10138000D7E1B7002CC9BF00D8E1B7002DC9BF0015
:10139000D9E1B70030C9BF00DAE1B70031C9BF00F9
:1013A000DBE1B7008489BF004100DD00F0030200EB
:1013B00000000000800278001021EF00650888001E
:1013C000760888008400280084088800CA62A90082
:1013D000C662A90084E0A900A00120000C00090059
:1013E0004F1078004F0078003200F9003600F90005
:1013F0004200F90000400600811F780091508000F3
:10140000805878008048EB00CF007800122AEC006A
:101410000000060000C8B300C1E1B70020C0B3005F
:10142000C0E1B70030C0B300C5E1B70070CEB30073
:10143000C4E1B700C761EF0010C0B300C6E1B70058
:10144000C961EF0070C7B300C8E1B700CB61EF001E
:1014500020C0B300CAE1B700CD61EF0000C1B30006
:10146000CCE1B700CF61EF00CE61EF00D161EF00BA
:10147000D061EF00F0C3B300D5E1B700F0C0B30016
:10148000D4E1B7001FC9BF00D7E1B7001EC9BF0034
:10149000D6E1B70021C9BF00D9E1B70020C9BF001C
:1014A000D8E1B70023C9BF00DBE1B70022C9BF0004
:1014B000DAE1B700C160EF0000C7B300C0E0B700D9
:1014C00000000600851F7800C50020000300090009
:1014D000B51F7800000278008102780002037800CE
:1014E000830378000000EB008000EB000001EB00BC
:1014F0008001EB000800A10007F0A60008003700FB
:101500000800A0008783EA000683EA008582EA00DB
:101510000402EA00E0824A0060034B00E0834B00D3
:101520008504720002003A0087047300150032003F
:10153000394720000340A7000B0037004200A900F4
:101540000482D2008582D2000683D2008783D20033
:101550000080D2008180D2000281D2008381D2003B
:101560008904E900F3FF3A00C44CDD004200A90001
:1015700009F0A1000340A10083816C000800A700CE
:1015800003F0A0002501200003000900CF1278001D
:10159000CF02780000000600881F78002801200094
:1015A00004000900B81F78008005EB006066B800F1
:1015B0000304780087047800FA7F20004200A90025
:1015C0004220A90044C4DE00080465000800E000D1
:1015D000710032004200A9004220A900C4CCDE0004
:1015E000890465000900E0006B00320008844400B3
:1015F00009B0A70004003700F83FB10066003200D0
:1016000065003900030037001A402000854245007C
:1016100061003100878669004200A9004220A900CC
:10162000F300B2000340A000F700B2000740A000A2
:10163000881F78000124B800002DB8000A05440076
:101640008B854C000C80B0000224B8008B05440050
:101650000C864C00012CB8000005EB008B05440003
:101660000C864C000A80B0000034B8008B054400A2
:101670000C864C000A80B0008005EB000324B80003
:101680000C0644000A854C000B80B000022CB80008
:101690000C0644000A854C000B80B0000134B800F1
:1016A0000C0644000A854C000B80B000003CB800DA
:1016B0000C0644000A854C000B80B0000C0078003A
:1016C0000006EB00032CB8000A0544008B854C0093
:1016D0000C80B0000234B8000A0544008B854C0031
:1016E0000C80B0000334B8008B0544000C864C001D
:1016F000013CB8000A0544008B854C000C80B0000A
:10170000023CB8008B0544000C864C00033CB8003A
:101710000C0644008A0078000B0178008C017800E8
:10172000540020004200A9008381D3000281D3002D
:101730008180D3000080D3000402E900F9FF3A0061
:101740004F0478000804E800010370000100320033
:101750000200370003037100080032000340A700B5
:10176000060037004200A9000080D2008180D2002C
:101770000281D2008381D2000804E9004444DD00E4
:1017800003F0A1000DF0A70003F0A0000340A100AA
:1017900083016C00030037006000B8006001B800EE
:1017A00000003700A8012000040009004F14780051
:1017B0004F04780000000600881F780028012000F0
:1017C00004000900B81F78008786690003047800C8
:1017D00087047800FA7F20004200A9004220A90077
:1017E00044C4DE00080465000800E0006C0032001C
:1017F0004200A9004220A900C4CCDE008904650093
:101800000900E000660032000005EB000906540004
:1018100003003900FC3FB0006100310004003700D4
:101820001B4020000B0656005D0039005C003200B2
:101830000004EB008004EB000005EB008005EB00EA
:10184000F301B2000340A000F701B2000740A0007E
:101850008C1F78006C032000040050008580580025
:10186000060159008781590002003300060031004B
:1018700006003A0004004000858048000601490047
:1018800087814900010037000800A0000C06E9002C
:101890000B0032004200A9000080D2008180D200FB
:1018A0000281D2008381D2004200A9000884D200C4
:1018B0008984D2000A85D2008B85D200E6FF3700EA
:1018C0004F0678000B50A7000100370006003700D4
:1018D0004200A9008B85D3000A85D3008984D300F8
:1018E0000884D300030037000C06E9004200A90079
:1018F0002B0032004200AF00090037000080D20008
:101900008180D2000281D2008381D2000402500083
:101910008582580006035900878359001500390055
:101920000804E80013003A008904E80011003A00B6
:101930000A05E8000F003A008B05E8000D003A00A8
:101940000C06E800160032000A0037000C06E90019
:10195000130032000B40A700060037004200A90028
:101960000884D2008984D2000A85D2008B85D200F7
:10197000F8FF37004466DD004200A9000CF0A1002A
:101980000DF0A7000CF0A0000B40A1008B016E0031
:101990000A01780089007800080078000500370007
:1019A00000002000010020000200200003002000B1
:1019B00000003700A8012000040009004F1478003F
:1019C0004F04780000000600881F780028012000DE
:1019D00004000900B81F7800080028004300AF0089
:1019E00087036C000000E00007003A000100E000FF
:1019F00005003A000200E00003003A00FAFF270069
:101A00000A8561004220AE00030578008A856B00DC
:101A1000030478008704780007067800FD7F200023
:101A20004220A9004200A90044C4DE0008846600E8
:101A30000800E000BC0032004220A9004200A900DA
:101A4000C4CCDE00898466000900E000BE003200DC
:101A50008006EB004220A9004200A9000848E100EE
:101A6000BA003200C10033000D00A1000D10A0002B
:101A700008845400F300B2000340A000F700B20055
:101A80000740A0004803B10016003B004803B00027
:101A90004220A9004200A9008381D3000281D30023
:101AA0008180D3000080D3000804E900F8FF3A00E9
:101AB000140037004803B1000F003B004803B0009A
:101AC0004220A9004200A9008783D3000683D300E7
:101AD0008582D3000482D3000804E900F8FF3A00AD
:101AE0001B003700040078008500780006017800AC
:101AF000870178000C866D000CF0A7000BF0A200A7
:101B0000790037000BF0A6001F0037000D40A7003A
:101B10008C0578000080EA008180EA000281EA00FA
:101B200083C1EA00F341B2000000E80005003A007A
:101B30008100E80003003A000201E80001003A00D9
:101B40008341E8000D40A700320037000E00370047
:101B50000BF0A6000C0037000482EA008582EA0040
:101B60000683EA0087C3EA00F741B2000402E800F6
:101B700005003A008502E80003003A000603E80089
:101B800001003A008743E8004220A9004200A90072
:101B900004004000858048000601490087C14900D3
:101BA0000350A7000D30A0000D00A700090037006A
:101BB0000D10A700010037000B0037000BF0A70045
:101BC000140037000D30A700290037000D60A00079
:101BD000210037000BF0A7000E0037000D30A700E2
:101BE000230037001C0037000BF0A700040037006B
:101BF0008A0578000D30A7001D0037003A00370035
:101C00000D40A00003C1B2000340A700BFFF370092
:101C10008A057800F301B2000284710002003A00E4
:101C2000008470000C0032000340A7000A00370057
:101C30004220A9004200A9000080D2008180D20089
:101C40000281D2008381D2008904E9004220AF00E2
:101C500032003700F4FF37000D00A7008A05780036
:101C60000D10A7008C0578000D50A6001E0037004F
:101C70004200A90083C1D3000281D3008180D30038
:101C80000080D3004200AF000D50A0008904E8009E
:101C90004220AF00210037000D50A6000E00370093
:101CA0000000E8000C003A008100E8000A003A0059
:101CB0000201E80008003A008301E80006003A004B
:101CC00083C1D3000281D3008180D3000080D30080
:101CD0008904E800110032000D00A7008A05780091
:101CE0000D10A7008C0578000102700002003A0078
:101CF00003027100260032000340A1004220A90027
:101D00004200A900C44CDD0083816C0003F0A000F8
:101D10000BF0A60003F0A1001D0037006000B80022
:101D20006011B8001A003700080028000AF0A70068
:101D300087036C00850078000400780006017800B5
:101D4000870178001200370011003700F700B20059
:101D50000740A000F300B2000340A0000BF0A70072
:101D60000740A1000D20A00079FF3700F300B2006A
:101D70000340A000F700B2000740A000090454008F
:101D8000890444000D10A1000D00A00049FF370098
:101D9000A8012000040009004F1478004F047800C7
:101DA00000000600881F7800891F78008A1F7800CD
:101DB0008784690009F0A600060037004200A900E8
:101DC0004220A90003F0A600340037004200A8001A
:101DD00032003700FA7F200003047800870478007F
:101DE00044C4DE0008046500C4CCDE00890465003C
:101DF000088554000500320003F0A60027003700D4
:101E00001000200042E0B6002400370003047800F0
:101E100087047800F301B200F701B2000340A1008B
:101E20000740A10003C553000500320008F0A600DA
:101E30001A0037001000200042E0B60017003700FB
:101E4000020553000500320008F0A6001300370019
:101E50001000200042E0B60010003700018552005B
:101E60000500320008F0A6000C003700100020002A
:101E700042E0B600090037000005520005003200BC
:101E800008F0A600050037001000200042E0B60070
:101E9000020037004200A900000037004F0578001B
:101EA000CF0478004F04780000000600851F7800FA
:101EB000C500200005000900B51F78000304780064
:101EC00082037800010378008002780083047800A0
:101ED0003B472000C499DE00FA7F200083016500A3
:101EE00083855500F801B2000840A0000000EB0017
:101EF0008000EB000001EB008001EB004200A90034
:101F00000884D3008783D3000683D3008582D3005F
:101F10008381D3000281D3008180D3000080D3006D
:101F20008B05E900F5FF3A0009F0A600090037002B
:101F30000080EA008180EA000281EA008381EA00F1
:101F40000000E8000180B0000280B0000380B00013
:101F5000000037006501200005000900CF1278005D
:101F6000CF02780000000600851F7800861F7800E9
:101F7000871F7800881F7800422AEF00442AEF006C
:101F8000462AEF0004FF230044528800F4F12F009A
:101F90009452880054AAEF0056AAEF00F4FD2B00DB
:101FA000C452880054C32100D452880054552500DF
:101FB000E452880054552500F452880054FA230056
:101FC00004538800C4F1230014538800746A21006C
:101FD00024538800C4162C003453880064F52B0069
:101FE00044538800643E2F005453880054D6200088
:101FF00064538800041A200074538800A4EF23005F
:1020000084538800E4A32000945388001493230091
:10201000A4538800C4E42700B453880024E92B00AB
:10202000C4538800B4DF2D00D453880074B7220055
:10203000E453880014DB2E00F453880014E22300DC
:1020400004548800C4FC26001454880074FF28003F
:102050002454880004612C003454880084DA2B0056
:1020600044548800C424210054548800C4E128004A
:102070006454880094AF23007454880034CF230044
:10208000845488006467270094548800F450230027
:10209000A4548800E40D2C00B454880004CF23001D
:1020A000C4548800288ABF005151800062518000CA
:1020B000735180000400200005002000060020006D
:1020C00007002000D20E02000000000005003900C9
:1020D00080A2200081A2200007000900B01878002B
:1020E0002FEAAA00288ABF00515180006251800067
:1020F0007351800044882C0095DC260006F32500EF
:1021000047FE2300CC0A020000000000560F020028
:102110000000000030EAB700288ABF00515180005B
:10212000625180007351800044882C0095DC2600A9
:1021300006F3250047FE2300CC0A02000000000041
:10214000800278000103780082037800030478009D
:1021500001002000020020000300200030CABF0060
:102160000160EF00620A0200000000004300A800C6
:10217000851F7800861F7800871F7800000278008E
:10218000050078008102780086007800020378005C
:10219000070178008303780088017800E40C0200CE
:1021A00000000000CF0378004F037800CF027800D2
:1021B0004AAAB70061528800725288008352880090
:1021C00030CABF006340600030EAB700304AE20026
:1021D00003003200845180006224E1000F003A00C5
:1021E0004A8ABF0061528000725280008352800090
:1021F00084D1220045442500B61F220097FF23000A
:10220000CC0A0200000000003AAAB700E1518800A1
:10221000F2518800035288004A0037008451800040
:102220006124E10024003A004300A80000002000DF
:10223000010020000200200003FF23005452800010
:10224000655280007652800087528000E40C0200C4
:10225000000000008002780001037800820378000B
:1022600003047800851F7800861F7800871F780098
:102270000500780086007800070178008801780062
:1022800084D1220045442500B61F220097FF230079
:10229000CC0A020000000000CF0378004F03780052
:1022A000CF0278003AAAB700E1518800F2518800C5
:1022B00003528800230037004300A8004A8ABF0069
:1022C000615280007252800083528000040020001E
:1022D000050020000600200007FF2300E40C020098
:1022E000000000008002780001037800820378007B
:1022F00003047800851F7800861F7800871F780008
:1023000005007800860078000701780088017800D1
:1023100084D1220045442500B61F220097FF2300E8
:10232000CC0A020000000000CF0378004F037800C1
:10233000CF0278003AAAB700E1518800F251880034
:1023400003528800322AEF00342AEF00362AEF00C9
:1023500004FF2300C45188003A8ABF00E151800085
:10236000F251800003528000D4518000E55180007A
:10237000F651800007528000CC0A020000000000E5
:102380003AAAB700E1518800F25188000352880050
:10239000316AEF00845180004822DE006824E100A9
:1023A00031003E00428ABF0021528000325280003C
:1023B00043528000D4518000E5518000F6518000E6
:1023C00007528000CC0A02000000000042AAB700B9
:1023D00021528800325288004352880031CABF001F
:1023E0000160EF004300DD0024A520000400400050
:1023F00080027800851F780015007800D5007800ED
:1024000055017800D50178001452800025528000D3
:102410003652800047528000CC0A020000000000C3
:10242000CF0278004300A900000278008102780002
:102430000203780083037800328ABF00A151800034
:10244000B2518000C3518000E40C02000000000083
:1024500032AAB700A1518800B2518800C351880048
:10246000316AEC00CBFF3700845180006224E10028
:1024700003003200845180006124E10005003A002D
:1024800020A3200021A3200007000900B018780035
:1024900039EAAA00328ABF00A1518000B2518000FF
:1024A000C35180004F047800CF0378004F037800B9
:1024B000CF02780000000600851F7800861F780094
:1024C000871F7800881F78004300A800188ABF0083
:1024D000D1508000E2508000F350800084D122006F
:1024E00045442500B61F220097FF2300E40C02009C
:1024F0000000000080027800010378008203780069
:1025000003047800455188005651880067518800BF
:1025100078518800B40F0200000000004F047800DA
:10252000CF0378004F037800CF0278000000060048
:10253000851F7800C500200005000900B51F780040
:102540000304780082037800010378008002780099
:10255000830478003B472000C499DE00FA7F200006
:102560008301650083855500F801B2000840A00092
:102570000000EB008000EB000001EB008001EB00AD
:102580004200A9000884D3008783D3000683D300C8
:102590008582D3008381D3000281D3008180D30060
:1025A0000080D3008B05E900F5FF3A0009F0A60092
:1025B000090037000080EA008180EA000281EA0019
:1025C0008381EA000000E8000180B0000280B000D2
:1025D0000380B000000037006501200005000900FD
:1025E000CF127800CF02780000000600851F780027
:1025F000861F7800871F7800881F78007029EF00F9
:10260000844B80007E20E100570031007089BF00BC
:10261000010020000200200003002000620A0200E6
:10262000000000000400200005002000060020003B
:1026300007002400CC0A020000000000800278009D
:10264000010378008203780003047800851F780076
:10265000861F7800871F78000500780086007800C4
:10266000070178008801780084D1220045442500C4
:10267000B61F220097002400CC0A020000000000D0
:10268000CF0378004F037800CF02780080027800F3
:10269000010378008203780003047800851F780026
:1026A000861F7800871F7800050078008600780074
:1026B0000701780088017800040020000500200050
:1026C00006002000E7032400DC0B020000000000ED
:1026D000CF0378004F037800CF02780078A9B700C5
:1026E000D14B8800E24B8800F34B88007089BF0013
:1026F0004100DD0044932000840240007809F80086
:10270000180AF9007A09F8001A0AF9007C09F80099
:102710001C0AF9007E09F8001E0AF9005C1202008A
:1027200000000000851F7800000278008102780018
:1027300002037800830378000000200001002000DD
:1027400002002E00F3062400CC0A02000000000064
:10275000CF0278009812020000000000800A780082
:102760007029EC00A6FF37004F047800CF037800F3
:102770004F037800CF027800000006002361AE000E
:102780000300370010C0B30000E0B70001003700BD
:102790000060EF0000000600851F7800C5002000E3
:1027A00003000900B51F780000F0A6000F003700F5
:1027B0000000EA000480A00004F0A6000B0037002F
:1027C000801F7800D0022000841F7800801F7800CE
:1027D0004F007800FC090200000000004F02780062
:1027E0004F0078000480A1000860ED008002EB003B
:1027F000800378008404780004F0A1000404E00061
:1028000006003A0009F0A70002003700050020008A
:102810001700370005002000150037000980A600CA
:10282000E64252000980A700E74252000F0039003B
:102830000003200009F0A60000022000801F78009D
:10284000841F7800801F78004F007800FC09020088
:10285000000000004F0278004F0078008502E90078
:10286000F6FF3B005500200001003700840278008D
:10287000640020000580A7000402E80005E0A00035
:1028800009F0A70005F0A00008712200110009005E
:102890008883D8009E1402000000000081037800A5
:1028A000883E2000110009008883D8009E14020091
:1028B0000000000081037800480620001100090094
:1028C0008883D8009E140200000000008103780075
:1028D000A8002000110009008883D8009E1402007F
:1028E000000000000980A6000A003700D002200086
:1028F000811F7800841F7800801F78004F007800C7
:10290000FC090200000000004F027800CF007800B0
:102910000980A1000003200000C040005001880091
:10292000841F7800801F78004F007800FC090200A7
:10293000000000004F0278002A0037000603200044
:102940000000E0000E003A0005E0A6001B00370082
:102950000402E9000524E100020032004200AF0059
:10296000000006000000E00005003A0005E0A600B7
:102970001200370005F0A600060220000F00370005
:1029800005E0A1000980A6000C00370000057800D2
:10299000D0022000811F7800841F7800801F7800FB
:1029A0004F007800FC090200000000004F02780090
:1029B000CF0078000980A1000A00780000404300A1
:1029C000811F7800841F7800801F78004F007800F6
:1029D000FC090200000000004F027800CF007800E0
:1029E000000006002501200003000900CF12780036
:1029F000CF027800000006000FF82000F0FF200052
:102A000020A0B7000000000040442400B00488006B
:102A1000404424003005880081E0A800040028001C
:102A20006410880004402000741088000401200015
:102A3000A41088006428EF006628EF006428EF00E7
:102A40006628EF008D20A8002429EF002629EF003A
:102A50008029EF008229EF0014002000244C880018
:102A60008629EF008829EF008A29EF008C29EF00E2
:102A70008E29EF009029EF009229EF009429EF00B2
:102A80009609A9009829EF009629A9009649A9005E
:102A90009669A9009769EF009A29EF009C29EF0039
:102AA0009E29EF00A029EF009689A90096A9A90008
:102AB000122AEF00A8A2EF0096C9A9005100370022
:102AC000C0060800680000004BF03F005C0A580098
:102AD000F63B8F0000C03C008B28AC003CBEF600EB
:102AE0003FD2D50044168C0015D7BF0069005A00AC
:102AF0002E1B8700993F9A005FAD4B0091E40100C7
:102B0000C05D11002F92E40081FB3F0038DA910094
:102B1000809DC500E0BF6F0012C0B400C309AB00C8
:102B20003F6BC100034EC100B545BF00F740050033
:102B3000FF005C00EF3FF300A3E2F700D7FF0100C6
:102B400040C0B400FF053C0058FC3F003BD3C00030
:102B5000B5BA8C00E23F3900D3C73D004179B200DD
:102B60003F870D003C50D000AF623F00304B8D00DE
:102B7000A282AA0004400900A0404A000576030092
:102B800040EC9E003788A60044F03F008F128D0075
:102B9000299A5B00C73F0E00E0807C00A1D8860028
:102BA0003F294B00FB95C200371A3F000000800010
:102BB00006091E00E803E80003E80300C00C090052
:102BC0002800C00006097200000000000201E800B1
:102BD0006110E10004003A009101BA003182BA00AC
:102BE00006C0BF00000006006210E10002003A00CB
:102BF00007C0BF000000060008C0BF000001EB00D6
:102C0000000006000600200000002000900188005F
:102C100000562100800078000001EB00E61502005C
:102C2000000000000BE0B700E61502000000000005
:102C30000AE0B7000500E0001900320005F0A60028
:102C400007003700E6150200000000000DE0B700A5
:102C5000E6150200000000000CE0B70005F0A1003E
:102C600005E0A6000800370005E0A1008502E900A4
:102C7000E61502000000000080437800058009008E
:102C8000075B7800E5FF3700E61502000000000052
:102C9000005B78008502E900FBFF3A00DFFF3700A8
:102CA000102AEF00249A2000945088000100200090
:102CB000010078000160EF00E00602000000000063
:102CC0008100E800811F7800801F78004F007800A5
:102CD000FC09020000000000CF00780090012000F5
:102CE0000008E600F2FF3700219A20001104E000FE
:102CF000070032000F22AF00FEFF370001409000B6
:102D000010E2B7001162EF008100E800F7FF370022
:102D100080C0B30014E2B700440120006450880072
:102D20009829EF0014002000244C88000A0A0200B1
:102D300000000000F612020000000000CDA2A90071
:102D4000F4F1210024158800040E280004158800E1
:102D5000D4FF2F0044158800A222EF0014002000A9
:102D6000341588009E000900000000000440200087
:102D7000140988002421EF002821EF002621EF000C
:102D80008489BF004100DD00F00302000000000064
:102D9000800278001021EF0065088800760888001E
:102DA00084002800840888008CE0A80090E0A80037
:102DB00081E0A9004220EF0081E0A8009629AE0042
:102DC00059003700A002A900A022A800A002AE006E
:102DD000FEFF37008002F8008009F900D1A2A800A8
:102DE000CDA2A900044C8000F33F20000418E100AC
:102DF00002003100F43F2000044C8800044C8000A5
:102E0000840CB100044C88008009F8008209F900A4
:102E1000144C8000F30F20000418E10002003D0074
:102E2000F40F2000144C8800144C80006020E10056
:102E300001003D008229EF000C8ABF004100DD0047
:102E4000000102000000000006AAB7000C8ABF00C3
:102E50004100DD00780202000000000008AAB7006F
:102E600064508000E10252004128DD0000010200B0
:102E7000000000000EAAB70096C9AF00020037009C
:102E80009209F8000A0AF9000C8ABF00144C80006D
:102E90000020E10006003400068ABF005450800084
:102EA0000020E100020039000C2AEC00120037007B
:102EB0008289BF00645080000020E1000B003400D4
:102EC0000A8ABF00445080000020E100070039005A
:102ED0000C2AED00645080007420E10002003100F3
:102EE0004401200064508800030037008289BF003D
:102EF0000C0AE30000003A000C0AF8008409F9000B
:102F00000C8ABF004100DD006805020000000000DF
:102F100026A9B7000A0AF800100AF9009629A900A4
:102F2000D1A2A900CDA2A9009669AE000100370088
:102F30009669A9009649AE009000370096C9A8008E
:102F400027C1BF0086E9B7008769EF008829EF0035
:102F500088C9BF0089E9B70087C9BF0088E9B70001
:102F600086C9BF0087E9B7008669EF0026C1BF00A8
:102F70000160EF008629B700BE13020000000000C8
:102F80009609A9000000AF009609A800344C800003
:102F9000534C8000030052008EA9B700444C8000BF
:102FA000634C800003005A0090A9B7009609AE0058
:102FB0000E003700844C80006020E1000B003C00D4
:102FC00003003500744C80006020E10007003100F0
:102FD000F4FF2F00734C8000048041008EA9B700DD
:102FE000844C800060004A0090A9B7009609AF00A9
:102FF0000E003700844C80006020E1000B0035009B
:1030000003003C00744C80006020E10007003600A3
:10301000744C8000F3FF2F00030052008EA9B7000C
:10302000844C800060005A0090A9B7008E89BF00D0
:10303000814C800001F0A60006003700040020004B
:10304000734C80000300520004002000834C800079
:1030500083005A008EA9B700814C88009029D500C2
:103060008EA9D7008609F8008A09F9008809F800B6
:103070008C09F9008E09F8009209F9009009F8000E
:103080009409F900249A200094508800D0C0B3001D
:10309000FC09020000000000A0C0B300FC0902000F
:1030A0000000000000C2B300FC09020000000000A4
:1030B0008289BF0004002000CC1302000000000041
:1030C000C0C2B300FC090200000000000C8ABF006F
:1030D00004002000CC13020000000000C0C2B300B6
:1030E000FC090200000000000A8ABF000400200062
:1030F000CC13020000000000C0C2B300FC090200B3
:1031000000000000068ABF0004002000CC1302006B
:1031100000000000C0C2B300FC0902000000000073
:10312000088ABF0004002000CC1302000000000049
:10313000C0C2B300FC09020000000000108ABF00FA
:1031400004002000CC13020000000000219A20009F
:103150001104E000070032000F22AF00FEFF37002D
:103160000140900010E2B7001162EF008100E8001A
:10317000F7FF370096C9A9009649A9000FFF37004D
:043180000040FE000D
:0200000401F009
:100000000603FF003F00FF009387FF000F31FF0052
:0C0010000F33FF000400FF0003C0FF00DE
:00000001FF
;DSPIC30F4011
;CRC=EC98  CREATED="01-Jul-24 15:14"
