:080000004E0F04000000000097
:040034009201000035
:0400C4000001000037
:100200004200F8003600F8003200F800801F780045
:10021000200020000C000900B01F7800116DEC00D8
:10022000846880004822DE006824E1000700350071
:10023000CA42A800C642A900122DEC004220AF001D
:10024000142DEC00100DA800116DEF00A4688000C3
:100250006020E1000900390004003E00946880003D
:10026000431F20000418E10004003E00C6A2A900BC
:10027000CAA2AA00122DEF00142DEF0088E0A900F9
:10028000A00120000C0009004F1078004F007800FA
:100290003200F9003600F9004200F9000040060083
:1002A000851F7800C500200003000900B51F7800F5
:1002B0000202B80003F0A600020037000383B90071
:1002C000010037000303B8004200A9008502430083
:1002D00060844B0001F0A60002003700028BB900D9
:1002E00001003700020BB80085024B0008844B0068
:1002F0000980B000038BB90008044B0087834C00D1
:1003000087017800080178008500780004007800F3
:100310002501200003000900CF127800CF027800E9
:10032000000006004200F8003600F8003200F80035
:10033000801F7800200020000C000900B01F78000A
:10034000CA62A800C662A900B4458000E10242006A
:10035000E4012000110009008482D800B145880022
:10036000B608F8000409F900B4458000EA0242002A
:10037000E4012000110009008482D800314888007F
:10038000B4458000F4024200E4012000110009009D
:100390008482D80041488800DC2DEF00E46E8000A4
:1003A0006320E100CB003D00E46E80006420B800D3
:1003B000A48B200084024000E46E80006220B8001C
:1003C0004490200004004000100378004130DD001C
:1003D000648C2000040040000002780014007800C3
:1003E0008000EB0000F0A7008080EB0004002000FC
:1003F000B41A7800B41A7800E46E80006420B80063
:10040000A48B200084024000E46E80006420B800C9
:10041000A48B200004004000C4002000301A7800A3
:10042000301A7800B888BF008000EB0000F0A70009
:100430008080EB00000178008101780006007800E0
:100440008700780050010200000000000400200036
:10045000B41A7800B41A7800E46E80006420B80002
:10046000A48B200004004000A4002000301A780073
:10047000301A78006030E1001600350002003C00C0
:100480006028E10013003600E46E80006420B800AC
:10049000A48B200084024000E46E80006420B80039
:1004A000A48B200004004000C4002000301A780013
:1004B000301A78000DC0BF00804A7800974298003B
:1004C0000FC0BF00A042980000C0B300B042980027
:1004D0003E003700E46E80006420B800A48B20004A
:1004E00004004000A4002000301A7800301A780080
:1004F0006030E10035003C00020035006028E1007A
:1005000032003100E46E80006420B800A48B20002B
:1005100084024000E46E80006420B800A48B2000B8
:10052000040040000002780003002000B4197800A5
:10053000B419780004002000800A52000400200052
:10054000812A5A00E46E80006420B800A48B200049
:1005500084024000E46E80006420B800A48B200078
:1005600004004000C4002000301A7800301A7800DF
:100570000DC0BF00804A7800974298000FC0BF00AE
:10058000A042980000C0B300B0429800E46E800022
:100590006420B800A48B200084024000E46E800038
:1005A0006420B800A48B2000040040000002780002
:1005B00003002000B4197800B4197800040020006A
:1005C000800A520004002000812A5A00E46E800054
:1005D0006420B800A48B200084024000E46E8000F8
:1005E0006420B800A48B200004004000C400200058
:1005F000301A7800301A7800843E2000840A4300C4
:10060000E0AA4B00E46E80006420B800A48B2000B8
:1006100004004000A4002000301A7800301A78004E
:100620006030E1001000350003003C00E479200058
:100630000520E1000C003100E46E80006420B80069
:10064000A48B200084024000E0C9B300804A7800F7
:1006500070C0B3009042980000C0B300A042980060
:1006600000C0B300B0429800E46E80006420B8007F
:10067000A48B200004004000A4002000301A780061
:10068000301A78006030E10010003C0003003500B3
:10069000240320000520E1000C003600E46E8000F9
:1006A0006420B800A48B20008402400020C3B30063
:1006B000804A780000C0B3009042980000C0B300A8
:1006C000A042980000C0B300B0429800DC2DEC00BE
:1006D00032FF3700BAC8BF00D6E1B700BBC8BF00C1
:1006E000D7E1B700BEC8BF00D8E1B700BFC8BF00A0
:1006F000D9E1B700C2C8BF00DAE1B700C3C8BF0084
:10070000DBE1B700CA62A900C662A9008460A90043
:10071000A00120000C0009004F1078004F00780065
:100720003200F9003600F9004200F90000400600EE
:1007300000C8B300C1E1B70020C0B300C0E1B700FA
:1007400030C0B300C5E1B70070CEB300C4E1B7005C
:10075000C761EF0010C0B300C6E1B700C961EF0088
:1007600070C7B300C8E1B700CB61EF0020C0B30091
:10077000CAE1B700CD61EF0000C1B300CCE1B70022
:10078000CF61EF00CE61EF00D161EF00D061EF00EB
:10079000F0C3B300D5E1B700F0C0B300D4E1B700B7
:1007A000B1C8BF00D7E1B700B0C8BF00D6E1B700FD
:1007B000B3C8BF00D9E1B700B2C8BF00D8E1B700E5
:1007C000B5C8BF00DBE1B700B4C8BF00DAE1B700CD
:1007D000C160EF0000C7B300C0E0B7000000060032
:1007E000851F7800C500200003000900B51F7800B0
:1007F0000002780081027800020378008303780009
:100800000000EB008000EB000001EB008001EB003A
:100810000800A10007F0A600080037000800A000AB
:100820008783EA000683EA008582EA000402EA0080
:10083000E0824A0060034B00E0834B0085047200B5
:1008400002003A0087047300150032003947200087
:100850000340A7000B0037004200A9000482D20029
:100860008582D2000683D2008783D2000080D20026
:100870008180D2000281D2008381D2008904E90004
:10088000F3FF3A00C44CDD004200A90009F0A100CA
:100890000340A10083816C000800A70003F0A000C2
:1008A0002501200003000900CF127800CF02780054
:1008B00000000600881F78002801200004000900BD
:1008C000B81F78008005EB006066B800030478006C
:1008D00087047800FA7F20004200A9004220A90086
:1008E00044C4DE00080465000800E0007100320026
:1008F0004200A9004220A900C4CCDE0089046500A2
:100900000900E0006B0032000884440009B0A70031
:1009100004003700F83FB10066003200650039007E
:10092000030037001A402000854245006100310075
:10093000878669004200A9004220A900F300B200A6
:100940000340A000F700B2000740A000881F780015
:100950000124B800002DB8000A0544008B854C0026
:100960000C80B0000224B8008B0544000C864C00BB
:10097000012CB8000005EB008B0544000C864C00F0
:100980000A80B0000034B8008B0544000C864C008F
:100990000A80B0008005EB000324B8000C06440078
:1009A0000A854C000B80B000022CB8000C064400F5
:1009B0000A854C000B80B0000134B8000C064400DE
:1009C0000A854C000B80B000003CB8000C064400C7
:1009D0000A854C000B80B0000C0078000006EB008C
:1009E000032CB8000A0544008B854C000C80B00035
:1009F0000234B8000A0544008B854C000C80B0001E
:100A00000334B8008B0544000C864C00013CB80050
:100A10000A0544008B854C000C80B000023CB800F5
:100A20008B0544000C864C00033CB8000C064400C7
:100A30008A0078000B0178008C01780054002000B7
:100A40004200A9008381D3000281D3008180D300BA
:100A50000080D3000402E900F9FF3A004F04780057
:100A60000804E800010370000100320002003700B2
:100A700003037100080032000340A700060037009E
:100A80004200A9000080D2008180D2000281D20001
:100A90008381D2000804E9004444DD0003F0A10092
:100AA0000DF0A70003F0A0000340A10083016C003B
:100AB000030037006000B8006001B8000000370094
:100AC000A8012000040009004F1478004F047800AA
:100AD00000000600881F780028012000040009009B
:100AE000B81F7800878669000304780087047800BF
:100AF000FA7F20004200A9004220A90044C4DE0081
:100B0000080465000800E0006C0032004200A90003
:100B10004220A900C4CCDE00890465000900E00081
:100B2000660032000005EB0009065400030039009E
:100B3000FC3FB00061003100040037001B40200082
:100B40000B0656005D0039005C0032000004EB002B
:100B50008004EB000005EB008005EB00F301B20020
:100B60000340A000F701B2000740A0008C1F7800EE
:100B70006C032000040050008580580006015900D5
:100B800087815900020033000600310006003A0058
:100B90000400400085804800060149008781490023
:100BA000010037000800A0000C06E9000B0032002D
:100BB0004200A9000080D2008180D2000281D200D0
:100BC0008381D2004200A9000884D2008984D20027
:100BD0000A85D2008B85D200E6FF37004F067800E9
:100BE0000B50A70001003700060037004200A900A3
:100BF0008B85D3000A85D3008984D3000884D30071
:100C0000030037000C06E9004200A9002B00320067
:100C10004200AF00090037000080D2008180D2007E
:100C20000281D2008381D2000402500085825800E4
:100C30000603590087835900150039000804E800AD
:100C400013003A008904E80011003A000A05E800A0
:100C50000F003A008B05E8000D003A000C06E80092
:100C6000160032000A0037000C06E90013003200BB
:100C70000B40A700060037004200A9000884D200FC
:100C80008984D2000A85D2008B85D200F8FF370014
:100C90004466DD004200A9000CF0A1000DF0A700A1
:100CA0000CF0A0000B40A1008B016E000A0178003F
:100CB0008900780008007800050037000000200057
:100CC0000100200002002000030020000000370087
:100CD000A8012000040009004F1478004F04780098
:100CE00000000600881F7800280120000400090089
:100CF000B81F7800080028004300AF0087036C008D
:100D00000000E00007003A000100E00005003A00A2
:100D10000200E00003003A00FAFF27000A856100A4
:100D20004220AE00030578008A856B00030478003A
:100D30008704780007067800FD7F20004220A90084
:100D40004200A90044C4DE00088466000800E000F8
:100D5000BC0032004220A9004200A900C4CCDE0041
:100D6000898466000900E000BE0032008006EB00C6
:100D70004220A9004200A9000848E100BA00320060
:100D8000C10033000D00A1000D10A0000884540024
:100D9000F300B2000340A000F700B2000740A0003B
:100DA0004803B10016003B004803B0004220A900F0
:100DB0004200A9008381D3000281D3008180D30047
:100DC0000080D3000804E900F8FF3A00140037005F
:100DD0004803B1000F003B004803B0004220A900C7
:100DE0004200A9008783D3000683D3008582D30005
:100DF0000482D3000804E900F8FF3A001B00370022
:100E000004007800850078000601780087017800EA
:100E10000C866D000CF0A7000BF0A20079003700E3
:100E20000BF0A6001F0037000D40A7008C057800CE
:100E30000080EA008180EA000281EA0083C1EA00C2
:100E4000F341B2000000E80005003A008100E8002C
:100E500003003A000201E80001003A008341E80083
:100E60000D40A700320037000E0037000BF0A6003F
:100E70000C0037000482EA008582EA000683EA005B
:100E800087C3EA00F741B2000402E80005003A0017
:100E90008502E80003003A000603E80001003A007A
:100EA0008743E8004220A9004200A9000400400056
:100EB000858048000601490087C149000350A7000A
:100EC0000D30A0000D00A700090037000D10A7008D
:100ED000010037000B0037000BF0A70014003700AB
:100EE0000D30A700290037000D60A0002100370059
:100EF0000BF0A7000E0037000D30A70023003700CD
:100F00001C0037000BF0A700040037008A057800AA
:100F10000D30A7001D0037003A0037000D40A0003B
:100F200003C1B2000340A700BFFF37008A05780065
:100F3000F301B2000284710002003A0000847000E4
:100F40000C0032000340A7000A0037004220A9002D
:100F50004200A9000080D2008180D2000281D2002C
:100F60008381D2008904E9004220AF0032003700BB
:100F7000F4FF37000D00A7008A0578000D10A700C8
:100F80008C0578000D50A6001E0037004200A90015
:100F900083C1D3000281D3008180D3000080D300BD
:100FA0004200AF000D50A0008904E8004220AF00CD
:100FB000210037000D50A6000E0037000000E800A9
:100FC0000C003A008100E8000A003A000201E80043
:100FD00008003A008301E80006003A0083C1D3000C
:100FE0000281D3008180D3000080D3008904E8000F
:100FF000110032000D00A7008A0578000D10A7002F
:101000008C0578000102700002003A0003027100B2
:10101000260032000340A1004220A9004200A9009E
:10102000C44CDD0083816C0003F0A0000BF0A6002F
:1010300003F0A1001D0037006000B8006011B80087
:101040001A003700080028000AF0A70087036C0088
:101050008500780004007800060178008701780098
:101060001200370011003700F700B2000740A0005F
:10107000F300B2000340A0000BF0A7000740A1005E
:101080000D20A00079FF3700F300B2000340A0005C
:10109000F700B2000740A00009045400890444008E
:1010A0000D10A1000D00A00049FF3700A80120008D
:1010B000040009004F1478004F0478000000060077
:1010C000881F7800891F78008A1F7800878469004C
:1010D00009F0A600060037004200A9004220A9003E
:1010E00003F0A600340037004200A80032003700A9
:1010F000FA7F2000030478008704780044C4DE00EF
:1011000008046500C4CCDE0089046500088554002D
:101110000500320003F0A600270037001000200071
:1011200042E0B6002400370003047800870478000A
:10113000F301B200F701B2000340A1000740A10093
:1011400003C553000500320008F0A6001A0037005E
:101150001000200042E0B6001700370002055300DF
:101160000500320008F0A600130037001000200030
:1011700042E0B60010003700018552000500320041
:1011800008F0A6000C0037001000200042E0B60076
:1011900009003700000552000500320008F0A600E3
:1011A000050037001000200042E0B60002003700C2
:1011B0004200A900000037004F057800CF047800F6
:1011C0004F04780000000600851F7800C50020004D
:1011D00005000900B51F7800030478008203780039
:1011E0000103780080027800830478003B472000E8
:1011F000C499DE00FA7F20008301650083855500D5
:10120000F801B2000840A0000000EB008000EB00F5
:101210000001EB008001EB004200A9000884D3002C
:101220008783D3000683D3008582D3008381D300D4
:101230000281D3008180D3000080D3008B05E900B8
:10124000F5FF3A0009F0A600090037000080EA0027
:101250008180EA000281EA008381EA000000E80060
:101260000180B0000280B0000380B00000003700B1
:101270006501200005000900CF127800CF02780038
:1012800000000600851F7800861F7800871F780001
:10129000881F7800442DEF00462DEF00482DEF0009
:1012A00004FF2300546A8800F4F12F00A46A880028
:1012B00056ADEF0058ADEF00F4FD2B00D46A880066
:1012C00054C32100E46A880054552500F46A88005C
:1012D00054552500046B880054FA2300146B8800D1
:1012E000C4F12300246B8800746A2100346B8800E9
:1012F000C4162C00446B880064F52B00546B8800E6
:10130000643E2F00646B880054D62000746B880004
:10131000041A2000846B8800A4EF2300946B8800DB
:10132000E4A32000A46B880014932300B46B88000E
:10133000C4E42700C46B880024E92B00D46B880028
:10134000B4DF2D00E46B880074B72200F46B8800D2
:1013500014DB2E00046C880014E22300146C880057
:10136000C4FC2600246C880074FF2800346C8800BC
:1013700004612C00446C880084DA2B00546C8800D3
:10138000C4242100646C8800C4E12800746C8800C7
:1013900094AF2300846C880034CF2300946C8800C1
:1013A00064672700A46C8800F4502300B46C8800A4
:1013B000E40D2C00C46C880004CF2300D46C88009A
:1013C0002A8DBF0061698000726980008369800096
:1013D0000400200005002000060020000700200077
:1013E000600802000000000005003900A0D22000C3
:1013F000A1D2200007000900B018780031EDAA0042
:101400002A8DBF0061698000726980008369800055
:1014100044882C0095DC260006F3250047FE2300B7
:101420005A04020000000000E4080200000000006E
:1014300032EDB7002A8DBF006169800072698000BB
:101440008369800044882C0095DC260006F3250083
:1014500047FE23005A0402000000000080027800CA
:101460000103780082037800030478000100200063
:10147000020020000300200032CDBF000160EF0019
:10148000F0030200000000004300A800851F780060
:10149000861F7800871F780000027800050078001A
:1014A0008102780086007800020378000701780046
:1014B00083037800880178007206020000000000B3
:1014C000CF0378004F037800CF0278004CADB7000F
:1014D000716A8800826A8800936A880032CDBF00F2
:1014E0006340600032EDB700324DE200030032008D
:1014F000946980006224E1000F003A004C8DBF0027
:10150000716A8000826A8000936A800084D1220020
:1015100045442500B61F220097FF23005A0402000D
:10152000000000003CADB700F1698800026A880045
:10153000136A88004A003700946980006124E10042
:1015400024003A004300A800000020000100200011
:101550000200200003FF2300646A8000756A800097
:10156000866A8000976A8000720602000000000010
:101570008002780001037800820378000304780079
:10158000851F7800861F7800871F78000500780087
:1015900086007800070178008801780084D1220055
:1015A00045442500B61F220097FF23005A0402007D
:1015B00000000000CF0378004F037800CF027800CE
:1015C0003CADB700F1698800026A8800136A8800A0
:1015D000230037004300A8004C8DBF00716A8000D3
:1015E000826A8000936A80000400200005002000C9
:1015F0000600200007FF2300720602000000000022
:1016000080027800010378008203780003047800E8
:10161000851F7800861F7800871F780005007800F6
:1016200086007800070178008801780084D12200C4
:1016300045442500B61F220097FF23005A040200EC
:1016400000000000CF0378004F037800CF0278003D
:101650003CADB700F1698800026A8800136A88000F
:10166000342DEF00362DEF00382DEF0004FF23005E
:10167000D46988003C8DBF00F1698000026A800057
:10168000136A8000E4698000F5698000066A8000C2
:10169000176A80005A040200000000003CADB70049
:1016A000F1698800026A8800136A8800336DEF00D0
:1016B000946980004822DE006824E10031003E0089
:1016C000448DBF00316A8000426A8000536A800006
:1016D000E4698000F5698000066A8000176A80006E
:1016E0005A0402000000000044ADB700316A8800CF
:1016F000426A8800536A880033CDBF000160EF0062
:101700004300DD0044D52000040040008002780042
:10171000851F780015007800D50078005501780005
:10172000D5017800246A8000356A8000466A80000E
:10173000576A80005A04020000000000CF027800BF
:101740004300A900000278008102780002037800BB
:1017500083037800348DBF00B1698000C2698000C6
:10176000D3698000720602000000000034ADB700AB
:10177000B1698800C2698800D3698800336DEC00C4
:10178000CBFF3700946980006224E100030032003F
:10179000946980006124E10005003A0040D32000F4
:1017A00041D3200007000900B01878003BEDAA00E3
:1017B000348DBF00B1698000C2698000D3698000A8
:1017C0004F047800CF0378004F037800CF027800F1
:1017D00000000600851F7800861F7800871F7800AC
:1017E000881F78004300A8001A8DBF00E1688000C0
:1017F000F26880000369800084D1220045442500FE
:10180000B61F220097FF23007206020000000000AE
:1018100080027800010378008203780003047800D6
:10182000556988006669880077698800886988003A
:1018300042090200000000004F047800CF03780046
:101840004F037800CF02780000000600851F780063
:10185000C500200005000900B51F780003047800CA
:101860008203780001037800800278008304780006
:101870003B472000C499DE00FA7F20008301650009
:1018800083855500F801B2000840A0000000EB007D
:101890008000EB000001EB008001EB004200A9009A
:1018A0000884D3008783D3000683D3008582D300C6
:1018B0008381D3000281D3008180D3000080D300D4
:1018C0008B05E900F5FF3A0009F0A6000900370092
:1018D0000080EA008180EA000281EA008381EA0058
:1018E0000000E8000180B0000280B0000380B0007A
:1018F000000037006501200005000900CF127800C4
:10190000CF02780000000600851F7800861F78004F
:10191000871F7800881F78000229EF001448800094
:101920007E20E100570031000289BF000100200045
:101930000200200003002000F0030200000000006D
:1019400004002000050020000600200007002400FD
:101950005A040200000000008002780001037800B1
:101960008203780003047800851F7800861F7800C2
:10197000871F78000500780086007800070178004E
:101980008801780084D1220045442500B61F22003A
:10199000970024005A04020000000000CF037800E2
:1019A0004F037800CF0278008002780001037800AE
:1019B0008203780003047800851F7800861F780072
:1019C000871F7800050078008600780007017800FE
:1019D0008801780004002000050020000600200097
:1019E000E70324006A05020000000000CF0378002E
:1019F0004F037800CF0278000AA9B7006148880039
:101A000072488800834888000289BF004100DD00D9
:101A1000648C2000840240000A09F8001A0DF900C5
:101A20000C09F8001C0DF9000E09F8001E0DF90054
:101A30001009F800200DF900EA0B02000000000078
:101A4000851F780000027800810278000203780088
:101A500083037800000020000100200002002E0017
:101A6000F30624005A04020000000000CF027800B0
:101A7000260C020000000000800A78000229EC0019
:101A8000A6FF37004F047800CF0378004F0378009B
:101A9000CF02780000000600851F7800C5002000F6
:101AA00003000900B51F7800000278008102780069
:101AB00002037800830378000000EB008000EB0055
:101AC0000001EB008001EB000800A10007F0A60078
:101AD000080037000800A0008783EA000683EA00B8
:101AE0008582EA000402EA00E0824A0060034B00BB
:101AF000E0834B008504720002003A008704730003
:101B000015003200394720000340A7000B003700C2
:101B10004200A9000482D2008582D2000683D2004E
:101B20008783D2000080D2008180D2000281D2005F
:101B30008381D2008904E900F3FF3A00C44CDD0040
:101B40004200A90009F0A1000340A10083816C00BC
:101B50000800A70003F0A0002501200003000900F1
:101B6000CF127800CF02780000000600851F7800B1
:101B7000861F7800871F7800881F7800162DEF00D9
:101B8000182DEF001A2DEF001C2DEF00140020007F
:101B9000F4688800F4688000A30F20000418E100B6
:101BA000530035001E8DBF008001EB0000F0A70040
:101BB0008081EB0083007800030178004C0D020067
:101BC0000000000000027800810278000203780023
:101BD00083037800000020000100200002002000A4
:101BE00003FF23006A050200000000008002780065
:101BF000010378008203780003047800851F7800D1
:101C0000861F7800871F780005007800860078001E
:101C100007017800880178000400200005002000FA
:101C200006002400F70824005A0402000000000007
:101C3000CF0378004F037800CF027800800278004D
:101C4000010378008203780003047800851F780080
:101C5000861F7800871F78000500780086007800CE
:101C600007017800880178000400200005002000AA
:101C700006002000E70324006A05020000000000BF
:101C8000CF0378004F037800CF02780016ADB7007D
:101C9000C1688800D2688800E3688800F468800022
:101CA0006220B8002491200084024000851F780043
:101CB000168DBF00C1688000D2688000E368800094
:101CC000F4332900D53F2F004603260007F82300F0
:101CD0006A05020000000000CF027800E40802005C
:101CE00000000000800A78001E2DEC00A9FF3700DC
:101CF0001409F8001209F9004F047800CF037800A6
:101D00004F037800CF02780000000600851F78009E
:101D1000861F7800871F7800881F7800162DEF0037
:101D2000B46880006520E10009003C00B4688000D0
:101D30006220B80084B0200084024000804AEB009A
:101D400000C0B30090429800162DEC00F4FF37005D
:101D500064002000C4688800C4688000830C2000F0
:101D60000418E10038003500188DBF008001EB0039
:101D700000F0A7008081EB00830078000301780069
:101D80004C0D020000000000000278008102780083
:101D90000203780083037800A09929009199290013
:101DA00092992900530124005A0402000000000007
:101DB0008002780001037800820378000304780031
:101DC0004300A900851F7800861F7800871F7800D0
:101DD0000500780086007800070178008801780007
:101DE000040020000500200006002B00D708240076
:101DF0007206020000000000CF0378004F03780055
:101E0000CF027800E4080200000000000EADB70029
:101E100074688000633B20000418E1000200310078
:101E2000643B200074688800C46880006220B800A9
:101E300084B020008402400074688000840298000E
:101E4000182DEC00C4FF3700940C2000D4688800E3
:101E5000D4688000F30F20000418E1000A00350068
:101E6000D46880006220B80084B020008402400062
:101E700060CBB300804A780030C0B3009042980035
:101E80001A2DEC00F2FF37004F047800CF037800E2
:101E90004F037800CF027800000006000FF8200002
:101EA000F0FF200020A0B700000000004044240004
:101EB000A0048800404424003005880081E0A80088
:101EC000B628EF00B828EF00082DEF000A2DEF002C
:101ED00014002000646888000E2DEF00100DA9008A
:101EE000116DEF00122DEF00142DEF00A8A2EF00EE
:101EF0004F003700C0060800000000004BF03F0014
:101F00005C0A5800F63B8F0000C03C008B28AC00F8
:101F10003CBEF6003FD2D50044168C0015D7BF005A
:101F200069005A002E1B8700993F9A005FAD4B0055
:101F300091E40100C05D11002F92E40081FB3F009D
:101F400038DA9100809DC500E0BF6F0012C0B40078
:101F5000C309AB003F6BC100034EC100B545BF00D4
:101F6000F7400500FF006000EF3FF300A3E2F70039
:101F7000D7FF010040C0B400FF053C0058FC3F0003
:101F80003BD3C000B5BA8C00E23F3900D3C73D0057
:101F90004179B2003F870D003C50D000AF623F0056
:101FA000304B8D00A282AA0004400900A0404A00E4
:101FB0000576030040EC9E003788A60044F03F0001
:101FC0008F128D00299A5B00C73F0E00E0807C00D5
:101FD000A1D886003F294B00FB95C200371A3F006D
:101FE000E803E80003E80300C00C0800BA00C000E2
:101FF00006090400000000000201E8006110E10091
:1020000004003A009101BA003182BA0006C0BF0054
:10201000000006006210E10002003A0007C0BF00A5
:102020000000060008C0BF000001EB000000060031
:10203000060020000000200090018800A0F720008A
:10204000800078000001EB00FC0F0200000000009F
:102050000BE0B700FC0F0200000000000AE0B70030
:102060000500E0001900320005F0A6000700370067
:10207000FC0F0200000000000DE0B700FC0F0200A2
:10208000000000000CE0B70005F0A10005E0A6008C
:102090000800370005E0A1008502E900FC0F0200FE
:1020A000000000008043780005800900075B78008D
:1020B000E5FF3700FC0F020000000000005B780025
:1020C0008502E900FBFF3A00DFFF37001400200023
:1020D000646888009803020000000000840C02007D
:1020E00000000000B60D020000000000860E020095
:1020F00000000000C6A2A900C642A900C662A9004D
:10210000F4F1210024158800040E2800041588002D
:10211000E4FF2F0044158800A222EF00A622EF0062
:102120009E000900000000000C8DBF004100DD0092
:102130002491200004004000900278000421EF0068
:102140001508880004022800240888008C60A80074
:1021500090E0A80081E0A9004220EF0081E0A80003
:10216000100DAE002F003700A002A900A022A80089
:10217000A002AE00FEFF37008002F800080DF90053
:1021800044688000F33F20000418E10002003100A1
:10219000F43F200044688800082DD500082DD500A4
:1021A000080DF8000A0DF90054688000F30F2000B4
:1021B0000418E10002003D00F40F2000546888007C
:1021C000546880006020E10001003D000A2DEF000E
:1021D00054688000650052000CADB7005468800060
:1021E0006220B80084B0200004004000901F7800F6
:1021F000B808F9000C8DBF004100DD0024912000DB
:1022000004004000900278000421EF0015088800C7
:102210000402280024088800CA42A900C642A90076
:0C222000100DA900CEFF37000040FE00AA
:0200000401F009
:100000000603FF003F00FF009387FF000F31FF0052
:0C0010000F33FF000400FF0003C0FF00DE
:00000001FF
;DSPIC30F4011
;CRC=4429  CREATED="26-Apr-24 17:20"
