:08000000FC14040000000000E4
:04004400E6070000CB
:04004C0008070000A1
:0400C40042070000EF
:100200003220EF006315200083015000040031000C
:1002100023122000008041001000BA0000000600F8
:10022000201220000600A900838141008081410046
:100230003380BA009381BA00C819DD0000807100D4
:1002400000000600000063000000010000006800DC
:100250000000010000006B000000010000006E00C3
:1002600000000100000072000000010000007500A5
:1002700000000100000078000000010000007D0087
:100280000000010000008000000001000000830069
:1002900000000100000087001C00010020008A000F
:1002A0002000010023008D002300010027009200A0
:1002B000270001002A0095002A0001002D00980067
:1002C0002D00010030009B003000010035009F0030
:1002D000350001003800A6003B0001003B00AA00E9
:1002E0003F0001003F00AD00420001004200B000AD
:1002F000450001004500B4004A0001004A00B80072
:100300004D0001004D00BF00500001005000C20030
:10031000540001005400C500570001005700C900F7
:100320005A0001005F00D0005F0001006200D400AD
:10033000620001006500D700650001006900DD0072
:10034000690001006C00E2006C0001006F00E80031
:100350006F0001007400EC00770001007700EF00EF
:100360007A0001007A00F7007D0001007D00FA00AC
:100370008100010081000100840002008800040067
:10038000880002008C000C008C0002008F000F001F
:100390008F000200920016009200020096001C00DE
:1003A0009A0002009A0021009D0002009D00270093
:1003B000A1000200A1002E00A4000200A70032004C
:1003C000A7000200AB003900AB000200AF003F0005
:1003D000AF000200B2004300B6000200B6004A00BF
:1003E000B9000200B9005100BC000200BF00580073
:1003F000BF000200C4005F00C4000200C700660026
:10040000CA000200CA006C00CE000200D1007400D5
:10041000D1000200D4007B00D4000200D90081008A
:10042000DC000200DC008900DF000200E300900035
:10043000E3000200E6009600E9000200E900A100E6
:10044000EE000200F100A800F1000200F400B0008C
:10045000F8000200F800B600FB000200FE00C10038
:10046000FE0002000301C800060102000601D200DE
:10047000090102000C01D900100102001001E30083
:10048000140102001701EB001B0102001B01F50023
:100490001E010200210100002501030025010600C4
:1004A000290103002C0110003001030030011B0062
:1004B00033010300360125003A0103003E013000FC
:1004C0004101030041013B00450103004801450093
:1004D0004B0103004E0150005301030056015A0026
:1004E00056010300590168005D010300600100002E
:1004F0003220EF006315200083015000040031001A
:10050000A3292000008041001000BA00000006006E
:10051000A02920000600A9008381410080814100BC
:100520003380BA009381BA00C819DD0000807100E1
:10053000000006002CFE50002CFE14002CFE2100B2
:100540002CFE14002CFEF2002CFE13002CFEC30027
:100550002CFE13002CFE95002CFE13002CFE6800D0
:100560002CFE13002CFE3B002CFE13002CFE0E0074
:100570002CFE13002CFEE1002CFE12002CFEB50018
:100580002CFE12002CFE890022EF1200C3E15D0058
:10059000CDD5120009CB31004CC1120071B8060054
:1005A0005CB01200F3A8DC0021A21100D69BB100C0
:1005B00002961100989087008E8B1100DA865D00FC
:1005C00073821100537E3300727A1100CC760A00D8
:1005D0005B7311001B70E100086D10001D6AB8000C
:1005E0005A671000B9648F0039621000D75F670046
:1005F000925D1000675B3F00545910005857170078
:1006000072551000A053EF00E1510F003350C800A5
:10061000964E0F00094DA0008B4B0F001B4A79002E
:10062000B8480F006147530017460F00D8442C000C
:10063000A3430F007942060058410F004040E000FC
:10064000313F0E002B3EBA002C3D0E00353C94008D
:10065000453B0E005C3A6F007A390E009E384A0026
:10066000C8370E00F83625002D360E00683500001C
:10067000A8340E00EC33DB0036330D008432B700B3
:10068000D6310D002D31930087300D00E62F6F001D
:10069000482F0D00AE2E4B00172E0D00842D280084
:1006A000F42C0D00672C0400DD2B0D00562BE1000F
:1006B000D22A0C00502ABE00D1290C0055299B00DB
:1006C000DB280C0064287900EF270C007C275600FB
:1006D0000B270C009C26340030260C00C525120088
:1006E0005C250C00F524F00090240B002D24CF0095
:1006F000CB230B006B23AD000D230B00B0228C002D
:1007000055220B00FB216B00A3210B004B214A005B
:10071000F6200B00A1202A004E200B00FC1F090030
:10072000AC1F0B005C1FE9000E1F0A00C11EC900B0
:10073000741E0A00291EA900DF1D0A00961D8900EB
:100740004E1D0A00071D6A00C11C0A007B1C4A00DE
:10075000371C0A00F31B2B00B11B0A006F1B0C0097
:100760002E1B0A00ED1AEE00AE1A09006F1ACF0018
:10077000311A0900F319B100B61909007A1993006A
:100780003F19090004197500CA180900911857008B
:10079000581809001F183900E8170900B0171C0085
:1007A0007A1709004317FF000E170800D916E20058
:1007B000A41608007016C5003C1608000916A9000A
:1007C000D6150800A4158C0072150800411570009C
:1007D00010150800DF145400AF1408007F14000047
:1007E0003220EF0063152000830150000400310027
:1007F00023412000008041001000BA0000000600E4
:10080000204120000600A900838141008081410031
:100810003380BA009381BA00C819DD0000807100EE
:10082000000006000000CD00000000000000CF0026
:10083000000000000000D200000000000000D40012
:10084000000000000000D700000000000000DA00F7
:10085000000000000000DC00000000000000DF00DD
:10086000000000000000E200000000000000E400C2
:10087000000000005500E500550000005500E700AD
:10088000560000005600E900560000005600EA003D
:10089000570000005700EC00570000005700EE0022
:1008A000580000005800EF00580000005800F10008
:1008B000590000005900F300590000005A00F500EB
:1008C0005A0000005A00F7005B0000005B00F900CE
:1008D0005B0000005B00FB005C0000005C00FD00B2
:1008E0005C0000005D00FF005D0000005D00010095
:1008F0005E0001005E0003005F0001005F00060073
:100900005F0001005F0008006000010060000A0055
:100910006100010061000D006200010062000F0033
:100920006200010063001200630001006400150012
:1009300064000100640017006500010065001A00F2
:100940006600010066001D006700010067002000CE
:1009500068000100680023006900010069002600AA
:100960006A0001006A0029006B0001006B002C0086
:100970006C0001006C0030006D0001006E0033005F
:100980006E0001006F0037006F00010070003A0038
:100990007100010071003E0072000100720042000F
:1009A00073000100740046007400010075004A00E5
:1009B0007600010076004E007700010078005300B9
:1009C00079000100790057007A0001007B005C008B
:1009D0007C0001007C0061007D0001007E0066005B
:1009E0007F00010080006B0080000100810070002A
:1009F00082000100830076008400010085007C00F5
:100A000086000100870082008800010089008800BC
:100A10008A0001008B008F008C0001008C00960082
:100A20008D0001008F009D00900001009000A50046
:100A3000920001009300AC00940001009500B50005
:100A4000960001009700BD00990001009A00C600C1
:100A50009B0001009D00CF009E000100A000D90076
:100A6000A1000100A300E300A4000100A500EE0026
:100A7000A6000100A700FA00A8000100AA000600D5
:100A8000AB000200AC001300AE000200AF0020007B
:100A9000B0000200B2002000B3000200B500200048
:100AA000B6000200B8002000BA000200BB0020001F
:100AB000BD000200BF002000C1000200C3002000F2
:100AC000C5000200C7002000C9000200CB000000E2
:100AD0003220EF0063152000830150000400310034
:100AE000A3582000008041001000BA00000006005A
:100AF000A05820000600A9008381410080814100A8
:100B00003380BA009381BA00C819DD0000807100FB
:100B10000000060000003D00000001000000400051
:100B2000000001000000430000000100000046003A
:100B300000000100000049000000010000004C001E
:100B40000000010000004F00000001000000530001
:100B500000000100000056000000010000005900E4
:100B60000000010000005C00190001001C005F0093
:100B70001C0001001F0062001F000100220066002F
:100B800022000100250069002500010028006C00FA
:100B9000280001002B006F002B0001002F007100C6
:100BA0002F000100320078003500010035007B0085
:100BB0003800010038007E003B0001003B0081004E
:100BC0003E0001003E008400420001004200880017
:100BD0004500010045008E004800010048009100DA
:100BE0004A0001004A0094004D0001004D009700AA
:100BF0005000010054009E00540001005700A10065
:100C0000570001005A00A3005A0001005D00A9002E
:100C10005D0001006000AD00600001006300B300F2
:100C2000630001006700B6006A0001006A00B900B5
:100C30006D0001006D00C000700001007000C30075
:100C4000730001007300C900760001007A00CC0037
:100C50007A0001007C00D2007C0001007F00D500FA
:100C60007F0001008200DB00820001008500E100BE
:100C7000890001008900E5008C0001008C00EB0078
:100C80008F0001008F00F100920001009500F50037
:100C9000950001009800FB00980001009C000100F5
:100CA0009C0002009F000300A2000200A2000A00B4
:100CB000A5000200A5001000A8000200AB0016006D
:100CC000AB000200AE001D00AE000200B100230028
:100CD000B4000200B4002900B7000200BA003000DE
:100CE000BA000200BD003500BD000200C1003B009B
:100CF000C4000200C4004200C7000200CA0048004D
:100D0000CA000200CD004E00D0000200D000580002
:100D1000D4000200D7005E00D7000200DA006500B0
:100D2000DD000200DD006A00DF000200E200740066
:100D3000E2000200E6007A00E9000200E900830018
:100D4000EC000200EF008A00F2000200F2009300C3
:100D5000F6000200F9009900FC000200FC00A2006D
:100D6000FF0002000201AC00050102000501B20013
:100D7000090102000C01BB000E0102000E01C500BA
:100D8000110102001401CD00170102001B01D70060
:100D90001E0102001E01E100210102002401EA00FF
:100DA000270102002A01F4002E0102003101FC009B
:100DB0003101020034010900370103003A0100004B
:100DC0003220EF00C36E2000008041001040BA00C6
:100DD0000160EF00000006000A4D00006F74000083
:100DE0006F720000204300006F6E000074720000FC
:100DF0006F6C0000205500006E6900007420000038
:100E0000763000002E3100000D0A000000000000C6
:100E10004200F8003600F8003200F800801F780029
:100E2000200020000C000900B01F78000080200086
:100E300024438000840040001282BF008520A90066
:100E4000805878006428EC0034062000234380009A
:100E500003005200010031006428EF000E02AF00D1
:100E6000F5FF3700A00120000C0009004F107800AA
:100E70004F0078003200F9003600F9004200F90016
:100E8000004006004200F8003600F8003200F8008A
:100E9000801F7800200020000C000900B01F78009F
:100EA0009769EC00B44C80004822DE006824E10021
:100EB000080035009C29EC004220AF009E29EC0080
:100EC000A029EC004220AF00A229EC009629A8003E
:100ED0009769EF00144D80006020E10006003900A2
:100EE00003003E00044D80006A20E100020039004A
:100EF000A029EF00A229EF00F44C80006020E1005F
:100F00000800390004003E00E44C80004306200045
:100F10000418E10003003E009649A8009C29EF0058
:100F20009E29EF0088E0A900A00120000C00090024
:100F30004F1078004F0078003200F9003600F900B9
:100F40004200F90000400600851F7800C50020001F
:100F500003000900B51F78000202B80003F0A600E4
:100F6000020037000383B900010037000303B80013
:100F70004200A9008502430060844B0001F0A600F6
:100F800002003700028BB90001003700020BB800E5
:100F900085024B0008844B000980B000038BB90028
:100FA00008044B0087834C00870178000801780013
:100FB0008500780004007800250120000300090066
:100FC000CF127800CF027800000006004200F8003F
:100FD0003600F8003200F800801F78002000200062
:100FE0000C000900B01F780024498000E102420093
:100FF000E4012000110009008482D8002149880002
:101000002409F8007209F90024498000EA0242002C
:10101000E4012000110009008482D800A14B88005F
:1010200024498000F4024200E4012000110009007C
:101030008482D800B14B8800DC2AEF00E45680009F
:101040006320E100CB003D00E45680006420B8003E
:101050008492200084024000E45680006220B800A0
:101060002497200004004000100378004130DD0088
:10107000449320000400400000027800140078002F
:101080008000EB0000F0A7008080EB00040020004F
:10109000B41A7800B41A7800E45680006420B800CE
:1010A0008492200084024000E45680006420B8004E
:1010B0008492200004004000C4002000301A780010
:1010C000301A78002689BF008000EB0000F0A700EE
:1010D0008080EB0000017800810178000600780034
:1010E00087007800A4070200000000000400200030
:1010F000B41A7800B41A7800E45680006420B8006E
:101100008492200004004000A4002000301A7800DF
:10111000301A78006030E1001600350002003C0013
:101120006028E10013003600E45680006420B80017
:101130008492200084024000E45680006420B800BD
:101140008492200004004000C4002000301A78007F
:10115000301A78000DC0BF00804A7800974298008E
:101160000FC0BF00A042980000C0B300B04298007A
:101170003E003700E45680006420B80084922000CE
:1011800004004000A4002000301A7800301A7800D3
:101190006030E10035003C00020035006028E100CD
:1011A00032003100E45680006420B80084922000B0
:1011B00084024000E45680006420B800849220003D
:1011C000040040000002780003002000B4197800F9
:1011D000B419780004002000800A520004002000A6
:1011E000812A5A00E45680006420B80084922000CE
:1011F00084024000E45680006420B80084922000FD
:1012000004004000C4002000301A7800301A780032
:101210000DC0BF00804A7800974298000FC0BF0001
:10122000A042980000C0B300B0429800E45680008D
:101230006420B8008492200084024000E4568000BC
:101240006420B8008492200004004000000278006E
:1012500003002000B4197800B419780004002000BD
:10126000800A520004002000812A5A00E4568000BF
:101270006420B8008492200084024000E45680007C
:101280006420B8008492200004004000C4002000C4
:10129000301A7800301A7800843E2000840A430017
:1012A000E0AA4B00E45680006420B800849220003D
:1012B00004004000A4002000301A7800301A7800A2
:1012C0006030E1001000350003003C00E4792000AC
:1012D0000520E1000C003100E45680006420B800D5
:1012E0008492200084024000E0C9B300804A780064
:1012F00070C0B3009042980000C0B300A0429800B4
:1013000000C0B300B0429800E45680006420B800EA
:101310008492200004004000A4002000301A7800CD
:10132000301A78006030E10010003C000300350006
:10133000240320000520E1000C003600E456800064
:101340006420B800849220008402400020C3B300CF
:10135000804A780000C0B3009042980000C0B300FB
:10136000A042980000C0B300B0429800DC2AEC0014
:1013700032FF370028C9BF00D6E1B70029C9BF0036
:10138000D7E1B7002CC9BF00D8E1B7002DC9BF0015
:10139000D9E1B70030C9BF00DAE1B70031C9BF00F9
:1013A000DBE1B7008489BF004100DD007802020064
:1013B00000000000800278001021EF00650888001E
:1013C000760888008400280084088800CA62A90082
:1013D000C662A90084E0A900A00120000C00090059
:1013E0004F1078004F0078003200F9003600F90005
:1013F0004200F90000400600811F7800A1508000E3
:10140000805878008048EB00CF007800142AEC0068
:101410000000060000C8B300C1E1B70020C0B3005F
:10142000C0E1B70030C0B300C5E1B70070CEB30073
:10143000C4E1B700C761EF0010C0B300C6E1B70058
:10144000C961EF0070C7B300C8E1B700CB61EF001E
:1014500020C0B300CAE1B700CD61EF0000C1B30006
:10146000CCE1B700CF61EF00CE61EF00D161EF00BA
:10147000D061EF00F0C3B300D5E1B700F0C0B30016
:10148000D4E1B7001FC9BF00D7E1B7001EC9BF0034
:10149000D6E1B70021C9BF00D9E1B70020C9BF001C
:1014A000D8E1B70023C9BF00DBE1B70022C9BF0004
:1014B000DAE1B700C160EF0000C7B300C0E0B700D9
:1014C00000000600851F7800C50020000300090009
:1014D000B51F7800000278008102780002037800CE
:1014E000830378000000EB008000EB000001EB00BC
:1014F0008001EB000800A10007F0A60008003700FB
:101500000800A0008783EA000683EA008582EA00DB
:101510000402EA00E0824A0060034B00E0834B00D3
:101520008504720002003A0087047300150032003F
:10153000394720000340A7000B0037004200A900F4
:101540000482D2008582D2000683D2008783D20033
:101550000080D2008180D2000281D2008381D2003B
:101560008904E900F3FF3A00C44CDD004200A90001
:1015700009F0A1000340A10083816C000800A700CE
:1015800003F0A0002501200003000900CF1278001D
:10159000CF02780000000600881F78002801200094
:1015A00004000900B81F78008005EB006066B800F1
:1015B0000304780087047800FA7F20004200A90025
:1015C0004220A90044C4DE00080465000800E000D1
:1015D000710032004200A9004220A900C4CCDE0004
:1015E000890465000900E0006B00320008844400B3
:1015F00009B0A70004003700F83FB10066003200D0
:1016000065003900030037001A402000854245007C
:1016100061003100878669004200A9004220A900CC
:10162000F300B2000340A000F700B2000740A000A2
:10163000881F78000124B800002DB8000A05440076
:101640008B854C000C80B0000224B8008B05440050
:101650000C864C00012CB8000005EB008B05440003
:101660000C864C000A80B0000034B8008B054400A2
:101670000C864C000A80B0008005EB000324B80003
:101680000C0644000A854C000B80B000022CB80008
:101690000C0644000A854C000B80B0000134B800F1
:1016A0000C0644000A854C000B80B000003CB800DA
:1016B0000C0644000A854C000B80B0000C0078003A
:1016C0000006EB00032CB8000A0544008B854C0093
:1016D0000C80B0000234B8000A0544008B854C0031
:1016E0000C80B0000334B8008B0544000C864C001D
:1016F000013CB8000A0544008B854C000C80B0000A
:10170000023CB8008B0544000C864C00033CB8003A
:101710000C0644008A0078000B0178008C017800E8
:10172000540020004200A9008381D3000281D3002D
:101730008180D3000080D3000402E900F9FF3A0061
:101740004F0478000804E800010370000100320033
:101750000200370003037100080032000340A700B5
:10176000060037004200A9000080D2008180D2002C
:101770000281D2008381D2000804E9004444DD00E4
:1017800003F0A1000DF0A70003F0A0000340A100AA
:1017900083016C00030037006000B8006001B800EE
:1017A00000003700A8012000040009004F14780051
:1017B0004F04780000000600881F780028012000F0
:1017C00004000900B81F78008786690003047800C8
:1017D00087047800FA7F20004200A9004220A90077
:1017E00044C4DE00080465000800E0006C0032001C
:1017F0004200A9004220A900C4CCDE008904650093
:101800000900E000660032000005EB000906540004
:1018100003003900FC3FB0006100310004003700D4
:101820001B4020000B0656005D0039005C003200B2
:101830000004EB008004EB000005EB008005EB00EA
:10184000F301B2000340A000F701B2000740A0007E
:101850008C1F78006C032000040050008580580025
:10186000060159008781590002003300060031004B
:1018700006003A0004004000858048000601490047
:1018800087814900010037000800A0000C06E9002C
:101890000B0032004200A9000080D2008180D200FB
:1018A0000281D2008381D2004200A9000884D200C4
:1018B0008984D2000A85D2008B85D200E6FF3700EA
:1018C0004F0678000B50A7000100370006003700D4
:1018D0004200A9008B85D3000A85D3008984D300F8
:1018E0000884D300030037000C06E9004200A90079
:1018F0002B0032004200AF00090037000080D20008
:101900008180D2000281D2008381D2000402500083
:101910008582580006035900878359001500390055
:101920000804E80013003A008904E80011003A00B6
:101930000A05E8000F003A008B05E8000D003A00A8
:101940000C06E800160032000A0037000C06E90019
:10195000130032000B40A700060037004200A90028
:101960000884D2008984D2000A85D2008B85D200F7
:10197000F8FF37004466DD004200A9000CF0A1002A
:101980000DF0A7000CF0A0000B40A1008B016E0031
:101990000A01780089007800080078000500370007
:1019A00000002000010020000200200003002000B1
:1019B00000003700A8012000040009004F1478003F
:1019C0004F04780000000600881F780028012000DE
:1019D00004000900B81F7800080028004300AF0089
:1019E00087036C000000E00007003A000100E000FF
:1019F00005003A000200E00003003A00FAFF270069
:101A00000A8561004220AE00030578008A856B00DC
:101A1000030478008704780007067800FD7F200023
:101A20004220A9004200A90044C4DE0008846600E8
:101A30000800E000BC0032004220A9004200A900DA
:101A4000C4CCDE00898466000900E000BE003200DC
:101A50008006EB004220A9004200A9000848E100EE
:101A6000BA003200C10033000D00A1000D10A0002B
:101A700008845400F300B2000340A000F700B20055
:101A80000740A0004803B10016003B004803B00027
:101A90004220A9004200A9008381D3000281D30023
:101AA0008180D3000080D3000804E900F8FF3A00E9
:101AB000140037004803B1000F003B004803B0009A
:101AC0004220A9004200A9008783D3000683D300E7
:101AD0008582D3000482D3000804E900F8FF3A00AD
:101AE0001B003700040078008500780006017800AC
:101AF000870178000C866D000CF0A7000BF0A200A7
:101B0000790037000BF0A6001F0037000D40A7003A
:101B10008C0578000080EA008180EA000281EA00FA
:101B200083C1EA00F341B2000000E80005003A007A
:101B30008100E80003003A000201E80001003A00D9
:101B40008341E8000D40A700320037000E00370047
:101B50000BF0A6000C0037000482EA008582EA0040
:101B60000683EA0087C3EA00F741B2000402E800F6
:101B700005003A008502E80003003A000603E80089
:101B800001003A008743E8004220A9004200A90072
:101B900004004000858048000601490087C14900D3
:101BA0000350A7000D30A0000D00A700090037006A
:101BB0000D10A700010037000B0037000BF0A70045
:101BC000140037000D30A700290037000D60A00079
:101BD000210037000BF0A7000E0037000D30A700E2
:101BE000230037001C0037000BF0A700040037006B
:101BF0008A0578000D30A7001D0037003A00370035
:101C00000D40A00003C1B2000340A700BFFF370092
:101C10008A057800F301B2000284710002003A00E4
:101C2000008470000C0032000340A7000A00370057
:101C30004220A9004200A9000080D2008180D20089
:101C40000281D2008381D2008904E9004220AF00E2
:101C500032003700F4FF37000D00A7008A05780036
:101C60000D10A7008C0578000D50A6001E0037004F
:101C70004200A90083C1D3000281D3008180D30038
:101C80000080D3004200AF000D50A0008904E8009E
:101C90004220AF00210037000D50A6000E00370093
:101CA0000000E8000C003A008100E8000A003A0059
:101CB0000201E80008003A008301E80006003A004B
:101CC00083C1D3000281D3008180D3000080D30080
:101CD0008904E800110032000D00A7008A05780091
:101CE0000D10A7008C0578000102700002003A0078
:101CF00003027100260032000340A1004220A90027
:101D00004200A900C44CDD0083816C0003F0A000F8
:101D10000BF0A60003F0A1001D0037006000B80022
:101D20006011B8001A003700080028000AF0A70068
:101D300087036C00850078000400780006017800B5
:101D4000870178001200370011003700F700B20059
:101D50000740A000F300B2000340A0000BF0A70072
:101D60000740A1000D20A00079FF3700F300B2006A
:101D70000340A000F700B2000740A000090454008F
:101D8000890444000D10A1000D00A00049FF370098
:101D9000A8012000040009004F1478004F047800C7
:101DA00000000600881F7800891F78008A1F7800CD
:101DB0008784690009F0A600060037004200A900E8
:101DC0004220A90003F0A600340037004200A8001A
:101DD00032003700FA7F200003047800870478007F
:101DE00044C4DE0008046500C4CCDE00890465003C
:101DF000088554000500320003F0A60027003700D4
:101E00001000200042E0B6002400370003047800F0
:101E100087047800F301B200F701B2000340A1008B
:101E20000740A10003C553000500320008F0A600DA
:101E30001A0037001000200042E0B60017003700FB
:101E4000020553000500320008F0A6001300370019
:101E50001000200042E0B60010003700018552005B
:101E60000500320008F0A6000C003700100020002A
:101E700042E0B600090037000005520005003200BC
:101E800008F0A600050037001000200042E0B60070
:101E9000020037004200A900000037004F0578001B
:101EA000CF0478004F04780000000600851F7800FA
:101EB000C500200005000900B51F78000304780064
:101EC00082037800010378008002780083047800A0
:101ED0003B472000C499DE00FA7F200083016500A3
:101EE00083855500F801B2000840A0000000EB0017
:101EF0008000EB000001EB008001EB004200A90034
:101F00000884D3008783D3000683D3008582D3005F
:101F10008381D3000281D3008180D3000080D3006D
:101F20008B05E900F5FF3A0009F0A600090037002B
:101F30000080EA008180EA000281EA008381EA00F1
:101F40000000E8000180B0000280B0000380B00013
:101F5000000037006501200005000900CF1278005D
:101F6000CF02780000000600851F7800861F7800E9
:101F7000871F7800881F7800442AEF00462AEF0068
:101F8000482AEF0004FF230054528800F4F12F0088
:101F9000A452880056AAEF0058AAEF00F4FD2B00C7
:101FA000D452880054C32100E452880054552500BF
:101FB000F4528800545525000453880054FA230035
:101FC00014538800C4F1230024538800746A21004C
:101FD00034538800C4162C004453880064F52B0049
:101FE00054538800643E2F006453880054D6200068
:101FF00074538800041A200084538800A4EF23003F
:1020000094538800E4A32000A45388001493230071
:10201000B4538800C4E42700C453880024E92B008B
:10202000D4538800B4DF2D00E453880074B7220035
:10203000F453880014DB2E000454880014E22300BB
:1020400014548800C4FC26002454880074FF28001F
:102050003454880004612C004454880084DA2B0036
:1020600054548800C424210064548800C4E128002A
:102070007454880094AF23008454880034CF230024
:102080009454880064672700A4548800F450230007
:10209000B4548800E40D2C00C454880004CF2300FD
:1020A000D45488002A8ABF00615180007251800098
:1020B000835180000400200005002000060020005D
:1020C00007002000D20E02000000000005003900C9
:1020D000A0A22000A1A2200007000900B0187800EB
:1020E00031EAAA002A8ABF00615180007251800043
:1020F0008351800044882C0095DC260006F32500DF
:1021000047FE2300CC0A020000000000560F020028
:102110000000000032EAB7002A8ABF006151800047
:10212000725180008351800044882C0095DC260089
:1021300006F3250047FE2300CC0A02000000000041
:10214000800278000103780082037800030478009D
:1021500001002000020020000300200032CABF005E
:102160000160EF00620A0200000000004300A800C6
:10217000851F7800861F7800871F7800000278008E
:10218000050078008102780086007800020378005C
:10219000070178008303780088017800E40C0200CE
:1021A00000000000CF0378004F037800CF027800D2
:1021B0004CAAB7007152880082528800935288005E
:1021C00032CABF006340600032EAB700324AE20020
:1021D00003003200945180006224E1000F003A00B5
:1021E0004C8ABF007152800082528000935280005E
:1021F00084D1220045442500B61F220097FF23000A
:10220000CC0A0200000000003CAAB700F15188008F
:1022100002528800135288004A003700945180000F
:102220006124E10024003A004300A80000002000DF
:10223000010020000200200003FF23006452800000
:10224000755280008652800097528000E40C020094
:10225000000000008002780001037800820378000B
:1022600003047800851F7800861F7800871F780098
:102270000500780086007800070178008801780062
:1022800084D1220045442500B61F220097FF230079
:10229000CC0A020000000000CF0378004F03780052
:1022A000CF0278003CAAB700F151880002528800A2
:1022B00013528800230037004300A8004C8ABF0057
:1022C00071528000825280009352800004002000EE
:1022D000050020000600200007FF2300E40C020098
:1022E000000000008002780001037800820378007B
:1022F00003047800851F7800861F7800871F780008
:1023000005007800860078000701780088017800D1
:1023100084D1220045442500B61F220097FF2300E8
:10232000CC0A020000000000CF0378004F037800C1
:10233000CF0278003CAAB700F15188000252880011
:1023400013528800342AEF00362AEF00382AEF00B3
:1023500004FF2300D45188003C8ABF00F151800063
:102360000252800013528000E4518000F551800039
:102370000652800017528000CC0A020000000000C4
:102380003CAAB700F151880002528800135288001D
:10239000336AEF00945180004822DE006824E10097
:1023A00031003E00448ABF0031528000425280001A
:1023B00053528000E4518000F551800006528000A5
:1023C00017528000CC0A02000000000044AAB700A7
:1023D00031528800425288005352880033CABF00ED
:1023E0000160EF004300DD0044A520000400400030
:1023F00080027800851F780015007800D5007800ED
:1024000055017800D50178002452800035528000B3
:102410004652800057528000CC0A020000000000A3
:10242000CF0278004300A900000278008102780002
:102430000203780083037800348ABF00B151800022
:10244000C2518000D3518000E40C02000000000063
:1024500034AAB700B1518800C2518800D351880016
:10246000336AEC00CBFF3700945180006224E10016
:1024700003003200945180006124E10005003A001D
:1024800040A3200041A3200007000900B0187800F5
:102490003BEAAA00348ABF00B1518000C2518000DB
:1024A000D35180004F047800CF0378004F037800A9
:1024B000CF02780000000600851F7800861F780094
:1024C000871F7800881F78004300A8001A8ABF0081
:1024D000E1508000F25080000351800084D122003E
:1024E00045442500B61F220097FF2300E40C02009C
:1024F0000000000080027800010378008203780069
:10250000030478005551880066518800775188008F
:1025100088518800B40F0200000000004F047800CA
:10252000CF0378004F037800CF0278000000060048
:10253000851F7800C500200005000900B51F780040
:102540000304780082037800010378008002780099
:10255000830478003B472000C499DE00FA7F200006
:102560008301650083855500F801B2000840A00092
:102570000000EB008000EB000001EB008001EB00AD
:102580004200A9000884D3008783D3000683D300C8
:102590008582D3008381D3000281D3008180D30060
:1025A0000080D3008B05E900F5FF3A0009F0A60092
:1025B000090037000080EA008180EA000281EA0019
:1025C0008381EA000000E8000180B0000280B000D2
:1025D0000380B000000037006501200005000900FD
:1025E000CF127800CF02780000000600851F780027
:1025F000861F7800871F7800881F78007029EF00F9
:10260000844B80007E20E100570031007089BF00BC
:10261000010020000200200003002000620A0200E6
:10262000000000000400200005002000060020003B
:1026300007002400CC0A020000000000800278009D
:10264000010378008203780003047800851F780076
:10265000861F7800871F78000500780086007800C4
:10266000070178008801780084D1220045442500C4
:10267000B61F220097002400CC0A020000000000D0
:10268000CF0378004F037800CF02780080027800F3
:10269000010378008203780003047800851F780026
:1026A000861F7800871F7800050078008600780074
:1026B0000701780088017800040020000500200050
:1026C00006002000E7032400DC0B020000000000ED
:1026D000CF0378004F037800CF02780078A9B700C5
:1026E000D14B8800E24B8800F34B88007089BF0013
:1026F0004100DD0044932000840240007809F80086
:102700001A0AF9007A09F8001C0AF9007C09F80095
:102710001E0AF9007E09F800200AF9005C12020086
:1027200000000000851F7800000278008102780018
:1027300002037800830378000000200001002000DD
:1027400002002E00F3062400CC0A02000000000064
:10275000CF0278009812020000000000800A780082
:102760007029EC00A6FF37004F047800CF037800F3
:102770004F037800CF027800000006002361AE000E
:102780000300370010C0B30000E0B70001003700BD
:102790000060EF0000000600851F7800C5002000E3
:1027A00003000900B51F780000F0A6000F003700F5
:1027B0000000EA000480A00004F0A6000B0037002F
:1027C000801F7800D0022000841F7800801F7800CE
:1027D0004F007800FC090200000000004F02780062
:1027E0004F0078000480A1000860ED008002EB003B
:1027F000800378008404780004F0A1000404E00061
:1028000006003A0009F0A70002003700050020008A
:102810001700370005002000150037000980A600CA
:10282000E64252000980A700E74252000F0039003B
:102830000003200009F0A60000022000801F78009D
:10284000841F7800801F78004F007800FC09020088
:10285000000000004F0278004F0078008502E90078
:10286000F6FF3B005500200001003700840278008D
:10287000640020000580A7000402E80005E0A00035
:1028800009F0A70005F0A00008712200110009005E
:102890008883D8009E1402000000000081037800A5
:1028A000883E2000110009008883D8009E14020091
:1028B0000000000081037800480620001100090094
:1028C0008883D8009E140200000000008103780075
:1028D000A8002000110009008883D8009E1402007F
:1028E000000000000980A6000A003700D002200086
:1028F000811F7800841F7800801F78004F007800C7
:10290000FC090200000000004F027800CF007800B0
:102910000980A1000003200000C040005001880091
:10292000841F7800801F78004F007800FC090200A7
:10293000000000004F0278002A0037000603200044
:102940000000E0000E003A0005E0A6001B00370082
:102950000402E9000524E100020032004200AF0059
:10296000000006000000E00005003A0005E0A600B7
:102970001200370005F0A600060220000F00370005
:1029800005E0A1000980A6000C00370000057800D2
:10299000D0022000811F7800841F7800801F7800FB
:1029A0004F007800FC090200000000004F02780090
:1029B000CF0078000980A1000A00780000404300A1
:1029C000811F7800841F7800801F78004F007800F6
:1029D000FC090200000000004F027800CF007800E0
:1029E000000006002501200003000900CF12780036
:1029F000CF027800000006000FF82000F0FF200052
:102A000020A0B7000000000040442400B00488006B
:102A1000404424003005880081E0A800040028001C
:102A20006410880004402000741088000401200015
:102A3000A41088006428EF006628EF006428EF00E7
:102A40006628EF008D20A8002429EF002629EF003A
:102A50008029EF008229EF0014002000244C880018
:102A60008629EF008829EF008A29EF008C29EF00E2
:102A70008E29EF009029EF009229EF009429EF00B2
:102A80009609A9009829EF009629A9009649A9005E
:102A90009669A9009689A9009769EF009A29EF0025
:102AA0009C29EF009E29EF00A029EF00A229EF004A
:102AB00096A9A90096C9A900142AEF00A8A2EF00C0
:102AC00096E9A90051003700C00608006800000020
:102AD0004BF03F005C0A5800F63B8F0000C03C0002
:102AE0008B28AC003CBEF6003FD2D50044168C00CB
:102AF00015D7BF0069005A002E1B8700993F9A0026
:102B00005FAD4B0091E40100C05D11002F92E40025
:102B100081FB3F0038DA9100809DC500E0BF6F0067
:102B200012C0B400C309AB003F6BC100034EC1002B
:102B3000B545BF00F7400500FF005C00EF3FF30024
:102B4000A3E2F700D7FF010040C0B400FF053C003E
:102B500058FC3F003BD3C000B5BA8C00E23F3900BF
:102B6000D3C73D004179B2003F870D003C50D000F3
:102B7000AF623F00304B8D00A282AA0004400900E2
:102B8000A0404A000576030040EC9E003788A6006E
:102B900044F03F008F128D00299A5B00C73F0E0062
:102BA000E0807C00A1D886003F294B00FB95C20045
:102BB000371A3F000000800006091E00E803E80005
:102BC00003E80300C00C09002800C00006097200D9
:102BD000000000000201E8006110E10004003A007A
:102BE0009101BA003182BA0006C0BF0000000600A1
:102BF0006210E10002003A0007C0BF0000000600BA
:102C000008C0BF000001EB00000006000600200025
:102C100000002000900188004056210080007800CC
:102C20000001EB00EA150200000000000BE0B70015
:102C3000EA150200000000000AE0B7000500E0000D
:102C40001900320005F0A60007003700EA1502005F
:102C5000000000000DE0B700EA15020000000000CF
:102C60000CE0B70005F0A10005E0A6000800370061
:102C700005E0A1008502E900EA150200000000005D
:102C80008043780005800900075B7800E5FF370086
:102C9000EA15020000000000005B78008502E900F0
:102CA000FBFF3A00DFFF370080C0B30014E2B7003B
:102CB000449A2000A4508800010020000100780000
:102CC0000160EF00E0060200000000008100E80063
:102CD000811F7800801F78004F007800FC090200F7
:102CE00000000000CF007800900120000008E600FE
:102CF000F2FF3700419A20001104E0000700320083
:102D00000F22AF00FEFF37000140900010E2B70035
:102D10001162EF008100E800F7FF37004401200056
:102D2000745088009829EF0014002000244C88007B
:102D30000A0A020000000000F61202000000000073
:102D4000CDA2A900F4F1210024158800040E28006A
:102D500004158800D4FF2F0044158800A222EF003C
:102D600014002000341588009E00090000000000B7
:102D700004402000140988002421EF002821EF00DE
:102D80002621EF008489BF004100DD0078020200A7
:102D900000000000800278001021EF006508880024
:102DA0007608880084002800840888008CE0A80049
:102DB00090E0A80081E0A9004220EF0081E0A80097
:102DC0009629AE0064003700A002A900A022A80046
:102DD000A002AE00FEFF37008002F8008009F90073
:102DE000044C8000F33F20000418E1000200310091
:102DF000F43F2000044C8800044C8000840CB10097
:102E0000044C88008009F8008209F900144C800005
:102E1000F30F20000418E10002003D00F40F200031
:102E2000144C8800144C80006020E10001003D003B
:102E30008229EF000E8ABF004100DD006805020014
:102E40000000000008AAB7000E8ABF004100DD00A4
:102E500000010200000000000AAAB70074508000C0
:102E6000E10252004128DD00680502000000000078
:102E700010AAB70096E9AF00020037009209F800E7
:102E80000C0AF9000E8ABF00144C80000020E100FB
:102E900006003400088ABF00645080000020E10072
:102EA000020039000E2AEC00210037000E8ABF0014
:102EB000144C80000020E1000B0034000C8ABF009D
:102EC000845080000020E100070036000E2AED004B
:102ED000745080007420E1000200310044012000A1
:102EE00074508800120037008289BF00745080003F
:102EF0000020E1000B0034000C8ABF005450800019
:102F00000020E100070039000E2AED007450800017
:102F10007420E10002003100440120007450880058
:102F2000030037008289BF000E0AE30000003A0068
:102F30000E0AF8008409F9000E8ABF004100DD0086
:102F4000F00302000000000026A9B7000C0AF800F8
:102F5000120AF9009629A9009669AE00010037000F
:102F60009669A9009649AE009000370096E9A8003E
:102F700027C1BF0086E9B7008769EF008829EF0005
:102F800088C9BF0089E9B70087C9BF0088E9B700D1
:102F900086C9BF0087E9B7008669EF0026C1BF0078
:102FA0000160EF008629B700BE1302000000000098
:102FB0009609A9000000AF009609A800344C8000D3
:102FC000534C8000030052008EA9B700444C80008F
:102FD000634C800003005A0090A9B7009609AE0028
:102FE0000E003700844C80006020E1000B003C00A4
:102FF00003003500744C80006020E10007003100C0
:10300000F4FF2F00734C8000048041008EA9B700AC
:10301000844C800060004A0090A9B7009609AF0078
:103020000E003700844C80006020E1000B0035006A
:1030300003003C00744C80006020E1000700360073
:10304000744C8000F3FF2F00030052008EA9B700DC
:10305000844C800060005A0090A9B7008E89BF00A0
:10306000814C800001F0A60006003700040020001B
:10307000734C80000300520004002000834C800049
:1030800083005A008EA9B700814C88009029D50092
:103090008EA9D7008609F8008A09F9008809F80086
:1030A0008C09F9008E09F8009209F9009009F800DE
:1030B0009409F900449A2000A4508800D0C0B300BD
:1030C000FC09020000000000A0C0B300FC090200DF
:1030D0000000000000C2B300FC0902000000000074
:1030E0008289BF0004002000CC1302000000000011
:1030F000C0C2B300FC090200000000000E8ABF003D
:1031000004002000CC13020000000000C0C2B30085
:10311000FC090200000000000C8ABF00040020002F
:10312000CC13020000000000C0C2B300FC09020082
:1031300000000000088ABF0004002000CC13020039
:1031400000000000C0C2B300FC0902000000000043
:103150000A8ABF0004002000CC1302000000000017
:10316000C0C2B300FC09020000000000108ABF00CA
:1031700004002000CC13020000000000419A20004F
:103180001104E000070032000F22AF00FEFF3700FD
:103190000140900010E2B7001162EF008100E800EA
:1031A000F7FF370096E9A9009649A90004FF370008
:0431B0000040FE00DD
:0200000401F009
:100000000603FF003F00FF009387FF000F31FF0052
:0C0010000F33FF000400FF0003C0FF00DE
:00000001FF
;DSPIC30F4011
;CRC=C8E5  CREATED="03-Jul-24 11:20"
