:08000000B4110400000000002F
:04004400A80400000C
:0400C400180400001C
:100200003220EF006315200083015000040031000C
:1002100023122000008041001000BA0000000600F8
:10022000201220000600A900838141008081410046
:100230003380BA009381BA00C819DD0000807100D4
:10024000000006002CFE50002CFE14002CFE2100A5
:100250002CFE14002CFEF2002CFE13002CFEC3001A
:100260002CFE13002CFE95002CFE13002CFE6800C3
:100270002CFE13002CFE3B002CFE13002CFE0E0067
:100280002CFE13002CFEE1002CFE12002CFEB5000B
:100290002CFE12002CFE890022EF1200C3E15D004B
:1002A000CDD5120009CB31004CC1120071B8060047
:1002B0005CB01200F3A8DC0021A21100D69BB100B3
:1002C00002961100989087008E8B1100DA865D00EF
:1002D00073821100537E3300727A1100CC760A00CB
:1002E0005B7311001B70E100086D10001D6AB800FF
:1002F0005A671000B9648F0039621000D75F670039
:10030000925D1000675B3F0054591000585717006A
:1003100072551000A053EF00E1510F003350C80098
:10032000964E0F00094DA0008B4B0F001B4A790021
:10033000B8480F006147530017460F00D8442C00FF
:10034000A3430F007942060058410F004040E000EF
:10035000313F0E002B3EBA002C3D0E00353C940080
:10036000453B0E005C3A6F007A390E009E384A0019
:10037000C8370E00F83625002D360E00683500000F
:10038000A8340E00EC33DB0036330D008432B700A6
:10039000D6310D002D31930087300D00E62F6F0010
:1003A000482F0D00AE2E4B00172E0D00842D280077
:1003B000F42C0D00672C0400DD2B0D00562BE10002
:1003C000D22A0C00502ABE00D1290C0055299B00CE
:1003D000DB280C0064287900EF270C007C275600EE
:1003E0000B270C009C26340030260C00C52512007B
:1003F0005C250C00F524F00090240B002D24CF0088
:10040000CB230B006B23AD000D230B00B0228C001F
:1004100055220B00FB216B00A3210B004B214A004E
:10042000F6200B00A1202A004E200B00FC1F090023
:10043000AC1F0B005C1FE9000E1F0A00C11EC900A3
:10044000741E0A00291EA900DF1D0A00961D8900DE
:100450004E1D0A00071D6A00C11C0A007B1C4A00D1
:10046000371C0A00F31B2B00B11B0A006F1B0C008A
:100470002E1B0A00ED1AEE00AE1A09006F1ACF000B
:10048000311A0900F319B100B61909007A1993005D
:100490003F19090004197500CA180900911857007E
:1004A000581809001F183900E8170900B0171C0078
:1004B0007A1709004317FF000E170800D916E2004B
:1004C000A41608007016C5003C1608000916A900FD
:1004D000D6150800A4158C0072150800411570008F
:1004E00010150800DF145400AF1408007F1400003A
:1004F0003220EF006315200083015000040031001A
:10050000A3292000008041001000BA00000006006E
:10051000A02920000600A9008381410080814100BC
:100520003380BA009381BA00C819DD0000807100E1
:10053000000006000000B100000000000000B20052
:10054000000000000000B400000000000000B60041
:10055000000000000000B800000000000000BA0029
:10056000000000000000BC00000000000000BF0010
:10057000000000000000C100000000000000C200F8
:10058000000000005500C300550000005500C400E5
:10059000560000005600C600560000005600C70076
:1005A000560000005600C800570000005700C90060
:1005B000570000005700CB00570000005800CC0047
:1005C000580000005800CE00580000005800CF002E
:1005D000590000005900D100590000005900D20014
:1005E0005A0000005A00D4005A0000005A00D500FA
:1005F0005B0000005B00D7005B0000005B00D800E0
:100600005C0000005C00DA005C0000005C00DC00C4
:100610005D0000005D00DE005D0000005E00DF00A8
:100620005E0000005E00E1005F0000005F00E3008C
:100630005F0000005F00E500600000006000E70070
:10064000600000006100E900610000006100EB0053
:10065000620000006200ED00620000006300F00034
:10066000630000006400F200640000006500F40014
:10067000650000006500F700660000006600F900F4
:10068000660000006700FC00670000006800FE00D4
:100690006800000069000100690001006A000400B0
:1006A0006A0001006A0007006B0001006B000A008D
:1006B0006C0001006C000D006D0001006E00100068
:1006C0006E0001006F0013006F0001007000170042
:1006D0007000010071001A007100010072001E001C
:1006E00072000100730021007400010074002500F5
:1006F00075000100750029007600010077002D00CB
:100700007800010078003200790001007A0036009C
:100710007A0001007B003B007C0001007D0040006E
:100720007D0001007E0045007F0001007F004A003F
:100730008000010081004F0082000100820055000E
:100740008300010084005B008500010086006100D9
:100750008700010088006800890001008A006F009E
:100760008B0001008C0076008D0001008E007D0062
:100770008F000100900085009100010092008D0023
:1007800093000100940096009500010096009F00E0
:10079000970001009800A900990001009A00B40098
:1007A0009B0001009C00B4009D0001009E00B4006D
:1007B0009F000100A100B400A2000100A300B4004A
:1007C000A4000100A600B400A7000100A900B40025
:1007D000AA000100AC00B400AD000100AF000000B1
:1007E0003220EF00C33F2000008041001040BA00DB
:1007F0000160EF00000006000A4D00006F74000069
:100800006F720000204300006F6E000074720000E1
:100810006F6C0000205500006E690000742000001D
:10082000763000002E3100000D0A000000000000AC
:100830004200F8003600F8003200F800801F78000F
:10084000200020000C000900B01F78001B69EC009C
:10085000D44880004822DE006824E100050035000D
:100860001C29EC004220AF001E29EC001A09A80048
:100870001B69EF00F44880006020E1000A003900A5
:1008800004003E00E4488000431F20000418E100FB
:1008900005003E00C6A2A900CAA2AA001A29A80003
:1008A0001C29EF001E29EF0088E0A900A00120000C
:1008B0000C0009004F1078004F0078003200F9005A
:1008C0003600F9004200F90000400600851F78005C
:1008D000C500200003000900B51F78000202B8001F
:1008E00003F0A600020037000383B90001003700BF
:1008F0000303B8004200A9008502430060844B0056
:1009000001F0A60002003700028BB9000100370099
:10091000020BB80085024B0008844B000980B00030
:10092000038BB90008044B0087834C0087017800D3
:100930000801780085007800040078002501200077
:1009400003000900CF127800CF02780000000600F3
:100950004200F8003600F8003200F800801F7800EE
:10096000200020000C000900B01F7800CA62A80017
:10097000C662A900B4458000E1024200E401200003
:10098000110009008482D800B1458800B608F8003B
:100990000409F900B4458000EA024200E4012000A5
:1009A000110009008482D80031488800B4458000D5
:1009B000F4024200E4012000110009008482D80002
:1009C00041488800302AEF00845180006320E10014
:1009D000CB003D00845180006420B800A48B20002F
:1009E00084024000845180006220B80044902000BE
:1009F00004004000100378004130DD00648C2000CA
:100A00000400400000027800140078008000EB0031
:100A100000F0A7008080EB0004002000B41A7800EA
:100A2000B41A7800845180006420B800A48B2000A0
:100A300084024000845180006420B800A48B200010
:100A400004004000C4002000301A7800301A7800FA
:100A5000B888BF008000EB0000F0A7008080EB00AA
:100A60000001780081017800060078008700780096
:100A7000660402000000000004002000B41A7800A0
:100A8000B41A7800845180006420B800A48B200040
:100A900004004000A4002000301A7800301A7800CA
:100AA0006030E1001600350002003C006028E100E3
:100AB00013003600845180006420B800A48B20000D
:100AC00084024000845180006420B800A48B200080
:100AD00004004000C4002000301A7800301A78006A
:100AE0000DC0BF00804A7800974298000FC0BF0039
:100AF000A042980000C0B300B04298003E0037000A
:100B0000845180006420B800A48B200004004000C1
:100B1000A4002000301A7800301A78006030E1001C
:100B200035003C00020035006028E1003200310051
:100B3000845180006420B800A48B2000840240000F
:100B4000845180006420B800A48B20000400400081
:100B50000002780003002000B4197800B41978006E
:100B600004002000800A520004002000812A5A005C
:100B7000845180006420B800A48B200084024000CF
:100B8000845180006420B800A48B20000400400041
:100B9000C4002000301A7800301A78000DC0BF0061
:100BA000804A7800974298000FC0BF00A04298008A
:100BB00000C0B300B0429800845180006420B800A7
:100BC000A48B200084024000845180006420B8007F
:100BD000A48B2000040040000002780003002000E5
:100BE000B4197800B419780004002000800A52007B
:100BF00004002000812A5A00845180006420B8003B
:100C0000A48B200084024000845180006420B8003E
:100C1000A48B200004004000C4002000301A78009B
:100C2000301A7800843E2000840A4300E0AA4B007A
:100C3000845180006420B800A48B20000400400090
:100C4000A4002000301A7800301A78006030E100EB
:100C50001000350003003C00E47920000520E1008D
:100C60000C003100845180006420B800A48B200067
:100C700084024000E0C9B300804A780070C0B3002D
:100C80009042980000C0B300A042980000C0B3009A
:100C9000B0429800845180006420B800A48B2000EA
:100CA00004004000A4002000301A7800301A7800B8
:100CB0006030E10010003C000300350024032000F8
:100CC0000520E1000C003600845180006420B8004B
:100CD000A48B20008402400020C3B300804A780027
:100CE00000C0B3009042980000C0B300A04298003A
:100CF00000C0B300B0429800302AEC0032FF370049
:100D0000BAC8BF00D6E1B700BBC8BF00D7E1B70083
:100D1000BEC8BF00D8E1B700BFC8BF00D9E1B70067
:100D2000C2C8BF00DAE1B700C3C8BF00DBE1B7004B
:100D30001689BF004100DD00000102000000000034
:100D4000800278001021EF0065088800760888008E
:100D50008400280084088800CA62A900C662A9002D
:100D600084E0A900A00120000C0009004F107800C9
:100D70004F0078003200F9003600F9004200F90017
:100D800000400600811F7800414B800080587800A9
:100D90008048EB00CF0078006829EC0000000600D6
:100DA00000C8B300C1E1B70020C0B300C0E1B70084
:100DB00030C0B300C5E1B70070CEB300C4E1B700E6
:100DC000C761EF0010C0B300C6E1B700C961EF0012
:100DD00070C7B300C8E1B700CB61EF0020C0B3001B
:100DE000CAE1B700CD61EF0000C1B300CCE1B700AC
:100DF000CF61EF00CE61EF00D161EF00D061EF0075
:100E0000F0C3B300D5E1B700F0C0B300D4E1B70040
:100E1000B1C8BF00D7E1B700B0C8BF00D6E1B70086
:100E2000B3C8BF00D9E1B700B2C8BF00D8E1B7006E
:100E3000B5C8BF00DBE1B700B4C8BF00DAE1B70056
:100E4000C160EF0000C7B300C0E0B70000000600BB
:100E5000851F7800C500200003000900B51F780039
:100E60000002780081027800020378008303780092
:100E70000000EB008000EB000001EB008001EB00C4
:100E80000800A10007F0A600080037000800A00035
:100E90008783EA000683EA008582EA000402EA000A
:100EA000E0824A0060034B00E0834B00850472003F
:100EB00002003A0087047300150032003947200011
:100EC0000340A7000B0037004200A9000482D200B3
:100ED0008582D2000683D2008783D2000080D200B0
:100EE0008180D2000281D2008381D2008904E9008E
:100EF000F3FF3A00C44CDD004200A90009F0A10054
:100F00000340A10083816C000800A70003F0A0004B
:100F10002501200003000900CF127800CF027800DD
:100F200000000600881F7800280120000400090046
:100F3000B81F78008005EB006066B80003047800F5
:100F400087047800FA7F20004200A9004220A9000F
:100F500044C4DE00080465000800E00071003200AF
:100F60004200A9004220A900C4CCDE00890465002B
:100F70000900E0006B0032000884440009B0A700BB
:100F800004003700F83FB100660032006500390008
:100F9000030037001A4020008542450061003100FF
:100FA000878669004200A9004220A900F300B20030
:100FB0000340A000F700B2000740A000881F78009F
:100FC0000124B800002DB8000A0544008B854C00B0
:100FD0000C80B0000224B8008B0544000C864C0045
:100FE000012CB8000005EB008B0544000C864C007A
:100FF0000A80B0000034B8008B0544000C864C0019
:101000000A80B0008005EB000324B8000C06440001
:101010000A854C000B80B000022CB8000C0644007E
:101020000A854C000B80B0000134B8000C06440067
:101030000A854C000B80B000003CB8000C06440050
:101040000A854C000B80B0000C0078000006EB0015
:10105000032CB8000A0544008B854C000C80B000BE
:101060000234B8000A0544008B854C000C80B000A7
:101070000334B8008B0544000C864C00013CB800DA
:101080000A0544008B854C000C80B000023CB8007F
:101090008B0544000C864C00033CB8000C06440051
:1010A0008A0078000B0178008C0178005400200041
:1010B0004200A9008381D3000281D3008180D30044
:1010C0000080D3000402E900F9FF3A004F047800E1
:1010D0000804E8000103700001003200020037003C
:1010E00003037100080032000340A7000600370028
:1010F0004200A9000080D2008180D2000281D2008B
:101100008381D2000804E9004444DD0003F0A1001B
:101110000DF0A70003F0A0000340A10083016C00C4
:10112000030037006000B8006001B800000037001D
:10113000A8012000040009004F1478004F04780033
:1011400000000600881F7800280120000400090024
:10115000B81F780087866900030478008704780048
:10116000FA7F20004200A9004220A90044C4DE000A
:10117000080465000800E0006C0032004200A9008D
:101180004220A900C4CCDE00890465000900E0000B
:10119000660032000005EB00090654000300390028
:1011A000FC3FB00061003100040037001B4020000C
:1011B0000B0656005D0039005C0032000004EB00B5
:1011C0008004EB000005EB008005EB00F301B200AA
:1011D0000340A000F701B2000740A0008C1F780078
:1011E0006C0320000400500085805800060159005F
:1011F00087815900020033000600310006003A00E2
:1012000004004000858048000601490087814900AC
:10121000010037000800A0000C06E9000B003200B6
:101220004200A9000080D2008180D2000281D20059
:101230008381D2004200A9000884D2008984D200B0
:101240000A85D2008B85D200E6FF37004F06780072
:101250000B50A70001003700060037004200A9002C
:101260008B85D3000A85D3008984D3000884D300FA
:10127000030037000C06E9004200A9002B003200F1
:101280004200AF00090037000080D2008180D20008
:101290000281D2008381D20004025000858258006E
:1012A0000603590087835900150039000804E80037
:1012B00013003A008904E80011003A000A05E8002A
:1012C0000F003A008B05E8000D003A000C06E8001C
:1012D000160032000A0037000C06E9001300320045
:1012E0000B40A700060037004200A9000884D20086
:1012F0008984D2000A85D2008B85D200F8FF37009E
:101300004466DD004200A9000CF0A1000DF0A7002A
:101310000CF0A0000B40A1008B016E000A017800C8
:1013200089007800080078000500370000002000E0
:101330000100200002002000030020000000370010
:10134000A8012000040009004F1478004F04780021
:1013500000000600881F7800280120000400090012
:10136000B81F7800080028004300AF0087036C0016
:101370000000E00007003A000100E00005003A002C
:101380000200E00003003A00FAFF27000A8561002E
:101390004220AE00030578008A856B0003047800C4
:1013A0008704780007067800FD7F20004220A9000E
:1013B0004200A90044C4DE00088466000800E00082
:1013C000BC0032004220A9004200A900C4CCDE00CB
:1013D000898466000900E000BE0032008006EB0050
:1013E0004220A9004200A9000848E100BA003200EA
:1013F000C10033000D00A1000D10A00008845400AE
:10140000F300B2000340A000F700B2000740A000C4
:101410004803B10016003B004803B0004220A90079
:101420004200A9008381D3000281D3008180D300D0
:101430000080D3000804E900F8FF3A0014003700E8
:101440004803B1000F003B004803B0004220A90050
:101450004200A9008783D3000683D3008582D3008E
:101460000482D3000804E900F8FF3A001B003700AB
:101470000400780085007800060178008701780074
:101480000C866D000CF0A7000BF0A200790037006D
:101490000BF0A6001F0037000D40A7008C05780058
:1014A0000080EA008180EA000281EA0083C1EA004C
:1014B000F341B2000000E80005003A008100E800B6
:1014C00003003A000201E80001003A008341E8000D
:1014D0000D40A700320037000E0037000BF0A600C9
:1014E0000C0037000482EA008582EA000683EA00E5
:1014F00087C3EA00F741B2000402E80005003A00A1
:101500008502E80003003A000603E80001003A0003
:101510008743E8004220A9004200A90004004000DF
:10152000858048000601490087C149000350A70093
:101530000D30A0000D00A700090037000D10A70016
:10154000010037000B0037000BF0A7001400370034
:101550000D30A700290037000D60A00021003700E2
:101560000BF0A7000E0037000D30A7002300370056
:101570001C0037000BF0A700040037008A05780034
:101580000D30A7001D0037003A0037000D40A000C5
:1015900003C1B2000340A700BFFF37008A057800EF
:1015A000F301B2000284710002003A00008470006E
:1015B0000C0032000340A7000A0037004220A900B7
:1015C0004200A9000080D2008180D2000281D200B6
:1015D0008381D2008904E9004220AF003200370045
:1015E000F4FF37000D00A7008A0578000D10A70052
:1015F0008C0578000D50A6001E0037004200A9009F
:1016000083C1D3000281D3008180D3000080D30046
:101610004200AF000D50A0008904E8004220AF0056
:10162000210037000D50A6000E0037000000E80032
:101630000C003A008100E8000A003A000201E800CC
:1016400008003A008301E80006003A0083C1D30095
:101650000281D3008180D3000080D3008904E80098
:10166000110032000D00A7008A0578000D10A700B8
:101670008C0578000102700002003A00030271003C
:10168000260032000340A1004220A9004200A90028
:10169000C44CDD0083816C0003F0A0000BF0A600B9
:1016A00003F0A1001D0037006000B8006011B80011
:1016B0001A003700080028000AF0A70087036C0012
:1016C0008500780004007800060178008701780022
:1016D0001200370011003700F700B2000740A000E9
:1016E000F300B2000340A0000BF0A7000740A100E8
:1016F0000D20A00079FF3700F300B2000340A000E6
:10170000F700B2000740A000090454008904440017
:101710000D10A1000D00A00049FF3700A801200016
:10172000040009004F1478004F0478000000060000
:10173000881F7800891F78008A1F780087846900D5
:1017400009F0A600060037004200A9004220A900C7
:1017500003F0A600340037004200A8003200370032
:10176000FA7F2000030478008704780044C4DE0078
:1017700008046500C4CCDE008904650008855400B7
:101780000500320003F0A6002700370010002000FB
:1017900042E0B60024003700030478008704780094
:1017A000F301B200F701B2000340A1000740A1001D
:1017B00003C553000500320008F0A6001A003700E8
:1017C0001000200042E0B600170037000205530069
:1017D0000500320008F0A6001300370010002000BA
:1017E00042E0B600100037000185520005003200CB
:1017F00008F0A6000C0037001000200042E0B60000
:1018000009003700000552000500320008F0A6006C
:10181000050037001000200042E0B600020037004B
:101820004200A900000037004F057800CF0478007F
:101830004F04780000000600851F7800C5002000D6
:1018400005000900B51F78000304780082037800C2
:101850000103780080027800830478003B47200071
:10186000C499DE00FA7F200083016500838555005E
:10187000F801B2000840A0000000EB008000EB007F
:101880000001EB008001EB004200A9000884D300B6
:101890008783D3000683D3008582D3008381D3005E
:1018A0000281D3008180D3000080D3008B05E90042
:1018B000F5FF3A0009F0A600090037000080EA00B1
:1018C0008180EA000281EA008381EA000000E800EA
:1018D0000180B0000280B0000380B000000037003B
:1018E0006501200005000900CF127800CF027800C2
:1018F00000000600851F7800861F7800871F78008B
:10190000881F78009829EF009A29EF009C29EF00A2
:1019100004FF2300F44C8800F4F12F00444D8800AC
:10192000AAA9EF00ACA9EF00F4FD2B00744D8800CC
:1019300054C32100844D880054552500944D8800DF
:1019400054552500A44D880054FA2300B44D880056
:10195000C4F12300C44D8800746A2100D44D88006E
:10196000C4162C00E44D880064F52B00F44D88006B
:10197000643E2F00044E880054D62000144E880088
:10198000041A2000244E8800A4EF2300344E88005F
:10199000E4A32000444E880014932300544E880092
:1019A000C4E42700644E880024E92B00744E8800AC
:1019B000B4DF2D00844E880074B72200944E880056
:1019C00014DB2E00A44E880014E22300B44E8800DD
:1019D000C4FC2600C44E880074FF2800D44E880042
:1019E00004612C00E44E880084DA2B00F44E880059
:1019F000C4242100044F8800C4E12800144F88004B
:101A000094AF2300244F880034CF2300344F880044
:101A100064672700444F8800F4502300544F880027
:101A2000E40D2C00644F880004CF2300744F88001D
:101A30007E89BF00014C8000124C8000234C800046
:101A40000400200005002000060020000700200000
:101A5000980B02000000000005003900E09720000C
:101A6000E197200007000900B018780085E9AA0076
:101A70007E89BF00014C8000124C8000234C800006
:101A800044882C0095DC260006F3250047FE230041
:101A900092070200000000001C0C02000000000081
:101AA00086E9B7007E89BF00014C8000124C80009F
:101AB000234C800044882C0095DC260006F325008A
:101AC00047FE230092070200000000008002780019
:101AD00001037800820378000304780001002000ED
:101AE000020020000300200086C9BF000160EF0053
:101AF00028070200000000004300A800851F7800AE
:101B0000861F7800871F78000002780005007800A3
:101B100081027800860078000203780007017800CF
:101B20008303780088017800AA0902000000000001
:101B3000CF0378004F037800CF027800A0A9B70048
:101B4000114D8800224D8800334D880086C9BF00A2
:101B50006340600086E9B7008649E2000300320076
:101B6000344C80006224E1000F003A00A089BF00DD
:101B7000114D8000224D8000334D800084D1220021
:101B800045442500B61F220097FF2300920702005C
:101B90000000000090A9B700914C8800A24C88007A
:101BA000B34C88004A003700344C80006124E100C7
:101BB00024003A004300A80000002000010020009B
:101BC0000200200003FF2300044D8000154D80001B
:101BD000264D8000374D8000AA0902000000000059
:101BE0008002780001037800820378000304780003
:101BF000851F7800861F7800871F78000500780011
:101C000086007800070178008801780084D12200DE
:101C100045442500B61F220097FF230092070200CB
:101C200000000000CF0378004F037800CF02780057
:101C300090A9B700914C8800A24C8800B34C880052
:101C4000230037004300A800A089BF00114D800089
:101C5000224D8000334D800004002000050020004C
:101C60000600200007FF2300AA0902000000000070
:101C70008002780001037800820378000304780072
:101C8000851F7800861F7800871F78000500780080
:101C900086007800070178008801780084D122004E
:101CA00045442500B61F220097FF2300920702003B
:101CB00000000000CF0378004F037800CF027800C7
:101CC00090A9B700914C8800A24C8800B34C8800C2
:101CD0008829EF008A29EF008C29EF0004FF2300F8
:101CE000744C88009089BF00914C8000A24C800009
:101CF000B34C8000844C8000954C8000A64C800042
:101D0000B74C8000920702000000000090A9B700C5
:101D1000914C8800A24C8800B34C88008769EF0082
:101D2000344C80004822DE006824E10031003E008F
:101D30009889BF00D14C8000E24C8000F34C8000B9
:101D4000844C8000954C8000A64C8000B74C8000ED
:101D5000920702000000000098A9B700D14C88004B
:101D6000E24C8800F34C880087C9BF000160EF0097
:101D70004300DD00849A20000400400080027800C7
:101D8000851F780015007800D5007800550178008F
:101D9000D5017800C44C8000D54C8000E64C800012
:101DA000F74C80009207020000000000CF0278008C
:101DB0004300A90000027800810278000203780045
:101DC000830378008889BF00514C8000624C8000FA
:101DD000734C8000AA0902000000000088A9B70027
:101DE000514C8800624C8800734C88008769EC0075
:101DF000CBFF3700344C80006224E1000300320046
:101E0000344C80006124E10005003A0080982000F5
:101E10008198200007000900B01878008FE9AA0017
:101E20008889BF00514C8000624C8000734C800058
:101E30004F047800CF0378004F037800CF0278007A
:101E400000000600851F7800861F7800871F780035
:101E5000881F78004300A8006E89BF00814B800076
:101E6000924B8000A34B800084D122004544250082
:101E7000B61F220097FF2300AA09020000000000FD
:101E80008002780001037800820378000304780060
:101E9000F54B8800064C8800174C8800284C8800B9
:101EA0007A0C0200000000004F047800CF03780095
:101EB0004F037800CF02780000000600851F7800ED
:101EC000C500200005000900B51F78000304780054
:101ED0008203780001037800800278008304780090
:101EE0003B472000C499DE00FA7F20008301650093
:101EF00083855500F801B2000840A0000000EB0007
:101F00008000EB000001EB008001EB004200A90023
:101F10000884D3008783D3000683D3008582D3004F
:101F20008381D3000281D3008180D3000080D3005D
:101F30008B05E900F5FF3A0009F0A600090037001B
:101F40000080EA008180EA000281EA008381EA00E1
:101F50000000E8000180B0000280B0000380B00003
:101F6000000037006501200005000900CF1278004D
:101F7000CF02780000000600851F7800861F7800D9
:101F8000871F7800881F78000229EF00144880001E
:101F90007E20E100570031000289BF0001002000CF
:101FA00002002000030020002807020000000000BB
:101FB0000400200005002000060020000700240087
:101FC0009207020000000000800278000103780000
:101FD0008203780003047800851F7800861F78004C
:101FE000871F7800050078008600780007017800D8
:101FF0008801780084D1220045442500B61F2200C4
:10200000970024009207020000000000CF03780030
:102010004F037800CF027800800278000103780037
:102020008203780003047800851F7800861F7800FB
:10203000871F780005007800860078000701780087
:102040008801780004002000050020000600200020
:10205000E7032400A208020000000000CF0378007C
:102060004F037800CF0278000AA9B70061488800C2
:1020700072488800834888000289BF004100DD0063
:10208000648C2000840240000A09F8006E09F900FF
:102090000C09F8007009F9000E09F8007209F9003E
:1020A0001009F8007409F900220F02000000000076
:1020B000851F780000027800810278000203780012
:1020C00083037800000020000100200002002E00A1
:1020D000F30624009207020000000000CF027800FF
:1020E0005E0F020000000000800A78000229EC0068
:1020F000A6FF37004F047800CF0378004F03780025
:10210000CF02780000000600851F7800C50020007F
:1021100003000900B51F780000F0A6000F0037008B
:102120000000EA000480A00004F0A6000B003700C5
:10213000801F7800D0022000841F7800801F780064
:102140004F007800C2060200000000004F02780035
:102150004F0078000480A1000860ED008002EB00D1
:10216000800378008404780004F0A1000404E000F7
:1021700006003A0009F0A700020037000500200021
:102180001700370005002000150037000980A60061
:10219000E64252000980A700E74252000F003900D2
:1021A0000003200009F0A60000022000801F780034
:1021B000841F7800801F78004F007800C20602005C
:1021C000000000004F0278004F0078008502E9000F
:1021D000F6FF3B0055002000010037008402780024
:1021E000640020000580A7000402E80005E0A000CC
:1021F00009F0A70005F0A0000871220011000900F5
:102200008883D80056110200000000008103780086
:10221000883E2000110009008883D8005611020072
:10222000000000008103780048062000110009002A
:102230008883D80056110200000000008103780056
:10224000A8002000110009008883D8005611020060
:10225000000000000980A6000A003700D00220001C
:10226000811F7800841F7800801F78004F0078005D
:10227000C2060200000000004F027800CF00780084
:102280000980A1000003200000C040005001880028
:10229000841F7800801F78004F007800C20602007B
:1022A000000000004F0278002A00370006032000DB
:1022B0000000E0000E003A0005E0A6001B00370019
:1022C0000402E9000524E100020032004200AF00F0
:1022D000000006000000E00005003A0005E0A6004E
:1022E0001200370005F0A600060220000F0037009C
:1022F00005E0A1000980A6000C0037000005780069
:10230000D0022000811F7800841F7800801F780091
:102310004F007800C2060200000000004F02780063
:10232000CF0078000980A1000A0078000040430037
:10233000811F7800841F7800801F78004F0078008C
:10234000C2060200000000004F027800CF007800B3
:10235000000006002501200003000900CF127800CC
:10236000CF027800000006000FF82000F0FF2000E8
:1023700020A0B7000000000040442400B004880002
:10238000404424003005880081E0A80004002800B3
:10239000B410880004402000C41088007406200097
:1023A000F4108800B628EF00B828EF001229EF00DB
:1023B0001429EF0014002000B44888001829EF0009
:1023C0001A09A9001A29A9001B69EF001C29EF00AE
:1023D0001E29EF005C29EF005E29EF006029EF0065
:1023E0006229EF006429EF006629EF006829EF00F9
:1023F000A8A2EF004F003700C00608000000000050
:102400004BF03F005C0A5800F63B8F0000C03C00D8
:102410008B28AC003CBEF6003FD2D50044168C00A1
:1024200015D7BF0069005A002E1B8700993F9A00FC
:102430005FAD4B0091E40100C05D11002F92E400FC
:1024400081FB3F0038DA9100809DC500E0BF6F003E
:1024500012C0B400C309AB003F6BC100034EC10002
:10246000B545BF00F7400500FF006000EF3FF300F7
:10247000A3E2F700D7FF010040C0B400FF053C0015
:1024800058FC3F003BD3C000B5BA8C00E23F390096
:10249000D3C73D004179B2003F870D003C50D000CA
:1024A000AF623F00304B8D00A282AA0004400900B9
:1024B000A0404A000576030040EC9E003788A60045
:1024C00044F03F008F128D00299A5B00C73F0E0039
:1024D000E0807C00A1D886003F294B00FB95C2001C
:1024E000371A3F00E803E80003E80300C00C0800C7
:1024F000BA00C00006090400000000000201E80064
:102500006110E10004003A009101BA003182BA0082
:1025100006C0BF00000006006210E10002003A00A1
:1025200007C0BF000000060008C0BF000001EB00AC
:102530000000060006002000000020009001880036
:10254000C01F2100800078000001EB007E12020015
:10255000000000000BE0B7007E1202000000000047
:102560000AE0B7000500E0001900320005F0A600FF
:10257000070037007E120200000000000DE0B700E7
:102580007E120200000000000CE0B70005F0A10080
:1025900005E0A6000800370005E0A1008502E9007B
:1025A0007E120200000000008043780005800900D0
:1025B000075B7800E5FF37007E1202000000000094
:1025C000005B78008502E900FBFF3A00DFFF37007F
:1025D00004922000444B8800010020000100780094
:1025E0000160EF00F0030200000000008100E8003D
:1025F000811F7800801F78004F007800C20602001B
:1026000000000000CF007800900120000008E600E4
:10261000F2FF3700019220001104E00007003200B1
:102620001922AF00FEFF3700014090001AE2B70008
:102630001B62EF008100E800F7FF37001400200064
:10264000B4488800D006020000000000BC0F020061
:1026500000000000C6A2A900C642A900C662A900E7
:10266000F4F1210024158800040E280004158800C8
:10267000E4FF2F0044158800A222EF00A622EF00FD
:102680009E000900000000001689BF004100DD0027
:102690000001020000000000800278001021EF001D
:1026A000650888007608880084002800840888006F
:1026B0008CE0A80090E0A80081E0A9004220EF0093
:1026C00081E0A8001A09AE007E003700A002A90030
:1026D000A022A800A002AE00FEFF37008002F80092
:1026E0001209F90094488000F33F20000418E1002B
:1026F00002003100F43F20009448880024012000AB
:102700001289BF00010020000402E8000402E90071
:10271000030032000000D0008180D200FBFF3700B0
:102720005CA9B700F14A8800E44A8000034B8000AE
:102730000300520064A9B700F44A8000134B8000E4
:1027400003005A0066A9B700344B80006020E10006
:102750001300350003003C00244B80006020E100A2
:102760000F00360065C9BF0064E9B70066C9BF0045
:1027700065E9B70067C9BF0066E9B7006769EF00A0
:102780006089BF006409B40060A9B700344B8000C1
:10279000134B80000480490062A9B7001E00370077
:1027A000344B80006020E1001B003C00030035003A
:1027B000244B80006020E10017003100040020005D
:1027C000234B80000300520064A9B70004002000DE
:1027D000334B800003005A0066A9B70065C9BF00EB
:1027E00064E9B70066C9BF0065E9B70067C9BF0003
:1027F00066E9B7006769EF00044B8000234B800057
:102800000300520060A9B700144B8000334B8000D6
:1028100003005A0062A9B700144B80006020E10059
:1028200006003C0003003500044B80006020E100FE
:10283000020031006029EF006229EF00240120002E
:102840006089BF00114B80000402E8000402E90027
:10285000030032008100D1000080D300FBFF37006D
:1028600012A9B7001229D5001229D5001209F800C3
:102870001409F900A4488000F30F20000418E100B7
:1028800002003D00F40F2000A4488800A448800006
:102890006020E10001003D001429EF001409F80058
:1028A0001609F900A44880006220B80078020200EE
:1028B00000000000B8A8B700CA42A900C642A9009B
:1028C0001A09A9001A29AE0040003700049220001E
:1028D000444B8800D0C0B300C206020000000000D4
:1028E000A0C0B300C20602000000000000C2B30096
:1028F000C2060200000000001289BF000400200090
:10290000841002000000000000C2B300C2060200F2
:1029100000000000C0C2B300C206020000000000B8
:1029200000C2B300C2060200000000001489BF000C
:1029300004002000841002000000000000C2B30068
:10294000C206020000000000C0C2B300C2060200BE
:102950000000000000C2B300C20602000000000038
:102960001689BF000400200084100200000000004F
:1029700000C2B300C206020000000000C0C2B300E3
:10298000C20602000000000000C2B300C20602003E
:1029900000000000B888BF0004002000841002007E
:1029A00000000000019220001104E0000700320046
:1029B0001922AF00FEFF3700014090001AE2B70075
:1029C0001B62EF008100E800F7FF37003DFF370092
:0429D0000040FE00C5
:0200000401F009
:100000000603FF003F00FF009387FF000F31FF0052
:0C0010000F33FF000400FF0003C0FF00DE
:00000001FF
;DSPIC30F4011
;CRC=4128  CREATED="08-May-24 10:48"
